:100000000C9409020C9450020C9450020C9450026F
:100010000C9450020C9450020C9450020C94500218
:100020000C9450020C9450020C94EA230C94BE24BD
:100030000C94701E0C9450020C9450020C945002BC
:100040000C9450020C9450020C9450020C945002E8
:100050000C9450020C94C71E0C9450020C94500245
:100060000C9450020C9450020C9450020C945002C8
:100070000C9450020C9450020C9450020C945002B8
:100080000C9450020C9450020C9450020C945002A8
:100090000C9450020C9450020C9450020C94500298
:1000A0000C9450020C9450020C9450021E001F003D
:1000B0001D001B0001000100010001000100010002
:1000C000010001000100010001000100000000002A
:1000D000000000002A2B28000000000000000000A3
:1000E0000000000000000029000000002C1E342049
:1000F000212224342627252E362D3738271E1F206F
:100100002122232425263333362E37381F040506B3
:100110000708090A0B0C0D0E0F10111213141516F7
:100120001718191A1B1C1D2F3130232D35040506F5
:100130000708090A0B0C0D0E0F10111213141516D7
:100140001718191A1B1C1D2F3130354C00000000E8
:10015000000000000000000000000000000000009F
:10016000000000000000000000000000000000008F
:100170007E0F00D4FFFFFFC7000000786432140038
:100180000101010101010101010202020202020258
:10019000020203030303030303030404040404042B
:1001A00004050505050506060606060707070707F1
:1001B00008080808090909090A0A0A0B0B0B0C0CA4
:1001C0000C0D0D0D0E0E0E0F0F0F10101111111240
:1001D0001213131414151516161717181819191ABF
:1001E0001A1B1B1C1D1D1E1E1F2020212222232422
:1001F00024252626272829292A2B2C2D2D2E2F3061
:10020000313232333435363738393A3B3C3D3E3F74
:10021000404142434445464748494A4C4D4E4F5061
:10022000515354555658595A5B5D5E5F616264651F
:100230006668696B6C6D6F7072737577787A7B7DA9
:100240007E8082838587888A8C8E8F9193959698FD
:100250009A9C9EA0A2A3A5A7A9ABADAFB1B3B5B719
:10026000BABCBEC0C2C4C6C9CBCDCFD1D4D6D8DBF0
:10027000DDDFE2E4E7E9EBEEF0F3F5F8FAFDFF206D
:100280000372006500640077006F006C0066005F19
:100290000034006B006500790064006900720000A2
:1002A00000200357006F006C0066006E006500734D
:1002B0000074002D00530074007500640069006F25
:1002C0000000000403090409025B00030100A0FA16
:1002D00009040000010301010009211101000122AC
:1002E00040000705810308000A0904010002030019
:1002F00000000921110100012222000705820320CC
:1003000000010705030320000109040200010300A6
:100310000000092111010001227B00070584032050
:10032000000A1201000200000008EDFE00000100BA
:10033000010200010660FF0961A1010962150026A2
:10034000FF009520750881020963150026FF0095BE
:100350002075089102C005010902A1018502090169
:10036000A100050919012908150025019508750145
:1003700081020501093009311581257F9502750833
:10038000810609381581257F950175088106050CC0
:100390000A38021581257F950175088106C0C005C0
:1003A000010980A101850319012AB700150126B7AB
:1003B00000950175108100C0050C0901A10185049B
:1003C00019012AA002150126A002950175108100CD
:1003D000C005010906A101050719E029E715002557
:1003E00001950875018102950175088101050719BC
:1003F0000029FF150026FF009506750881000508F5
:100400001901290595057501910295017503910161
:10041000C00011241FBECFEFDAE0DEBFCDBF04B6AF
:1004200003FE27C080914A0290914B02A0914C029A
:10043000B0914D028730904BA740B04BD1F4109251
:100440004A0210924B0210924C0210924D0214BEBE
:1004500084B7877F84BF0FB6F894A8958091600019
:10046000886180936000109260000FBEE0E0F8E3C6
:10047000099511E0A0E0B1E0E0E8FEE402C00590DB
:100480000D92A839B107D9F722E0A8E9B1E001C07F
:100490001D92AA34B207E1F70E9449110C94072774
:1004A0000C94000081E0089581E008950C945402BA
:1004B00008950C9458021F93CF93DF9300D000D07F
:1004C0000F92CDB7DEB749835A836B8330919A017F
:1004D00089819A8131111DC06623B9F02223A9F0C8
:1004E0000E94AF08182F682F89819A810E945E08A8
:1004F00069817A81812F0F900F900F900F900F904C
:10050000DF91CF911F910C94961A0E948908182FA1
:10051000EFCF0E94AF0869817A81EDCFFC01262FD1
:10052000408151816281738184810C945B0281E0FE
:100530000895CF93DF93EC0160E00E948E02BE012C
:10054000DF91CF910C945902E1E0F0E0DF0102C0AD
:10055000AA0FBB1F6A95E2F7BD01DF0102C0AA0F17
:10056000BB1F4A95E2F76A2B01C0EE0F2A95EAF706
:10057000962F9823961302C08E2B0895E0958E2314
:100580000895242F462F682F80919E010E94A40277
:100590000C941B080E943C100E9419040C945710E4
:1005A0000C945A1008950E94B3070E94D2022FEFB4
:1005B00084E39CE0215080409040E1F700C00000BF
:1005C0000C94EB1E0F931F93CF93DF938C0161E08C
:1005D0000E948E02EC01B8010E949118882309F450
:1005E00041C0B801CE010E9456028823D9F1B8015A
:1005F000CE010E94CD1B8823A9F1B801CE010E9433
:100600001F1C882379F1B801CE010E94491D88235F
:1006100049F1B801CE010E947C17882319F1F80135
:100620008281882361F0CA35FDE5DF0721F170F48E
:10063000C115ECE5DE07A1F0CE3DDC45C9F0C801EF
:10064000DF91CF911F910F910C945202CB358DE524
:10065000D807A1F0CC35DD4591F70E94FF0BEFCF15
:100660000E94D30280E0DF91CF911F910F910895F6
:100670000E94680DF7CF0E94080CE1CF0E940B0C7E
:10068000DECFDF92EF92FF920F931F93CF93DF9312
:10069000E82FF0E0E453FF4FD490282F26952695BD
:1006A000269530E0F901E459FE4F0491877010E07F
:1006B000082E02C0159507950A94E2F701701127DC
:1006C000F901E45AFE4FE490F12C082E02C0F59493
:1006D000E7940A94E2F791E0E922FF24F901E45B50
:1006E000FE4FC491D0E002C0D595C7958A95E2F738
:1006F000C170DD270115110519F081EE0E94650416
:10070000E114F10419F086EE0E9465048D2D0E941B
:100710006405EF2819F086EE0E94F704012B19F00A
:1007200081EE0E94F704CD2B51F08CE2DF91CF9146
:100730001F910F91FF90EF90DF900C946405DF9173
:10074000CF911F910F91FF90EF90DF900895EF925E
:10075000FF920F931F93CF93DF93EC01162F0AE0C4
:100760008881882309F454C0813009F04EC0898102
:10077000813099F47E0122E0E20EF11C8A810E9410
:100780006405E7012196812F815050F3EFE9FFE0E6
:100790003197F1F700C00000F7CF823041F47E01BD
:1007A00082E0E80EF11C8A810E946504EACF833062
:1007B00041F47E01E2E0EE0EF11C8A810E94F70412
:1007C000E0CF843011F02196DDCF2A81229690E08F
:1007D00080E0AE014F5F5F4F2053330B2A3031056D
:1007E00048F0019778F2EFE9FFE03197F1F700C0A8
:1007F0000000F7CF089FB001099F700D1124C901B7
:10080000860F971F2981EA01E4CF0E944103BACFE6
:10081000DF91CF911F910F91FF90EF90089560E0CD
:100820000C94A70308950C94120481E008950C948D
:1008300015040895CF93C82F0E9413048C2FCF91D5
:100840000C941704CF93DF93CDB7DEB72B970FB679
:10085000F894DEBF0FBECDBF4F83588769877A8774
:100860008B8761110E942E0C1E821D8285E0FE0185
:100870003796DE01119601900D928A95E1F78C81F1
:100880009D81892B89F449815A816B817C818D817D
:100890009E810E942E0B2B960FB6F894DEBF0FBEE2
:1008A000CDBFDF91CF91089589819A8189238F3FB0
:1008B00051F3CE0101960E9497028111E4CFEBCF54
:1008C000FC01808191810C94DC08CF93C82F882390
:1008D00009F48BC08238C1F40E94781D81FD85C067
:1008E00089E30E94C80B0E94510C2FEF81EE94E027
:1008F000215080409040E1F700C0000089E30E9451
:10090000CF0BCF910C94510C8338A1F40E94781D29
:1009100080FD6BC083E50E94C80B0E94510C2FEF35
:1009200081EE94E0215080409040E1F700C000004B
:1009300083E5E5CF8438A1F40E94781D82FD55C07F
:1009400087E40E94C80B0E94510C2FEF81EE94E0C7
:10095000215080409040E1F700C0000087E4CFCFF5
:100960008CEF8C0F813A90F46C2F80910001909164
:1009700001010E94DB1D882329F08C2F0E94CF0BE0
:100980000E94510C8C2F0E94C80BBBCF80E28C0FB1
:10099000883048F4C77081E001C0880FCA95EAF733
:1009A0000E94110CAECFEBE5EC0FE33040F4F0E029
:1009B000E75BFE4F808190E0CF910C949D1DE8E5B0
:1009C000EC0FE73150F4F0E0EE0FFF1FE55EFE4F55
:1009D00080819181CF910C94B31DC03F30F08C2F5A
:1009E0000E94D711CF910C94AA12CF910895882319
:1009F00009F452C0823871F40E94781D81FF4CC006
:100A000089E30E94C80B0E94510C89E30E94CF0B1E
:100A10000C94510C833859F40E94781D80FF3CC01F
:100A200083E50E94C80B0E94510C83E5EFCF843808
:100A300059F40E94781D82FF2FC087E40E94C80BE2
:100A40000E94510C87E4E2CF9CEF980F913AF0F2AC
:100A500090E2980F983050F4877091E001C0990FA0
:100A60008A95EAF7892F0E94170CD2CF9BE5980F41
:100A7000933020F490E080E00C949D1D98E5980F51
:100A8000973120F490E080E00C94B31D803F20F07B
:100A90000E9431120C94AA1208951F93CF93DF93F2
:100AA000182FEB010E946504209731F4812FDF910C
:100AB000CF911F910C94F7048FE99FE00197F1F714
:100AC00000C000002197F0CF70E060E0893311F49E
:100AD00060E570E00C944D05882321F00E94110C14
:100AE0000C94510C0895882321F00E94170C0C944B
:100AF000510C0895BF92CF92DF92EF92FF920F9325
:100B00001F93CF93DF936C01D62FC72FFC01128167
:100B1000058102950F700E94E60BE82E8823A1F054
:100B2000E12E112389F08C2F807F803429F080E220
:100B30008D0FE12C883040F082E00E94A20C0E94D0
:100B4000E60B91E0E82EE926BC2EB2949FE0B92294
:100B5000FBE0FB1598F1EB2DF0E0E75FF84D0C940E
:100B600098260C2F0F70C07F11F00295007F112383
:100B7000A9F0002359F080E28D0F883010F0D111D8
:100B800009C0802F0E94110C0E94510C8D2F0E94D1
:100B9000650414C0802F0E94210CF6CF8D2F0E9477
:100BA000F704002359F080E28D0F883010F0D11146
:100BB0002CC0802F0E94170C0E94510C2B2D285006
:100BC000330B2430310520F40E94781D0E941A0452
:100BD000EE2009F469C10E94E20B80FD65C1F601B7
:100BE00012820E94DC0B0E942C08C6010E9475072D
:100BF0000E94DC0BDF91CF911F910F91FF90EF903E
:100C0000DF90CF90BF900C943708802F0E94270C64
:100C1000D3CF2C2F2F70F22EC07FC03219F0F29458
:100C200080EFF822DD2369F0D13049F1112391F1F1
:100C3000002351F1F601858180FFA8CF8F70858355
:100C400023C0112381F0011106C00E94340C8F29AA
:100C50000E946C05B3CF0130C1F70E94340C8F297C
:100C60000E943A0CABCF011106C00E94470C8F2D99
:100C70000E947305A3CF013009F4A0CFF6CF112352
:100C800029F0063008F09ACF8F2DE2CF053008F01A
:100C900095CFEDCF002359F3D93349F4FFEF27EE79
:100CA00033E0F15020403040E1F700C000008D2FCC
:100CB0000E94F70483CF8C2F86958695837069F008
:100CC000813009F07BCF8D2F9C2F9370111102C0C2
:100CD00090E080E00E94B31D71CF8D2F9C2F937008
:100CE000111102C090E080E00E949D1D67CF8D2F02
:100CF000112329F00E94D7110E94AA125FCF0E94EF
:100D00003112FACF8C2F837079F5111157CF4D2FF7
:100D1000429546954770440F440F8D2F8F70042ED7
:100D200001C0880F0A94EAF72D2F2071D4FF07C065
:100D30002FE030E001C0220F4A95EAF72095C695D2
:100D4000C695C370822BC23049F058F4C13019F0F7
:100D50000E940D0833CF0E94080830CF0E9412086D
:100D60002DCF0E9406082ACF8695112311F08C2FD3
:100D70008170882309F422CF4D2F42954695477004
:100D8000440F440F8D2F8F70042E01C0880F0A94DA
:100D9000EAF72D2F2071D4FF07C02FE030E001C00B
:100DA000220F4A95EAF72095C695C695C370822B07
:100DB000C23049F058F4C13019F00E945308FECEF9
:100DC0000E944E08FBCE0E945808F8CE0E941B08D5
:100DD000F5CECF70112329F08C2F0E942C088D2F77
:100DE00037CF8D2F0E9473058C2F0E943708E6CED7
:100DF000D23F89F160F4D03FC9F0D13F29F11123EE
:100E000009F442C00111C2CE8C2F8F7121C0D33F93
:100E100039F1D43FA1F7112369F1CF718C2F0E94D2
:100E20002C0863E08C2F0E94870CC8CE112341F060
:100E3000053008F0C3CE8C2F8F710E944308BECEC0
:100E4000063008F0BBCEF7CF8C2F8F71112369F2DB
:100E50000E942C08B3CE8C2F8F711123C9F3C5CFFC
:100E6000112329F08C2F8F710E942408A7CE0E9495
:100E70002108A4CE81E00E94A20C023008F49ECE8C
:100E800082E00E94A20C9ACE002359F0D93309F0D7
:100E90000ECF8FEF97EEE3E081509040E040E1F716
:100EA00004CF8C2F8F71A1CFDF91CF911F910F9124
:100EB000FF90EF90DF90CF90BF9008950F931F9316
:100EC000CF93DF93EC01688179818A810E94E608E3
:100ED0008C010E945D080E940508B801CE01DF91D7
:100EE000CF911F910F910C947A05CF93DF93EC0172
:100EF0008B819C81892B29F08881998189238F3F5F
:100F000059F4DF91CF910895CE010E945E07CE0182
:100F1000DF91CF910C949902CE010E94E2028111DF
:100F2000F3CF0E94E60B882361F38A81882349F37B
:100F300082E0DF91CF910C94A20C90E080E00E94BF
:100F40009D1D90E080E00E94B31D0E942E0C0E9427
:100F5000310C0E94510C0E94D1130C94AA120E94D1
:100F6000D60B0C949D070E941E0C0C94AF07E92F22
:100F7000E295EF70E250EE3070F4F0E0EB5EF84D89
:100F80000C949826803F19F020F4883E20F481E0EC
:100F90000895843FE1F380E00895883EC0F3813FE7
:100FA000D1F7F5CF93FB882780F90895FC01808164
:100FB00091810E94DC080C94B707CF93DF9300D097
:100FC00000D00F92CDB7DEB70F900F900F900F901B
:100FD0000F90DF91CF910895CF93DF9300D000D091
:100FE00000D0CDB7DEB726960FB6F894DEBF0FBEA1
:100FF000CDBFDF91CF91089508950C94FC070E9416
:10100000FD0780939F010C949D0708950C94FF07A2
:1010100090919F01892B0C94FF0790919F01892348
:101020000C94FF0790919F0189270C94FF070C9463
:10103000FC070C9417080E94190880939E010C94D9
:101040009D0780E00C941B0891E001C0990F8A95E0
:10105000EAF7892F0C941B0821E030E001C0220F31
:101060008A95EAF780919E01822B0C941B0821E05F
:1010700030E001C0220F8A95EAF7209580919E0109
:1010800082230C941B0821E030E001C0220F8A95D6
:10109000EAF780919E0182270C941B0890919E0193
:1010A000892B0C941B0890919E0189230C941B089A
:1010B00090919E0189270C941B080895990F890F20
:1010C000982F977041E001C0440F9A95EAF78695F2
:1010D0008695869593E0899FF0011124E556FE4F91
:1010E00030E020E070E05191DF011197CB01022E3A
:1010F00002C0969587950A94E2F7817081958527BD
:10110000842385278C932F5F3F4F2330310559F778
:101110000895990F890F982F9770869586958695D3
:1011200023E0829FF0011124E556FE4F50E040E09D
:1011300080E0219130E0092E02C0369527950A946F
:10114000E2F721703327042E01C0220F0A94EAF738
:10115000822B4F5F5F4F4330510559F70895CF926F
:10116000DF92FF920F931F93CF93DF936C01009157
:101170009E0180919F01082BC7E0D0E010E0FC2E7B
:10118000C8010C2E02C0959587950A94E2F780FD60
:101190000CC02197A0F7F12C8F2DDF91CF911F91DB
:1011A0000F91FF90DF90CF900895B6018C2F0E9491
:1011B000440F019771F3F0CFCF93DF93EC010E94BE
:1011C000AF08BE01DF91CF910C94440F1F93CF93D2
:1011D000DF93EB0190919A01992331F0CB01DF91DC
:1011E000CF911F910C94DC08882379F0CB010E94E9
:1011F000AF08182F682FCE010E945E08BE01812F14
:10120000DF91CF911F910C94440FCB010E9489086C
:10121000182FF4CF1F93CF93DF93C091A00116E056
:101220008091A1018C1304C0DF91CF911F9108958B
:10123000D0E01C9FF0011D9FF00D1124EE55FE4FD4
:101240004081518162817381848195810E94EC0784
:101250002196C770E5CF4091D2015091D3016091A2
:10126000D4017091D5018091D6019091D7010C9451
:10127000EC071F93CF93DF938091D701807FA9F470
:101280008091D401882389F08091A001C091A101AF
:101290006091D2017091D301A091D501B091D60196
:1012A000D62FD72316E0C81304C0DF91CF911F912A
:1012B000089590E0109711F0DF3F19F401968770C0
:1012C000F2CF189F9001199F300D1124F901EE55AE
:1012D000FE4F41814713F2CF40814613EFCF428149
:1012E0004111ECCF438154814A1B5B0B483C5105B3
:1012F00028F78091D7018F7080618093D701F90121
:10130000E955FE4F80818F708061808382ED91E08E
:101310000E947507DF91CF911F910C940A09AF923B
:10132000BF92CF92DF92EF92FF920F931F93CF93D2
:10133000DF93CDB7DEB761970FB6F894DEBF0FBE6F
:10134000CDBF8C0185E0F801DE011D9601900D9264
:101350008A95E1F7F801E28082EDC82E81E0D82E6F
:101360006091D5017091D6016115710509F45AC1DA
:101370009091D2012091D301892F82238F3F09F4CC
:1013800051C140815181A380B480F090D401F50116
:10139000E61BF70BFF2009F4F6C08091D701382F28
:1013A000307FE83CF10508F0AFC0311179C0FE2C68
:1013B000251323C0941321C0E1101FC08F708061DA
:1013C0008093D7010E942B09C6010E947507809166
:1013D000D701F80185838F2D61960FB6F894DEBF93
:1013E0000FBECDBFDF91CF911F910F91FF90EF9076
:1013F000DF90CF90BF90AF900895AB2829F0842F55
:1014000085238F3F09F027C180E0F82FF170DF2E90
:1014100080FF3CC08091A0012091A10136E08213A1
:1014200015C04D875E878D859E850E94DC08292F1B
:1014300022952F702230F0F0243018F59F70F1F0D3
:10144000F8019581907FD1F4D12C1EC090E0389F97
:10145000F001399FF00D1124EE55FE4F61816513A7
:1014600006C06081641303C06281E6120FC001965A
:101470008770D5CF9F7011F0882331F3805E88305C
:1014800018F3C8010E947507FD2CA5CFEE2009F4C2
:10149000A2CF8091D70181608093D701F12C9BCF9F
:1014A000251306C0941304C0F801EE2009F487C088
:1014B000C8010E94D607882319F1EE2009F1809116
:1014C000D701803270F02091D2013091D30138875A
:1014D0002F831986BB86AA868C87CE0107960E9429
:1014E000750786E0F801A2EDB1E001900D928A95B2
:1014F000E1F70E9439090E942B09FF24F3946BCF76
:10150000C8010E947507F9CF311113C07A2DB98A2D
:10151000A88A6E2D89890E94DD0782ED91E00E94E4
:10152000750786E0F60111928A95E9F70E942B096A
:10153000B5CF25130FC094130DC0E1100BC0F801F7
:101540008583C8010E94750786E0F60111928A958D
:10155000E9F741CFC8010E94D607882389F2EE201F
:1015600079F28091D701803208F4BBCF2091D2016B
:101570003091D3013A8329831B82BD82AC828E8352
:10158000CE010196ACCFE83CF10508F03EC0FE2C40
:10159000EE2009F4B5CF25132AC0941328C08091FA
:1015A000D70180FD1BC0982F907FC1F0F801858383
:1015B000903F31F0982F907F905F8F70892B8583BB
:1015C000C8010E94750786E0F801A2EDB1E0019024
:1015D0000D928A95E1F70E942B09FDCE86E0F80175
:1015E000A2EDB1E001900D928A95E1F7F4CEC80129
:1015F0000E94D607811175CF8091D70181608093B9
:10160000D701C8010E947507E6CE7A2DB98AA88A4B
:101610006E2D89890E94DD0786E0F60111928A9578
:10162000E9F7D9CFEE2009F46BCFC8010E94D607A5
:10163000F82E882309F464CF86E0F801A2EDB1E02A
:1016400001900D928A95E1F782ED91E00E9460048D
:101650000E943909C0CF81E08E25D7CE1F93CF934A
:10166000DF93CDB7DEB72C970FB6F894DEBF0FBE71
:10167000CDBF4F83588769877A878B879C87CE0138
:1016800007960E948F09882369F08A859B85892B9C
:1016900039F04F815885842F85238F3F09F071C021
:1016A00016E05FC086E0FE013796DE0111960190DC
:1016B0000D928A95E1F78A859B85892B89F38F8125
:1016C000988589238F3F61F32091A10130E0C90102
:1016D0000196877099274091A0014817190671F467
:1016E0000E94B3071092A1011092A00186E0E2EDE2
:1016F000F1E0DF011D928A95E9F7D2CF96E0929F43
:10170000D001939FB00D1124AE55BE4FFE0131960E
:1017100001900D929A95E1F78093A1010E940A0928
:10172000BFCF819FC00111248E559E4F0E948F090B
:101730008823E9F0E091A0011E9FF0011124EE55ED
:10174000FE4F4081518162817381848195810E9425
:10175000EC078091A00190E0019687709927809313
:10176000A0018091A0019091A1018913DACF2C965C
:101770000FB6F894DEBF0FBECDBFDF91CF911F91A2
:10178000089569857A858B859C850E94EC0788CFB2
:10179000682F80910001909101010C94111E682F17
:1017A00080910001909101010C94131E8091000121
:1017B000909101010C94151E8091D8018595859515
:1017C000859508958091D801877008959091D801EA
:1017D000977081E009F480E008959091230292FBD4
:1017E000222720F9281751F080FB92F990932302C9
:1017F00080912202909123020C94E50C089580912F
:10180000230282FB882780F991E089270C94ED0B55
:1018100081E00C94ED0B80E00C94ED0B8091E401E1
:1018200008959091E401892B8093E40108958095B7
:101830009091E40198239093E40108951092E401BB
:1018400008959091E301892B8093E3010895809599
:101850009091E30198239093E30108951092E3019E
:1018600008951092E20108958091D9010895089594
:101870000C94370C9091230292FD08C09091D901ED
:10188000981721F08093D9010C94380C0895809119
:10189000D901882329F01092D90180E00C94380CEA
:1018A0000895E0910001F09101018091E4018083AD
:1018B000E0910001F091010180819091E301892B79
:1018C0008083E0910001F091010180819091E2011B
:1018D000892B80839091D901992381F0E0910001B7
:1018E000F09101018081892B80838091000190918A
:1018F00001010E94C91D81110E94470C80910001C5
:10190000909101010C94841D08950C94840C909185
:10191000230292FD10C098E0899F90011124622B50
:101920006093D8010E942C088091D80185958595F7
:1019300085950C94850C0C942C081092D80180E0AD
:101940000C94850C9091D801809589238093D801BF
:10195000282F277039F4282F082E000C330B9217EC
:10196000130621F49091230292FF07C08595859577
:1019700085950E9437080C949D0C08956FEF7FEFBA
:1019800090E080E00C94F12690E080E00E94CD266B
:10199000893E9E4F11F40C943A1880E0089582E03D
:1019A00090E00C94BF2683E090E00C94BF26CF9388
:1019B00084E090E00E94BF26C82F82E290E00E945F
:1019C000BF26982F8C2FCF910895CF93C92F682FC2
:1019D00084E090E00E94D3266C2F82E290E0CF91C9
:1019E0000C94D326AB01BC018FE090E00C94E5266B
:1019F000AB01BC0183E190E00C94E52660E070E06F
:101A0000CB010C94F80C60E070E0CB010E94F20C6A
:101A10000C94FE0C69EE7EEF90E080E00E94F126CF
:101A200060E082E090E00E94D32660E083E090E0F6
:101A30000E94D32610929F0160E084E090E00E9413
:101A4000D32660E082E290E00E94D32660E085E049
:101A500090E00E94D32660E086E090E00E94D326CA
:101A60006FEF87E090E00E94D32640E050E0BA019B
:101A700088E090E00E94E52660E08DE090E00E9422
:101A8000D32640E050E0BA0188E190E00E94E526CC
:101A900060E087E190E00E94D32640E050E0BA0188
:101AA0008CE190E00E94E52670E060E080E290E04A
:101AB0000E94F12640E050E0BA0188E190E00E94E7
:101AC000E52680E00E9453180E9479180C94030DBB
:101AD0000C940A0D682F8EE090E00C94D3260E949F
:101AE000AC1E6093EC017093ED018093EE01909336
:101AF000EF016093E8017093E9018093EA0190930C
:101B0000EB01089585B7806885BF85B7806885BF7C
:101B10000895089508950C94890D08950C948D0DE1
:101B20000E94820D82E290E10E940F1F0E948A0DA6
:101B30000C948B0D81E008950C949A0D08950895EE
:101B40000E949E0D0C949F0D0E94971E0E94881863
:101B50000E94CA100E94E1160C948E0DBF92CF9283
:101B6000DF92EF92FF920F931F93CF93DF93CDB746
:101B7000DEB72A970FB6F894DEBF0FBECDBF0E9426
:101B8000DA1081110E946F0D96EEC92E91E0D92EC8
:101B900010E000E0B02E802F0E945C10E82EF601CD
:101BA000F1906F01F81609F453C08091F00181FDA6
:101BB0000E9462108F2D8E25F82FF170FF2E80FD70
:101BC00045C081FF45C0DD24D39482E0F82E0E94F9
:101BD0009C0D882399F0DE82BF82EF2081E009F41A
:101BE00080E088870E94A01E8160782F9A8789876D
:101BF0004E815F8168858A850E942204F801EA513E
:101C0000FE4F80818F2580830E941C170E94C51281
:101C10000E94781D9091E501891771F10E94781D4D
:101C20008093E5012A960FB6F894DEBF0FBECDBFB4
:101C3000DF91CF911F910F91FF90EF90DF90CF90A8
:101C4000BF900C941A0401E010E0A4CFD12CBFCFB8
:101C500001301105C1F78FEF89838A831B820E94AF
:101C6000A01E8160782F9D838C8349815A816B816E
:101C70008D810E942204C8CF2A960FB6F894DEBF49
:101C80000FBECDBFDF91CF911F910F91FF90EF90CD
:101C9000DF90CF90BF900895CF93DF930E94480FBD
:101CA000EC01811521E5920708F042C0811530E56D
:101CB000930708F09DC0883E910530F5803E910560
:101CC00008F092C0883A910588F4853A910508F0A9
:101CD00084C08130910509F487C0009709F484C05D
:101CE000049708F081C0D0E0C0E07EC08F3B910532
:101CF000D0F7C85AD0E0CC0FDD1FC45BDE4F09908F
:101D0000D881C02DD46470C08115904250F4C115A3
:101D100081E0D80708F068C0C03FD10520F3D06546
:101D200063C0C11590E4D907F0F2DF70D06A5CC0DF
:101D3000811525E5920700F5811534E5930708F034
:101D40008BC0811543E5940708F073C0C11582E587
:101D5000D80708F469C0CE018370992721E030E0EC
:101D600002C0220F331F8A95E2F7C695C69580E21E
:101D7000C89FE001112454C0C11599E5D907A8F402
:101D8000C11528E5D20708F06CC0C11536E5D307A8
:101D900008F0A9CF8C2F0E94DF0FC82FD0E0DC2FD6
:101DA000CC27CC27DF71D0621FC0C1154AE5D4070C
:101DB00008F45CC0CE0190568115904208F093CF94
:101DC0008D2F8F710E94DF0F90E0982F8827882732
:101DD0009F719C012C2BE901E6CFC55AD0E0C65873
:101DE000DE4FC881D0E0D064CE01DF91CF9108955D
:101DF000E4E096958795EA95E1F783702C2F269578
:101E00002695237040E2249F90011124382B8C2FBB
:101E10008370C1E0D0E002C0CC0FDD1F8A95E2F7ED
:101E2000C22BD32BDC68E0CFDC2FCC27C16FD06A6C
:101E3000DBCF8370992721E030E002C0220F331FEF
:101E40008A95E2F7C695C69590E2C99FE0011124F4
:101E5000C22BD32BDA68C8CFD82FCC27C46FD06A57
:101E6000C3CFDC2FCC27C06FD06ABECF8C2F8F7032
:101E70000E94DF0F34E0D695C7953A95E1F7CF7011
:101E80009C2FEC01D069B0CF0E94961A0C944C0E96
:101E900082389105B1F1B0F48133910509F475C030
:101EA00048F48932910509F469C08A32910509F430
:101EB00073C008958533910509F459C0893391059C
:101EC00001F10895833E9105A9F138F4803E910512
:101ED000F9F0823E910549F10895863E9105A9F1F8
:101EE000873E9105C9F1843E910519F520912302A1
:101EF00021FF1FC08091220284FD14C087EE90E074
:101F00000895209122022370A1F080EE90E00895C0
:101F10002091220220FD47C03091230230FF09C0EA
:101F200024FF44C090E080E004C02091220222FD02
:101F3000F7CF08952091220222FD3BC03091230269
:101F400030FDE3CF24FFF5CFEDCF2091220223FF18
:101F5000F0CF24FDE7CFD2CF2091220223FD2CC069
:101F60003091230231FFEECF84EE90E0089520916E
:101F7000220225FFDECF89E290E00895209122021F
:101F800025FFD7CF85E390E008952091220226FF18
:101F9000D0CF8AE290E008952091220226FFC9CF97
:101FA00081E390E0089589E390E0089583EE90E066
:101FB000089582EE90E0089586EE90E00895909165
:101FC000220292FF06C0282F28712830F9F4877F5B
:101FD000846093FF06C0282F28712831F1F4877E92
:101FE00084612091230220FF06C0382F38713830D9
:101FF000D9F4877F816021FF06C0282F28712831FE
:10200000D1F4877E816194FD877E0895282F247105
:102010002430F9F68B7F8860DCCF282F247124319F
:1020200001F78B7E8861DDCF382F3171313019F7A0
:102030008E7F8860E0CF282F2171213121F78E7E9D
:102040008861E1CF80E008950C94BE0C0E94DA1004
:102050008FE39CE90197F1F700C000000E94DA10BD
:1020600080E00E945C1080FF04C00E9424100C9449
:10207000EB1E08950C9426100E94C40C811102C01E
:102080000E94680D0E94CF0C8093F0010E94D70C33
:1020900090932302809322020E943A100E94D30C54
:1020A0000E94060880919E010C94190808950C94D2
:1020B000561008950C945910E82FF0E0EA5DFD4F9A
:1020C0008081089508951F93CF93DF932DE731E02A
:1020D000C1E0D0E0D90150E040E002C041E050E072
:1020E0008D918F3F91F0E82FE295EF70F0E011A114
:1020F0008F70BE0101C0660F8A95EAF7962F909502
:10210000912391A382A1862B82A34130510531F7FF
:102110002E5F3F4F81E021383807E1F6DF91CF9104
:102120001F910895FC0170E0AB01440F551FDA01C7
:10213000A358BE4F8C9120E08F3F81F0A82FA2952D
:10214000AF70B0E090962C9130E08F7002C0359562
:1021500027958A95E2F720953095217043585E4F78
:10216000DA0111969C919F3F89F0A92FA295AF703B
:10217000B0E090964C9150E09F7002C05595479505
:102180009A95E2F782E040FD80E0282BE60FF71FEA
:10219000208308950E946310A4E2B2E01C92E6E25C
:1021A000F2E0108211961C92118282E00E941211BC
:1021B0000C94CA021F93CF93DF9300D0CDB7DEB744
:1021C0001A82198260E0CE0101960E94921061E0AD
:1021D000CE0101960E94921042E050E0BE016F5F76
:1021E0007F4F84E292E00E94B22611E0009709F44A
:1021F00010E0892B31F089819A8190932502809398
:102200002402212F42E066E272E084E292E00E9422
:1022100013110E94D002812F0F900F90DF91CF9168
:102220001F9108950895FF920F931F93CF93DF930B
:10223000F82E092F162FD72FC42F222349F081E023
:102240008093F3010E94A01E9093F2018093F1010C
:102250008091F3018823A1F08091F1019091F20126
:102260000E94B81E059760F0EF2DF02FA12FBD2F13
:10227000CE0FDF2FD11DEC17FD0741F41092F301B3
:10228000DF91CF911F910F91FF90089581918D93D0
:10229000F2CF0E941C1E0E94A2200E94BB200E941E
:1022A000CD200E94A00DFBCF8091FA0180FF12C0CB
:1022B0006091070185E0689FB001112475956795CD
:1022C0007595679560387105A8F561157105A1F1DF
:1022D000862F089581FF09C06091070185E0689FFE
:1022E000B001112475956795EDCF6091070182FDCE
:1022F0000AC08091F9018823D1F090910601609184
:102300000701891728F085E0689FB0011124DACF12
:10231000869FB001112485E0869F9001879F300D34
:102320001124692F70E0C9010E948426CBCF65E09B
:1023300070E0CECF8FE7089581E008958091FA0193
:1023400080FF0CC06091030170E0759567957595ED
:1023500067956115710549F1862F089581FF06C0C3
:102360006091030170E075956795F3CF609103016B
:1023700082FD0BC09091F8019923A1F060910201B8
:1023800080910301961738F0682F70E0603871056E
:1023900000F38FE70895899FC001112470E00E9427
:1023A0008426F4CF61E070E0D7CF81E00895803FCC
:1023B00031F40E94541181958093FE010895813F6C
:1023C00019F40E945411F8CF823F31F40E94541145
:1023D00081958093FD010895833F19F40E94541163
:1023E000F8CF893F29F40E949E118093FF01089540
:1023F0008A3F21F40E949E118195F7CF8B3F31F4E3
:102400000E949E1181958093000208958C3F19F4DB
:102410000E949E11F8CF9CE0980F953070F4845F75
:10242000990B21E030E001C0220F8A95EAF78091F4
:10243000FC01822B8093FC0108958D3F31F4809143
:10244000FA0181608093FA0108958E3F21F4809112
:10245000FA018260F7CF8F3FB9F78091FA0184606B
:10246000F1CF4091FD01803F59F48091FE0187FF3B
:102470000DC01092FE0141110BC01092F90108C06D
:10248000813F81F48091FE0118169CF3442381F072
:102490008091FF0190910002892B09F05AC010929F
:1024A000F8010895823F49F447FFF0CF1092FD01F3
:1024B0008091FE018111ECCFE0CF833F19F4141617
:1024C000ACF3E4CF9091FF01893F29F41916F4F69B
:1024D0001092FF01DBCF8A3F19F497FFD7CFF8CFD7
:1024E000909100028B3F29F497FFD0CF1092000209
:1024F000CDCF8C3F19F41916CCF3C8CF9CE0980FC0
:10250000953090F4845F990B21E030E0B90102C06E
:10251000660F771F8A95E2F7CB0180959091FC01B9
:1025200089238093FC01B2CF8D3F31F48091FA0171
:102530008E7F8093FA01AACF8E3F21F48091FA0119
:102540008D7FF7CF8F3F09F0A1CF8091FA018B7F6C
:10255000F0CF08950E94A01E9C019091FD018091F2
:10256000FE01982B21F03093F7012093F601909112
:10257000FF0180910002982B21F03093F501209308
:10258000F4018BEF91E00C948F1DEF92FF920F936B
:102590001F93CF93DF9300D000D000D0CDB7DEB72C
:1025A00086E0EBEFF1E0DE01119601900D928A9545
:1025B000E1F7E090FD01F090FE010091FF01109124
:1025C00000021092FD011092FE011092FF01109284
:1025D00000028E2D8F2991F08091F6019091F701E4
:1025E0000E94B81EAC019091F901992309F43FC0F3
:1025F000809108018417150608F447C0802F812BAD
:1026000091F08091F4019091F5010E94B81EAC0107
:102610009091F801992309F477C0809104018417FF
:10262000150608F47FC08091FD019091FE01892B71
:102630009091FF01892B90910002892B11F00E944B
:10264000AA1286E0FE013196ABEFB1E001900D9247
:102650008A95E1F726960FB6F894DEBF0FBECDBF80
:10266000DF91CF911F910F91FF90EF9008952091EE
:1026700009018AE0289F900111242417350708F0EA
:10268000BDCF9F5F9093F90102C09F3FD1F7EE202D
:1026900059F00E9454119FEF1E140CF491E0899F91
:1026A000802D11248093FD01FF2059F00E945411C8
:1026B0009FEF1F140CF491E0899F802D11248093CB
:1026C000FE013091FD01332309F498CF2091FE01E2
:1026D000222309F493CF45EB3403C001112499233D
:1026E00059F09093FD0145EB24039001112433230D
:1026F00039F03093FE0182CF81E08093FD01F3CF6A
:1027000081E08093FE017ACF209105018AE0289F25
:10271000900111242417350708F085CF9F5F90930F
:10272000F80102C09F3FD1F7002359F00E949E118B
:102730009FEF10160CF491E0899F802D1124809357
:10274000FF01112359F00E949E119FEF11160CF406
:1027500091E0899F802D1124809300023091FF0128
:10276000332309F460CF20910002222309F45BCFC8
:1027700045EB3403C0011124992359F09093FF01D4
:1027800045EB240390011124332339F030930002E8
:102790004ACF81E08093FF01F3CF81E08093000274
:1027A00042CF86E0EBEFF1E0DF011D928A95E9F779
:1027B0001092F9011092F8011092FA010895EF9227
:1027C000FF920F931F93CF93DF93EB01E82FD1116B
:1027D00010C0442321F0F0E0E158FE4FE4916E2F49
:1027E0007E2F8E2FDF91CF911F910F91FF90EF9051
:1027F00008950D2F10E0282F30E0442329F02158B0
:102800003E4FF901249130E0F6E0CF9FC001112442
:10281000EFEFF0E0BF010E947026AB018C2F90E03B
:10282000880F991FA5E5A49FB001A59F700D1124E5
:10283000861B970B982F990F980FBF01601B710B88
:10284000629FD001639FB00D729FB00D11248B2F3A
:102850009D9FB0011124672F7727EF01C61BD70B6F
:10286000BE01629FE001639FD00D729FD00D1124C5
:102870007F01E91AF108E09EB001E19E700DF09E23
:10288000700D1124672F7727E61BF70BE29F80015D
:10289000E39F100DF29F100D1124E12F722F423093
:1028A000510599F048F44115510569F04130510541
:1028B00081F0EB2F8D2F07C04430510569F080F077
:1028C00046305105B1F76E2F8DCFE22F7B2F812F30
:1028D000FACFE22F7D2FF7CFEB2F822F712FF3CF7F
:1028E0007B2F822FED2FEFCF41E00C94DF13089563
:1028F0000C947414CF93DF93762FE901682F842F03
:102900000E947814798368838A83DF91CF91089538
:1029100080912802982F9E7F29F481708260809395
:10292000280208958031E8F381708E60F8CF88E046
:1029300090E00C94C726CF92DF92EF92FF926B014A
:102940007C010E948814B701A60188E090E0FF9006
:10295000EF90DF90CF900C94E52660912802709163
:10296000290280912A0290912B020C949B14E8E298
:10297000F2E083E0808311828FEF8283838314826D
:1029800060817181828193810C949B1480912802D3
:1029900080FF02C08695089580E0089590912C02F2
:1029A000933018F49F5F90932C02882351F060912C
:1029B00028027091290280912A0290912B020C9496
:1029C0009B14089581E00C94CE1490912C029923CD
:1029D00019F0915090932C02882351F060912802B5
:1029E0007091290280912A0290912B020C949B14E1
:1029F000089581E00C94E51480912C020895809351
:102A00002C02662351F06091280270912902809176
:102A10002A0290912B020C949B14089560E00C9470
:102A2000FF1480912902089580912A0208958091CF
:102A30002B02089570E00C940E1860910B018091A8
:102A4000280280FF0AC080910A0123E0829FC00112
:102A50001124835D9D4F0C941A1580910C01909167
:102A60000D0123E0829FF0011124E35DFD4F8917E2
:102A700050F71182108212828F5F3396F8CF9091B7
:102A8000280290FF14C090910C0120910D0133E0B9
:102A9000939FF0011124E35DFD4F921710F00C9409
:102AA0001D158183608342839F5F3396F6CF08951F
:102AB000EF92FF920F931F93CF93DF9300D00F926B
:102AC000CDB7DEB7182FF62E042FE22E8091280204
:102AD00080FF28C0E82FE695F0E0EF57FE4F908189
:102AE000909308028E7F823039F59E012F5F3F4F11
:102AF000812F0E947A144B8169818A810E943F153F
:102B000010932902F0922A0200932B02EE2051F03A
:102B1000609128027091290280912A0290912B02E3
:102B20000E949B140F900F900F90DF91CF911F91F7
:102B30000F91FF90EF900895923011F710912902B4
:102B4000DFCFE8E2F2E09181282F4381628188E0C3
:102B5000890F0C94581581E00C94A115E8E2F2E07D
:102B60009181282F4381628188EF890F0C94581539
:102B700081E00C94AE15E8E2F2E0628128E0620F99
:102B800008F46FEF282F438181810C94581581E060
:102B90000C94BB15E8E2F2E0628128E0621B08F4C5
:102BA00060E0282F438181810C94581581E00C94BA
:102BB000CA15E8E2F2E0438121E1420F08F44FEF49
:102BC000282F628181810C94581581E00C94D915CD
:102BD000E8E2F2E0438121E1421B08F440E0282FC3
:102BE000628181810C94581581E00C94E81520E0F5
:102BF0000C945815EF92FF921F93CF93DF93EC0143
:102C000010E0EE24EA94F12C60910E01161770F09A
:102C10000E941D159A818C8190FF27C08F5F8C8345
:102C2000DF91CF911F91FF90EF90089520910C01BB
:102C3000422F410F5527551FCA019A01220F331FFA
:102C4000280F391F235D3D4F70E0C7010E94842685
:102C5000962F8C8140912B0260912A02199F800D42
:102C600011240E947A141F5FCFCF8150D8CFE8E2A1
:102C7000F2E080818E7F8083608171818281938187
:102C80000E949B14109209022FEF80E792E02150DE
:102C900080409040E1F700C000000C941D15E8E270
:102CA000F2E080818E7F8083109209022FEF80E70F
:102CB00092E0215080409040E1F700C000000C9469
:102CC0001D1560912802669570E041E050E08FE0AC
:102CD00091E00E94A526892B19F481E080930902D6
:102CE0000E94A01E90930202809301020895909189
:102CF000280290FF35C09170811128C09260909396
:102D00002802662351F06091280270912902809177
:102D10002A0290912B020E949B14609128026695D2
:102D200070E041E050E08FE091E00E94A526892B01
:102D3000A1F01092090281E08093040240912B02DD
:102D400060912A02809129020C94F715883010F0C6
:102D50009E60D5CF880F982BD2CF0E946116EBCF03
:102D60000895682F90912802969581E0890F883008
:102D700008F081E00C94771681E00C94B116682F6E
:102D80009091280296958FEF890F09F487E00C94B3
:102D9000771681E00C94BF1661E00C947716E8E298
:102DA000F2E080818160808386950C94CC168091BE
:102DB000280280FD0C9437160C94CF1660E00C941A
:102DC00077168091070281112EC00E94C40C8111D8
:102DD00004C00E94680D0E94B7140E94971460936B
:102DE00028027093290280932A0290932B026E7F0F
:102DF00061F40E94B7140E949714609328027093A4
:102E0000290280932A0290932B020E948814109228
:102E100009028091280280FF03C086950E94DE1679
:102E200081E0809307020895E8E2F2E0808181600A
:102E3000808386950C94DE160F931F93CF93DF93B8
:102E400080910902882309F440C080910802E09132
:102E50002802E695E81BE0930302C0EDD7E007E700
:102E600014E1823049F4E695F0E0E458FE4FE49135
:102E7000CE2FD0E00AEF15E180910402882361F0A3
:102E8000109204020E94A01E9093020280930102FD
:102E900010920602109205020E94A01EE09101020B
:102EA000F09102028E1B9F0B8F3F9F4770F4CE0F55
:102EB000DF1FD0930202C093010281E092E0F8018B
:102EC000DF91CF911F910F910994DF91CF911F91C5
:102ED0000F910895FA01811101C0FB0109940E942C
:102EE000C614823030F00E94C614873010F40C945F
:102EF000BC1682E00C94CC160F931F93CF938C01D9
:102F0000FB01C281CC2309F487C00E940E0C82729F
:102F10000A3CFCE51F0709F472C060F5053CECE5CE
:102F20001E0709F458C080F4033C9CE5190709F416
:102F300048C008F04BC0023C1C4509F43FC08C2F30
:102F4000CF911F910F910895073C9CE5190709F453
:102F50004CC008F445C0083CFCE51F0709F44AC012
:102F600044EF55E165EE75E1093C1C4541F70E94CF
:102F70006A171EC0003DECE51E0798F40E3CFCE508
:102F80001F07B0F40C3C9CE51907F1F149EF54E13F
:102F900062EE74E10D3C1C4550F381E00E94CC16BA
:102FA00007C0063DFCE51F0728F4013D1C4588F1DC
:102FB000C0E0C5CF0D351D45D9F3C1CF0E94D7164E
:102FC000F7CF49EC56E16CEB76E1D1CF4CEB56E113
:102FD00069EC76E1CCCF48EB55E16BEA75E1C7CF00
:102FE0004BEA55E168EB75E1C2CF46ED55E167EC80
:102FF00075E1BDCF47EC55E166ED75E1B8CF45EE23
:1030000055E164EF75E1B3CF42EE54E169EF74E14D
:10301000AECF0E946F17CCCFC1E091CF3E9A48B19E
:103020004F7B58B15064EFB7F8949B01220F331FC8
:10303000260F371F280F391F2817390741F4EFBF14
:103040008FE594E00197F1F700C000000895DC01DE
:103050006D91CD0178E058B9000000C067FF48B914
:10306000660F000000C000C000C048B900C07A95DB
:1030700091F7E2CF83E290E00E94BF26813289F48B
:1030800084E290E00E94BF26813159F485E290E00D
:103090000E94BF2691E0843109F090E0892F817071
:1030A000089580E0FCCFCF93C82F6FEF811161E2CC
:1030B00083E290E00E94D3266FEFC11161E184E2C8
:1030C00090E00E94D3266FEFC11164E185E290E0A9
:1030D000CF910C94D326089586E290E00E94BF26FB
:1030E000682F70E090E080E0089586E290E00C9414
:1030F000D32680E00E94531860E070E0CB010E946C
:1031000075180E94171A0E94FA1A81E00C9453183D
:103110000E946B180E943A18811102C00C94791811
:103120000895CF93FB01C281CC2309F19C01225168
:103130003F452031310520F582510E940A1BC0E035
:103140008C2FCF91089581E00E942C0843E062E02B
:1031500081E00E94C102F3CF81E00E94370843E082
:1031600062E081E00E94C102EBCF82E0F6CF8031C5
:10317000FFE59F0789F381319F45B9F3C1E0E0CFB7
:103180008031EFE59E07F9F281319F45C9F682E073
:10319000DBCF2FEFFC0120830895CF93DF93EC0169
:1031A00088818138A9F028F4803871F0DF91CF91BF
:1031B0000895823881F08338C9F70E9411158983F8
:1031C0000E9414158A83F2CF0E9417158983EECFCF
:1031D0000E94C614FBCF0E94FC14F8CFCF93DF935C
:1031E000EC0188818138E1F028F4803869F0DF91C2
:1031F000CF910895823811F18338C9F70E941715CD
:10320000482F6A81898108C0D9810E941415C82F6E
:103210000E9411154D2F6C2FDF91CF910C94F71553
:1032200089810E94DE168981811104C0DF91CF91CE
:103230000C944F16DF91CF910C9414178981DF9174
:10324000CF910C940E151F93CF93DF93EC01162FA3
:10325000DC01ED91CD01E150E33108F0A4C0F0E0D4
:10326000ED5DF84D0C949826198289E08A83612FD0
:10327000CE01DF91CF911F910C94971F89818230ED
:10328000B1F0833059F08130A9F40E94AC1E0E9445
:103290009E266A837B838C839D83E9CF80E00E9496
:1032A0005C108A8381E00E945C108B83E0CF0E94D7
:1032B0006C18EDCF612FCE010E94C918D8CF89813B
:1032C0008230C1F76A817B818C819D810E949E261C
:1032D0000E947518CCCF4B816A8189810E94E919BF
:1032E0009827892798279D838C83C1CF2C813D8186
:1032F0003227232732274B816A8189810E94021A53
:10330000B6CF0E94171AB3CF0E94EE18B0CF0E941A
:10331000CD18ADCF0E94AD14AACF0E94A31A898305
:10332000A6CF0E94A51A9827892798279A83898370
:103330009ECF6B8170E089819A81AE014C5F5F4FB7
:103340009827892798270E94A81A91CF6B8170E04F
:1033500089819A81AE014C5F5F4F98278927982712
:103360000E94CF1A84CF0E94FA1A81CF0E94D619E8
:10337000D6CF6B8170E089819A81AE014C5F5F4F3F
:103380009827892798270E94481A71CF6B8170E08F
:1033900089819A81AE014C5F5F4F982789279827D2
:1033A0000E946D1A64CF8FEF888361CF84E0089507
:1033B00024E0629FB001112450E0440F551F640FB8
:1033C000751F28E0829FC0011124860F971F8796E2
:1033D00008950F931F93CF93DF930E94D8198C0108
:1033E0000E94BF26C82FD0E0DC2FCC27C801019651
:1033F0000E94BF269E01282BC901DF91CF911F910A
:103400000F9108950F931F93CF93DF93122F032FE4
:103410000E94D819EC01602F0E94D326612FCE01A3
:103420000196DF91CF911F910F910C94D326EF92CB
:10343000FF920F931F93CF93DF938CEAE82E80E0E7
:10344000F82EC0E08701D0E001C0D1E0F80125915D
:10345000349140E06D2F8C2F0E94021AF8013296B1
:103460002591349141E06D2F8C2F0E94021A0C5F40
:103470001F4FD13051F788E0E80EF11CCF5FC43008
:1034800009F7DF91CF911F910F91FF90EF90089571
:10349000EF92FF920F931F93CF93DF93EC018A017A
:1034A0007C01E60EF71ECE018796CE15DF0539F4B6
:1034B000DF91CF911F910F91FF90EF900895C0324F
:1034C000D10540F40E94BF26F80180830F5F1F4F93
:1034D0002196E9CFF8011082F9CFCF92DF92EF92D7
:1034E000FF920F931F93CF93DF937C016A018C01AE
:1034F000060F171FEC01CE018796C017D10749F4BC
:10350000DF91CF911F910F91FF90EF90DF90CF90BF
:103510000895C032D10540F4FE01EE19FF09EC0D0B
:10352000FD1D60810E94D3262196E5CF462F843071
:1035300038F4723028F4623018F4672F0C94E919CB
:1035400090E080E0089580E1089589EB93E008958C
:10355000EF92FF920F931F93CF93DF93EC018A01B9
:103560007C01E60EF71ECE01895B9F4FCE15DF056D
:1035700039F4DF91CF911F910F91FF90EF90089553
:10358000C93B23E0D20740F40E94BF26F8018083A4
:103590000F5F1F4F2196E7CFF8011082F9CFCF922E
:1035A000DF92EF92FF920F931F93CF93DF937C01F3
:1035B0006A018C01060F171FEC01CE01895B9F4F3A
:1035C000C017D10749F4DF91CF911F910F91FF9060
:1035D000EF90DF90CF900895C93B23E0D20740F4ED
:1035E000FE01EE19FF09EC0DFD1D60810E94D3263E
:1035F0002196E3CFCF93DF93C7E4D0E060E0CE0124
:103600000E94D3262196C11584E0D807B9F7DF912F
:10361000CF910895DF92EF92FF920F931F93CF9374
:10362000DF9300D000D0CDB7DEB7F82E8FE08F1536
:1036300040F08FEF93E00E94BF2607E410E088235C
:10364000C1F00F900F900F900F90DF91CF911F91CD
:103650000F91FF90EF90DF900895011584E0180717
:1036600081F3C8010E94BF26811101C0FA940F5F47
:103670001F4FF110F2CF19821A821B821C82DD24A7
:10368000D39478018FEFE81AF80AC8010E94BF2688
:1036900089831A828823A9F29FEF980F933078F4D8
:1036A0008A83D9820E5F1F4FC7010E94BF268B837A
:1036B000882339F2CE0101960E940F04E2CF8701E0
:1036C000F9CF0F931F93CF93DF93C42FD22FFC0119
:1036D00082818823C9F040930C020E94A01E90931F
:1036E0000B0280930A0280E28C0F883008F050C0F1
:1036F000C77081E001C0880FCA95EAF7DF91CF91CA
:103700001F910F910C946C0510910C02141335C08D
:1037100080910A0290910B020E94B81E883C91058C
:1037200060F5C0E2CD0F1D17B9F080E2810F88303F
:1037300040F4177081E001C0880F1A95EAF70E94E3
:103740007305C83048F481E09D2F977001C0880F41
:103750009A95EAF70E946C05802F0E946405C83094
:10376000B8F4D77081E001C0880FDA95EAF7DF91ED
:10377000CF911F910F910C94730580E28C0F8830CC
:1037800038F4C77081E001C0880FCA95EAF7EFCF1F
:10379000DF91CF911F910F9108950F939C01CB0161
:1037A000233F4CE5340759F1A8F4283DFCE53F07D9
:1037B00001F1293D4CE53407D1F1273D3C4591F419
:1037C00006E221EE41EE67ED7CE50E94611B80E0A0
:1037D0000F910895253FFCE53F07E9F0B0F0263F43
:1037E0003C45F9F0FC018281882339F110920C02EA
:1037F000EFCF07E225EE45EE68ED7CE5E6CF06E289
:1038000021EE40EE63EF7CE5E0CF07E225EE44EEEB
:1038100064EF7CE5DACF06E221EE42EE65EF7CE56F
:10382000D4CF07E225EE46EE66EF7CE5CECF08E288
:1038300021E045EE69ED7CE5C8CF81E0C9CFCF93AB
:10384000DF93EC01FB018281882309F420C1C3309E
:10385000FDE5DF07C8F5CA3F9CE5D90730F49E01B6
:1038600022503C452431310598F50E94D70C9093A5
:10387000230280932202C031FCE5DF0709F4E0C097
:1038800008F061C0C8309CE5D90709F4CBC088F5C1
:10389000C430FCE5DF0709F4B3C0E8F4C2309CE5AE
:1038A000D90709F4A7C0809122028260C330DC45A9
:1038B00009F4A3C080912202909123020E94E50C9A
:1038C0000E94B30780E004C0C136EDE5DE0769F26F
:1038D000DF91CF910895809122028061C630FCE58E
:1038E000DF0709F48AC008F48FC080912202806249
:1038F00084C0809122028D7FCC309CE5D90709F4E9
:103900007CC070F4809122028C60CA30FCE5DF0735
:1039100009F473C008F48AC0809122028E7F6DC0C2
:1039200080912202877FCE309CE5D90709F465C0DB
:10393000809122028B7FCF30DC4508F45EC08091FD
:1039400022028F7E5AC0CC3FFCE5DF0709F474C029
:1039500040F5C4319CE5D90709F48AC058F4C23156
:10396000FCE5DF0709F474C008F46EC08091220200
:10397000837F43C0CA3F9CE5D90709F449C008F0DA
:103980004DC0C531DC4509F095CF8091220282FB04
:10399000992790F921E0922790FB82F990FB83F917
:1039A0002CC0C1158DE5D80709F458C088F4809162
:1039B00023028360CE3FECE5DE0769F180912302AC
:1039C0008D7FCF3FDC4538F1809123028C7F23C06F
:1039D000C2308DE5D80709F458C008F452C0C1368A
:1039E000DD4509F067CF90912202892F8F7E94FFE9
:1039F000806103C0809122028160809322025ACFAD
:103A0000809122028460F9CF809122028860F5CFF4
:103A1000809123028160809323024CCF8091230206
:103A20008260F9CF809122028064E7CF0E94B307C1
:103A3000809122028068E1CF809123028E7FEBCFBC
:103A4000809122028F7DD9CF809122028F7BD5CFAA
:103A50000E94B307809122028F77CFCF80912302FB
:103A6000982F909591708E7F892B90FB81F9D3CF01
:103A70000E94B30790912202892F97FB87F9805803
:103A8000BCCF81E00E946A0D15CF80E0FBCF81E0C2
:103A90001FCFCF93DF93EB0186319C4511F50E9438
:103AA0000E0C9A81992399F08A7A91E009F490E0BA
:103AB00090930D02811109C089E20E94C80B0E94F7
:103AC000510C80E0DF91CF91089585E3F6CF80918E
:103AD0000D02811104C089E20E94CF0BF0CF85E373
:103AE000FBCF81E0EFCF90931302809312020895F1
:103AF000E0911202F0911302309721F00190F081D1
:103B0000E02D099480E00895E0911202F0911302F3
:103B1000309721F00280F381E02D09940895E0911F
:103B20001202F0911302309739F022E0DC012C935D
:103B30000480F581E02D09940895209110023091C0
:103B400011022817390771F0909311028093100227
:103B5000E0911202F0911302309721F00680F78174
:103B6000E02D0994089520910E0230910F0228173C
:103B7000390771F090930F0280930E02E0911202C8
:103B8000F0911302309721F00084F185E02D099423
:103B900008959C012E5F3F4FAC01485F5F4F80E06E
:103BA0002417350709F40895F90191919F0199238C
:103BB000B9F38F5FF5CF662349F0FC013296089682
:103BC0002191261729F0E817F907D1F780E0089529
:103BD00081E008959C01FC0132969FEF80E04191C5
:103BE000461751F09F3F19F4411101C0982F8F5F84
:103BF0008630A9F79F3F09F40895290F311D97FDDD
:103C00003A95F90162830895FC0132960896219154
:103C1000261303C0DF0111971C92E817F907B9F7C3
:103C200008950C94EA1D0C94041E029626E0FC01F3
:103C300011922A95E9F708950895089508950C942E
:103C40001E1E80914102843049F10E941F1E80E0B7
:103C50000E941A041092140288E190E020E40FB64A
:103C6000F894A895809360000FBE2093600083B7FE
:103C7000817F846083BF83B7816083BF7894889598
:103C800083B78E7F83BF0FB6F894A89580916000AC
:103C9000886180936000109260000FBE08950895BF
:103CA0000E941D1E0E94DA100E944F1E80E00E949A
:103CB0005C1091E0811107C081E00E945C1091E0EE
:103CC000811101C090E0892F089508950C94651E1C
:103CD0000E94B3070E94781D0E941A040C94661E6D
:103CE0001F921FB61F9211248F939F93AF93BF9380
:103CF00080911402811113C08091390290913A028F
:103D0000A0913B02B0913C024196A11DB11D809350
:103D1000390290933A02A0933B02B0933C02BF91C8
:103D2000AF919F918F911F901FBE1F90189582E0B9
:103D300084BD93E095BD9AEF97BD80936E00089582
:103D40002FB7F8948091390290913A02A0913B02EA
:103D5000B0913C022FBF08952FB7F89460913902BB
:103D600070913A0280913B0290913C022FBF0895DE
:103D70009C014FB7F8948091390290913A02A0913A
:103D80003B02B0913C024FBF821B930B0895789485
:103D90001F921FB61F9211248F939F93AF93BF93CF
:103DA0008091390290913A02A0913B02B0913C027D
:103DB0000196A11DB11D8093390290933A02A09300
:103DC0003B02B0933C02BF91AF919F918F911F90A6
:103DD0001FBE1F90189581E08093E00080E28093E1
:103DE000D8001092C9008FE19EE40197F1F700C05E
:103DF000000087E090EBDC0180934A0290934B0235
:103E0000A0934C02B0934D0288E19CE00FB6F89469
:103E1000A895809360000FBE90936000FFCF9093B1
:103E200099018093980108958091200208959091BE
:103E30004102943029F58093150270931702609324
:103E400016029093E9008FEF9091E800815095FD64
:103E500006C095ED9A95F1F700008111F5CF80919C
:103E6000E80085FF0DC050E040E063E070E085E1D0
:103E700092E00E9490218091E8008E778093E80084
:103E80000895BC0184E00C94171FBC0183E00C94DE
:103E9000171F9C0184E08093E9009FEF8091E80068
:103EA000915085FD06C085ED8A95F1F700009111CE
:103EB000F5CF8091E80085FF0CC050E040E066E05F
:103EC00070E0C9010E9490218091E8008E77809374
:103ED000E8000895CF93DF93EC0181E08093E9003F
:103EE0008FEF9091E800815095FD06C095ED9A9571
:103EF000F1F700008111F5CF8091E80085FF14C033
:103F000050E040E068E070E0CE010E949021809196
:103F1000E8008E778093E80088E0FE01A8E1B2E037
:103F200001900D928A95E1F7DF91CF910895CF939B
:103F3000FC01603221F580914102843001F5C0918D
:103F4000E900CF702091EC00922F917020FD90E855
:103F5000C92B82E08093E9008091E80080FF0CC0CB
:103F600050E040E060E270E0CF010E94902180913B
:103F7000E8008E778093E800CF70C093E900CF917E
:103F8000089580914002811109C00E946F230E9410
:103F9000CC238091E20084608093E2000895109227
:103FA0004002089508950895089542E061EC81E08B
:103FB0000E94EB2242E261EC84E00E94EB2242E2AA
:103FC00061EC82E00E94EB2242E260EC83E00C9420
:103FD000EB2280914302833009F461C030F48130D8
:103FE000D1F1823009F49DC008958A3009F489C066
:103FF0008B3009F46FC0893009F050C080914202C3
:10400000813209F04BC0809146029091470200979F
:1040100019F0029709F042C08091E800877F8093F1
:10402000E8008091E80082FF35C09091F300809114
:10403000F200029729F48091F1008B7F813021F406
:104040008091F100809320028091E8008B7780932B
:10405000E8000C941F2380914202813AF9F4809188
:10406000E800877F8093E8008091460290914702A4
:10407000892B61F468E088E192E070E00E942E22D2
:104080008091E8008B778093E800089560E090E0ED
:1040900080E0F3CF809141028111C3CF08958091D8
:1040A0004202813AD9F78091460290914702892BCA
:1040B000A9F78091E800877F8093E8008091E8006D
:1040C00080FFFCCF80911A018093F1008091E8007D
:1040D0008E77BDCF80914202813201F780914602F6
:1040E00090914702892BD1F68091E800877F8093D9
:1040F000E8000E941F238091440280931A010C94CF
:10410000B30780914202813249F68091E800877FAF
:104110008093E8000E941F23809145028093210232
:10412000089580914202813A09F0B8CF8091E80069
:10413000877F8093E8008091E80080FFFCCF80912A
:104140002102C2CF84B7877F84BF0FB6F894A895A9
:1041500080916000886180936000109260000FBEC3
:1041600080E890E00FB6F89480936100909361002E
:104170000FBE0C94900D0E946F230E94CC23E2EEA0
:10418000F0E080818460808378940E9455260E94AC
:10419000A40D80E191E00C94731DCF93DF93CDB714
:1041A000DEB7A0970FB6F894DEBF0FBECDBF8091EB
:1041B0004102853031F480914102853091F10E94B5
:1041C000681E0E94AE0D80914102843009F583E0A3
:1041D0008093E9008091E80082FF1AC08091E80096
:1041E00090E085FF09C050E040E060E270E0CE0161
:1041F00001960E94DF2191E08091E8008B77809307
:10420000E800992329F060E2CE0101960E9423196B
:10421000A0960FB6F894DEBF0FBECDBFDF91CF9151
:1042200008950E94211E80913F02882321F20E945E
:10423000501E882309F4BFCF0E947A210E94B30741
:10424000BACF0C942321292F33272330310521F1B4
:1042500068F42130310509F443C02230310509F4F6
:1042600044C090E080E030E020E026C021323105FB
:1042700051F122323105A9F76330710590F7FB0146
:10428000EE0FFF1FE457FE4F2081318167577E4FAD
:10429000FB01808190E010C099278130910581F069
:1042A000009729F00297E9F6EFE7F2E002C0E3ECAD
:1042B000F2E0849190E09F01FA0131832083089518
:1042C000E1EAF2E0F6CF6330710558F6660F771F2A
:1042D000FB01EE56FE4F2081318189E090E0ECCF6A
:1042E00082E190E022E233E0E7CF8BE590E027EC3B
:1042F00032E0E2CF80E189BD82E189BD09B400FEF0
:10430000FDCF8091D8008F7D8093D8008091E00010
:1043100082608093E0008091E00081FDFCCF0895F1
:10432000AF92BF92CF92DF92FF920F931F93CF93E2
:10433000DF936C01EB018A010E943E23F82E81116C
:1043400023C00115110539F0F80180819181C81B46
:10435000D90BC80ED91EB12CA12C2097A9F08091A1
:10436000E80085FD22C08091E8008E778093E80008
:1043700001151105A1F0F80180819181A80EB91EE7
:10438000B182A08285E0F82E8F2DDF91CF911F9111
:104390000F91FF90DF90CF90BF90AF9008950E9453
:1043A0003E238823D1F2F82EEFCFF60181916F01E1
:1043B0008093F1002197FFEFAF1ABF0ACECFAF92E3
:1043C000BF92CF92DF92FF920F931F93CF93DF9311
:1043D0006C01EB018A010E943E23F82E811123C05B
:1043E0000115110539F0F80180819181C81BD90BA5
:1043F000C80ED91EB12CA12C2097A9F08091E800FD
:1044000085FD22C08091E8008B778093E80001153C
:104410001105A1F0F80180819181A80EB91EB18229
:10442000A08285E0F82E8F2DDF91CF911F910F9103
:10443000FF90DF90CF90BF90AF9008950E943E23F1
:104440008823D1F2F82EEFCF8091F100F60181930D
:104450006F012197FFEFAF1ABF0ACECFFC01809109
:1044600048029091490286179707A0F061157105DF
:1044700029F49091E8009E779093E80090E0611510
:10448000710551F4911108C08091E80082FF34C099
:1044900080E00895BC01F2CF809141028823C1F1F0
:1044A0008530C1F18091E80083FD30C08091E80043
:1044B00082FDEACF8091E80080FFE1CF8091F30098
:1044C0002091F200382F6115710519F0283031055F
:1044D00058F091E02830310509F090E02091E80093
:1044E0002E772093E800CBCF81918093F10061502B
:1044F00071092F5F3F4FE7CF80914102882341F040
:10450000853041F08091E80083FFBECF81E00895BF
:1045100082E0089583E00895FC0180914802909123
:10452000490286179707A0F06115710529F480915B
:10453000E8008E778093E80090E06115710551F4F2
:10454000911108C08091E80082FF35C080E0089595
:10455000BC01F2CF809141028823C9F18530C9F1B5
:104560008091E80083FD31C08091E80082FDEACFB0
:104570008091E80080FFE1CF8091F3002091F2006C
:10458000382F6115710519F02830310558F091E088
:104590002830310509F090E08091E8008E77809313
:1045A000E800CBCF84918093F1003196615071097E
:1045B0002F5F3F4FE6CF80914102882341F0853045
:1045C00041F08091E80083FFBDCF81E0089582E053
:1045D000089583E00895982F973028F08F70809386
:1045E000E90081E008959093E900242F762F50E0B0
:1045F000981731F07091EC002091ED005091F0008F
:1046000021FD02C09F5FE8CF3091EB003E7F3093E9
:10461000EB003091ED003D7F3093ED003091EB00E9
:1046200031603093EB007093EC002093ED005093D9
:10463000F0002091EE0027FDE5CF80E00895809105
:10464000420287FF13C08091E80082FF06C080917C
:10465000E8008B778093E80004C0809141028111CB
:10466000F2CF0895809141028823D9F38091E80028
:1046700080FFF8CF8091E8008E77ECCF2091E400A6
:104680003091E50095E6A9012091EC00822F817020
:1046900020FF06C08091E80080FF06C080E00895FA
:1046A0002091E80022FD1AC080914102882389F000
:1046B000853089F08091EB0085FD0FC02091E400EA
:1046C0003091E50042175307F9F29150E1F684E08A
:1046D000089582E0089583E0089581E008950E949E
:1046E000DD230E94E523E0EEF0E08081816080839D
:1046F000E8EDF0E080818F77808319BCA7EDB0E012
:104700008C918E7F8C9380818F7E8083109240026B
:1047100008950F931F93CF93DF930E94DD230E9490
:10472000E523C8EDD0E088818F7788838881806811
:10473000888388818F7D888319BC109241021092F2
:104740003D0210923F0210923E0200EE10E0F8018E
:1047500080818B7F808388818160888342E060E0F4
:1047600080E00E94EB22E1EEF0E080818E7F80838A
:10477000E2EEF0E0808181608083808188608083C8
:10478000F80180818E7F8083888180618883DF91BA
:10479000CF911F910F910895E8EDF0E080818F7E19
:1047A0008083E7EDF0E080818160808384E082BFD8
:1047B00081E0809340020C948923E8EDF0E0808151
:1047C0008E7F80831092E20008951092DA0010929A
:1047D000E10008951F920F920FB60F9211242F93AC
:1047E0003F934F935F936F937F938F939F93AF9379
:1047F000BF93EF93FF938091E10082FF0BC0809104
:10480000E20082FF07C08091E1008B7F8093E1008E
:104810000E9454268091DA0080FF19C08091D80050
:1048200080FF15C08091DA008E7F8093DA0080913E
:10483000D90080FF96C080E189BD82E189BD09B4BD
:1048400000FEFDCF81E0809341020E94C11F809154
:10485000E10080FF19C08091E20080FF15C08091C7
:10486000E2008E7F8093E2008091E200806180937D
:10487000E2008091D80080628093D80019BC85E066
:10488000809341020E94D31F8091E10084FF2BC0DE
:104890008091E20084FF27C080E189BD82E189BD6B
:1048A00089B5982F917080FFFBCF8091D8008F7DC4
:1048B0008093D8008091E1008F7E8093E100809109
:1048C000E2008F7E8093E2008091E200816080931D
:1048D000E20080913D02882309F449C084E080937E
:1048E00041020E94D41F8091E10083FF29C0809182
:1048F000E20083FF25C08091E100877F8093E10083
:1049000082E08093410210923D028091E1008E7F0F
:104910008093E1008091E2008E7F8093E20080919D
:10492000E20080618093E20042E060E080E00E946B
:10493000EB228091F00088608093F0000E94D21FEB
:10494000FF91EF91BF91AF919F918F917F916F9167
:104950005F914F913F912F910F900FBE0F901F903D
:10496000189519BC109241020E94CF1F70CF809100
:10497000E30087FD93E090934102B3CF1F920F9223
:104980000FB60F9211242F933F934F935F936F9322
:104990007F938F939F93AF93BF93CF93DF93EF93C7
:1049A000FF93D091E900DF708091EC00C82FC170B7
:1049B00080FDC0E81092E9008091F000877F80932D
:1049C000F00078940E9402251092E9008091F00096
:1049D00088608093F000CD2BCF70C093E900FF91E9
:1049E000EF91DF91CF91BF91AF919F918F917F9187
:1049F0006F915F914F913F912F910F900FBE0F904C
:104A00001F9018951F93CF93DF93CDB7DEB7AA976A
:104A10000FB6F894DEBF0FBECDBF82E492E02091C6
:104A2000F100FC012193CF01F2E08A349F07B9F72E
:104A30000E94E91F8091E80083FF1EC1809142021D
:104A4000909143029A3008F017C1E92FF0E0EA5C38
:104A5000F84D0C949826803899F0823809F00CC1F2
:104A6000809146028F70873008F006C18093E9007C
:104A70008091EB0085FB882780F91092E90006C041
:104A800080913E0290913F02911182609091E800E6
:104A9000977F9093E8008093F1001092F10080914D
:104AA000E8008E77E5C0882309F4D3C0823009F08E
:104AB000E3C0809144028111D6C0809146028F707C
:104AC0002FEF280F263008F0D7C08093E9002091FF
:104AD000EB0020FFC8C0933031F48091EB0080627E
:104AE0008093EB00C0C09091EB0090619093EB003D
:104AF00021E030E001C0220F8A95EAF72093EA0016
:104B00001092EA008091EB008860EACF8111B4C076
:104B1000109144021F778091E3008078812B80936D
:104B2000E3008091E800877F8093E8000E941F23C4
:104B30008091E80080FFFCCF8091E3008068809343
:104B4000E30082E0111183E08093410295C0805818
:104B5000823008F091C080914402909145028C3DD2
:104B600023E09207A1F583E08A838AE289834FB725
:104B7000F894DE01139620E03EE051E2E32FF0E0EE
:104B800050935700E49120FF03C0E295EF703F5F20
:104B9000EF708E2F90E0EA30C0F0C7968D939D9312
:104BA0002F5F243159F74FBF8091E800877F8093B2
:104BB000E8006AE270E0CE0101960E942E22809108
:104BC000E8008B778093E80057C0C096E7CF6091EC
:104BD000460270914702AE014F5F5F4F0E94212154
:104BE000BC01892B09F448C09091E800977F90930D
:104BF000E80089819A810E948C22E1CF8038E1F51A
:104C00008091E800877F8093E80080913D02809347
:104C1000F10045CF811130C090914402923060F58F
:104C20008091E800877F8093E80090933D020E9486
:104C30001F2380913D02882311F084E005C08091FC
:104C4000E30087FDFACF81E0809341020E94D51FE7
:104C500013C080914402813079F481E0933009F0EF
:104C600080E080933F021092E9008091E800877F06
:104C70008093E8000E941F238091E80083FF0AC010
:104C80008091E800877F8093E8008091EB0080624C
:104C90008093EB00AA960FB6F894DEBF0FBECDBF8F
:104CA000DF91CF911F9108950895CF938091410294
:104CB0008823A1F0C091E900CF709091EC00892F7A
:104CC000817090FD80E8C82B1092E9008091E80087
:104CD00083FD0E940225CF70C093E900CF91089513
:104CE000AA1BBB1B51E107C0AA1FBB1FA617B70712
:104CF00010F0A61BB70B881F991F5A95A9F780952E
:104D00009095BC01CD01089597FB072E16F40094F1
:104D100007D077FD09D00E94702607FC05D03EF42D
:104D2000909581959F4F0895709561957F4F089557
:104D3000EE0FFF1F0590F491E02D09946927962747
:104D400069277827872778270895FC01415050402C
:104D500030F001900616D1F73197CF0108958827DA
:104D600099270895FB01DC0104C08D910190801901
:104D700021F441505040C8F7881B990B0895F999C8
:104D8000FECF92BD81BDF89A992780B50895A6E11E
:104D9000B0E044E050E00C94F926A8E1B0E042E035
:104DA00050E00C94F926262FF999FECF92BD81BDD3
:104DB000F89A019700B4021639F01FBA20BD0FB659
:104DC000F894FA9AF99A0FBE08950396272F0E9435
:104DD000D4260E94D326252F0E94D426242F0C945B
:104DE000D4260196272F0E94D4260C94D326DC01CA
:104DF000CB01FC01F999FECF06C0F2BDE1BDF89AE6
:104E0000319600B40D9241505040B8F70895F8948F
:104E1000FFCFB105B105090609065B067706DE0579
:104E2000DE058206E906F806F806C207C207CB07C8
:104E3000CB07CD07CB07CB07CB07C207C207D207EB
:104E4000CB07CB07D20734193E195F196B197619B6
:104E50008119841987198A19D319D3198D199119B0
:104E60009919A619B319B619B919C6192B255325BD
:104E70003C2653253C268625A7253C26FE250A26CA
:104E8000DA012808641E140A321E0004000404011A
:104E9000141F6A1F491F451F411F01E200E900EA74
:104EA00000B500B600B700CD008301CC008A0192A6
:104EB0000194012102230224022502260227022A4C
:104EC00002B300B4006F007000818283E200E90049
:104ED000EA00B500B600B700CD008301CC008A011E
:104EE00092019401210223022402250226022702B4
:104EF0002A02B300B4006F007000818283C6973528
:104F000034000102020202020240227BD103340378
:084F10005603D902F20212035C
:00000001FF
