:100000000C9487010C94CE010C94CE010C94CE017B
:100010000C94CE010C94CE010C94CE010C94CE0124
:100020000C94CE010C94CE010C94A11E0C94751F5F
:100030000C9427190C94CE010C94CE010C94CE0193
:100040000C94CE010C94CE010C94CE010C94CE01F4
:100050000C94CE010C947E190C94CE010C94CE011C
:100060000C94CE010C94CE010C94CE010C94CE01D4
:100070000C94CE010C94CE010C94CE010C94CE01C4
:100080000C94CE010C94CE010C94CE010C94CE01B4
:100090000C94CE010C94CE010C94CE010C94CE01A4
:1000A0000C94CE010C94CE010C94CE011E001F00C6
:1000B0001D001B0001000100010001000100010002
:1000C000010001000100010001000100000000002A
:1000D000000000002A2B28000000000000000000A3
:1000E0000000000000000029000000002C1E342049
:1000F000212224342627252E362D3738271E1F206F
:100100002122232425263333362E37381F040506B3
:100110000708090A0B0C0D0E0F10111213141516F7
:100120001718191A1B1C1D2F3130232D35040506F5
:100130000708090A0B0C0D0E0F10111213141516D7
:100140001718191A1B1C1D2F3130354C00000000E8
:10015000000000000000000000000000000000009F
:10016000000000000000000000000000000000008F
:100170007E0F00D4FFFFFFC700000078200372004D
:100180006500640077006F006C0066005F0034005B
:100190006B006500790064006900720000002003B4
:1001A00057006F006C0066006E00650073007400FD
:1001B0002D00530074007500640069006F0000009A
:1001C0000403090409025B00030100A0FA0904000A
:1001D0000001030101000921110100012240000773
:1001E00005810308000A0904010002030000000958
:1001F00021110100012222000705820320000107CE
:1002000005030320000109040200010300000009A6
:100210002111010001227B000705840320000A123E
:1002200001000200000008EDFE00000100010200D4
:10023000010660FF0961A1010962150026FF009512
:1002400020750881020963150026FF0095207508B6
:100250009102C005010902A10185020901A1000561
:100260000919012908150025019508750181020564
:1002700001093009311581257F950275088106092C
:10028000381581257F950175088106050C0A38020D
:100290001581257F950175088106C0C0050109807B
:1002A000A101850319012AB700150126B7009501A0
:1002B00075108100C0050C0901A101850419012AEE
:1002C000A002150126A002950175108100C005014C
:1002D0000906A101050719E029E715002501950880
:1002E000750181029501750881010507190029FF33
:1002F000150026FF009506750881000508190129DB
:1003000005950575019102950175039101C01124B0
:100310001FBECFEFDAE0DEBFCDBF04B603FE27C0BD
:100320008091220290912302A0912402B091250293
:100330008730904BA740B04BD1F41092220210921C
:100340002302109224021092250214BE84B7877FE4
:1003500084BF0FB6F894A89580916000886180935F
:100360006000109260000FBEE0E0F8E3099511E034
:10037000A0E0B1E0E8ECF3E402C005900D92AA38E9
:10038000B107D9F722E0AAE8B1E001C01D92A2327C
:10039000B207E1F70E94BC100C94AB210C94000052
:1003A00081E0089581E008950C94D20108950C94A1
:1003B000D6011F93CF93DF9300D000D00F92CDB71B
:1003C000DEB749835A836B8330918C0189819A818E
:1003D00031111DC06623B9F02223A9F00E9426081E
:1003E000182F682F89819A810E94D50769817A81A7
:1003F000812F0F900F900F900F900F90DF91CF9162
:100400001F910C944D150E940008182FEFCF0E94E9
:10041000260869817A81EDCFFC01262F4081518128
:100420006281738184810C94D90181E00895CF9316
:10043000DF93EC0160E00E940C02BE01DF91CF91DE
:100440000C94D701E1E0F0E0DF0102C0AA0FBB1F6E
:100450006A95E2F7BD01DF0102C0AA0FBB1F4A95F2
:10046000E2F76A2B01C0EE0F2A95EAF7962F982340
:10047000961302C08E2B0895E0958E230895242FA5
:10048000462F682F809190010E9422020C949207BF
:100490000E94AF0F0E9490030C94CA0F0C94CD0FD2
:1004A00008950E942A070E9450022FEF84E39CE0E7
:1004B000215080409040E1F700C000000C94A21948
:1004C0000F931F93CF93DF938C0161E00E940C0286
:1004D000EC01B8010E94A9138823D9F1B801CE011B
:1004E0000E94D4018823A9F1B801CE010E9484168C
:1004F000882379F1B801CE010E94D616882349F1EC
:10050000B801CE010E940018882319F1F8018281F8
:10051000882361F0CA35FDE5DF0721F170F4C115CC
:10052000ECE5DE07A1F0CE3DDC45C9F0C801DF9166
:10053000CF911F910F910C94D001CB358DE5D80749
:10054000A1F0CC35DD4591F70E94760BEFCF0E94EC
:10055000510280E0DF91CF911F910F9108950E9489
:10056000DF0CF7CF0E947F0BE1CF0E94820BDECF22
:10057000DF92EF92FF920F931F93CF93DF93E82FB9
:10058000F0E0E453FF4FD490282F2695269526952A
:1005900030E0F901E459FE4F0491877010E0082E15
:1005A00002C0159507950A94E2F701701127F90129
:1005B000E45AFE4FE490F12C082E02C0F594E79423
:1005C0000A94E2F791E0E922FF24F901E45BFE4F8F
:1005D000C491D0E002C0D595C7958A95E2F7C17065
:1005E000DD270115110519F081EE0E94DC03E114ED
:1005F000F10419F086EE0E94DC038D2D0E94DB04CD
:10060000EF2819F086EE0E946E04012B19F081EE9E
:100610000E946E04CD2B51F08CE2DF91CF911F919F
:100620000F91FF90EF90DF900C94DB04DF91CF915E
:100630001F910F91FF90EF90DF900895EF92FF923E
:100640000F931F93CF93DF93EC01162F0AE088815D
:10065000882309F454C0813009F04EC0898181306B
:1006600099F47E0122E0E20EF11C8A810E94DB04F3
:10067000E7012196812F815050F3EFE9FFE0319798
:10068000F1F700C00000F7CF823041F47E0182E034
:10069000E80EF11C8A810E94DC03EACF833041F42A
:1006A0007E01E2E0EE0EF11C8A810E946E04E0CF32
:1006B000843011F02196DDCF2A81229690E080E0EF
:1006C000AE014F5F5F4F2053330B2A30310548F0A6
:1006D000019778F2EFE9FFE03197F1F700C00000F1
:1006E000F7CF089FB001099F700D1124C901860F33
:1006F000971F2981EA01E4CF0E94B802BACFDF91A7
:10070000CF911F910F91FF90EF90089560E00C94AE
:100710001E0308950C94890381E008950C948C03C2
:100720000895CF93C82F0E948A038C2FCF910C94E9
:100730008E03CF93DF93CDB7DEB72B970FB6F89428
:10074000DEBF0FBECDBF4F83588769877A878B87FF
:1007500061110E94A50B1E821D8285E0FE01379665
:10076000DE01119601900D928A95E1F78C819D81B1
:10077000892B89F449815A816B817C818D819E818D
:100780000E94A50A2B960FB6F894DEBF0FBECDBF10
:10079000DF91CF91089589819A8189238F3F51F309
:1007A000CE0101960E9415028111E4CFEBCFFC012E
:1007B000808191810C945308CF93C82F882309F42A
:1007C0008BC08238C1F40E942F1881FD85C089E357
:1007D0000E943F0B0E94C80B2FEF81EE94E0215046
:1007E00080409040E1F700C0000089E30E94460B82
:1007F000CF910C94C80B8338A1F40E942F1880FD70
:100800006BC083E50E943F0B0E94C80B2FEF81EE67
:1008100094E0215080409040E1F700C0000083E563
:10082000E5CF8438A1F40E942F1882FD55C087E4DB
:100830000E943F0B0E94C80B2FEF81EE94E02150E5
:1008400080409040E1F700C0000087E4CFCF8CEFFC
:100850008C0F813A90F46C2F8091000190910101EE
:100860000E949218882329F08C2F0E94460B0E9428
:10087000C80B8C2F0E943F0BBBCF80E28C0F8830BF
:1008800048F4C77081E001C0880FCA95EAF70E945A
:10089000880BAECFEBE5EC0FE33040F4F0E0ED5B1E
:1008A000FE4F808190E0CF910C945418E8E5EC0F56
:1008B000E73150F4F0E0EE0FFF1FEB5EFE4F80815A
:1008C0009181CF910C946A18C03F30F08C2F0E9418
:1008D0004A11CF910C941D12CF910895882309F4E9
:1008E00052C0823871F40E942F1881FF4CC089E3F6
:1008F0000E943F0B0E94C80B89E30E94460B0C9498
:10090000C80B833859F40E942F1880FF3CC083E540
:100910000E943F0B0E94C80B83E5EFCF843859F447
:100920000E942F1882FF2FC087E40E943F0B0E9475
:10093000C80B87E4E2CF9CEF980F913AF0F290E277
:10094000980F983050F4877091E001C0990F8A9504
:10095000EAF7892F0E948E0BD2CF9BE5980F933038
:1009600020F490E080E00C94541898E5980F9731AB
:1009700020F490E080E00C946A18803F20F00E9400
:10098000A4110C941D1208951F93CF93DF93182F79
:10099000EB010E94DC03209731F4812FDF91CF918E
:1009A0001F910C946E048FE99FE00197F1F700C04E
:1009B00000002197F0CF70E060E0893311F460E52A
:1009C00070E00C94C404882321F00E94880B0C94DE
:1009D000C80B0895882321F00E948E0B0C94C80B3D
:1009E0000895BF92CF92DF92EF92FF920F931F93E1
:1009F000CF93DF936C01D62FC72FFC0112810581A5
:100A000002950F700E945D0BE82E8823A1F0E12E65
:100A1000112389F08C2F807F803429F080E28D0FA4
:100A2000E12C883040F082E00E94190C0E945D0B9E
:100A300091E0E82EE926BC2EB2949FE0B922FBE0BB
:100A4000FB1598F1EB2DF0E0E355FE4D0C943B21A6
:100A50000C2F0F70C07F11F00295007F1123A9F0B9
:100A6000002359F080E28D0F883010F0D11109C0B9
:100A7000802F0E94880B0E94C80B8D2F0E94DC03E0
:100A800014C0802F0E94980BF6CF8D2F0E946E0409
:100A9000002359F080E28D0F883010F0D1112CC066
:100AA000802F0E948E0B0E94C80B2B2D2850330BD9
:100AB0002430310520F40E942F180E949103EE206B
:100AC00009F469C10E94590B80FD65C1F6011282CB
:100AD0000E94530B0E94A307C6010E94EC060E94CD
:100AE000530BDF91CF911F910F91FF90EF90DF900B
:100AF000CF90BF900C94AE07802F0E949E0BD3CF57
:100B00002C2F2F70F22EC07FC03219F0F29480EF9C
:100B1000F822DD2369F0D13049F1112391F100234E
:100B200051F1F601858180FFA8CF8F70858323C0A6
:100B3000112381F0011106C00E94AB0B8F290E9486
:100B4000E304B3CF0130C1F70E94AB0B8F290E94A1
:100B5000B10BABCF011106C00E94BE0B8F2D0E94BE
:100B6000EA04A3CF013009F4A0CFF6CF112329F076
:100B7000063008F09ACF8F2DE2CF053008F095CFE0
:100B8000EDCF002359F3D93349F4FFEF27EE33E0DB
:100B9000F15020403040E1F700C000008D2F0E944E
:100BA0006E0483CF8C2F86958695837069F0813093
:100BB00009F07BCF8D2F9C2F9370111102C090E014
:100BC00080E00E946A1871CF8D2F9C2F93701111B5
:100BD00002C090E080E00E94541867CF8D2F11234F
:100BE00029F00E944A110E941D125FCF0E94A41199
:100BF000FACF8C2F837079F5111157CF4D2F429575
:100C000046954770440F440F8D2F8F70042E01C0FE
:100C1000880F0A94EAF72D2F2071D4FF07C02FE028
:100C200030E001C0220F4A95EAF72095C695C69597
:100C3000C370822BC23049F058F4C13019F00E94C1
:100C4000840733CF0E947F0730CF0E9489072DCFC2
:100C50000E947D072ACF8695112311F08C2F817079
:100C6000882309F422CF4D2F429546954770440FB3
:100C7000440F8D2F8F70042E01C0880F0A94EAF75D
:100C80002D2F2071D4FF07C02FE030E001C0220FCC
:100C90004A95EAF72095C695C695C370822BC23057
:100CA00049F058F4C13019F00E94CA07FECE0E94E4
:100CB000C507FBCE0E94CF07F8CE0E949207F5CE63
:100CC000CF70112329F08C2F0E94A3078D2F37CFCF
:100CD0008D2F0E94EA048C2F0E94AE07E6CED23FF1
:100CE00089F160F4D03FC9F0D13F29F1112309F413
:100CF00042C00111C2CE8C2F8F7121C0D33F39F178
:100D0000D43FA1F7112369F1CF718C2F0E94A30763
:100D100063E08C2F0E94FE0BC8CE112341F00530FA
:100D200008F0C3CE8C2F8F710E94BA07BECE06305A
:100D300008F0BBCEF7CF8C2F8F71112369F20E9480
:100D4000A307B3CE8C2F8F711123C9F3C5CF112305
:100D500029F08C2F8F710E949B07A7CE0E949807C5
:100D6000A4CE81E00E94190C023008F49ECE82E0ED
:100D70000E94190C9ACE002359F0D93309F00ECFF6
:100D80008FEF97EEE3E081509040E040E1F704CF31
:100D90008C2F8F71A1CFDF91CF911F910F91FF9079
:100DA000EF90DF90CF90BF9008950F931F93CF9354
:100DB000DF93EC01688179818A810E945D088C0152
:100DC0000E94D4070E947C07B801CE01DF91CF9129
:100DD0001F910F910C94F104CF93DF93EC018B8161
:100DE0009C81892B29F08881998189238F3F59F42F
:100DF000DF91CF910895CE010E94D506CE01DF91FB
:100E0000CF910C941702CE010E9460028111F3CFA2
:100E10000E945D0B882361F38A81882349F382E075
:100E2000DF91CF910C94190C90E080E00E9454184F
:100E300090E080E00E946A180E94A50B0E94A80B17
:100E40000E94C80B0E9444130C941D120E944D0B6B
:100E50000C9414070E94950B0C942607E92FE29539
:100E6000EF70E250EE3070F4F0E0E754FE4D0C9479
:100E70003B21803F19F020F4883E20F481E0089562
:100E8000843FE1F380E00895883EC0F3813FD1F7CD
:100E9000F5CF93FB882780F90895FC01808191812B
:100EA0000E9453080C942E07CF93DF9300D000D0FC
:100EB0000F92CDB7DEB70F900F900F900F900F905D
:100EC000DF91CF910895CF93DF9300D000D000D071
:100ED000CDB7DEB726960FB6F894DEBF0FBECDBFF6
:100EE000DF91CF91089508950C9473070E947407C1
:100EF000809391010C94140708950C9476079091B7
:100F00009101892B0C9476079091910189230C947F
:100F100076079091910189270C9476070C947307BA
:100F20000C948E070E949007809390010C941407F4
:100F300080E00C94920791E001C0990F8A95EAF73E
:100F4000892F0C94920721E030E001C0220F8A958E
:100F5000EAF780919001822B0C94920721E030E017
:100F600001C0220F8A95EAF7209580919001822393
:100F70000C94920721E030E001C0220F8A95EAF735
:100F80008091900182270C94920790919001892B77
:100F90000C9492079091900189230C949207909160
:100FA000900189270C9492070895990F890F982F23
:100FB000977041E001C0440F9A95EAF786958695AF
:100FC000869593E0899FF0011124E357FE4F30E0AE
:100FD00020E070E05191DF011197CB01022E02C099
:100FE000969587950A94E2F78170819585278423E9
:100FF00085278C932F5F3F4F2330310559F7089594
:10100000990F890F982F977086958695869523E07E
:10101000829FF0011124E357FE4F50E040E080E052
:10102000219130E0092E02C0369527950A94E2F707
:1010300021703327042E01C0220F0A94EAF7822B75
:101040004F5F5F4F4330510559F70895CF92DF92BC
:10105000FF920F931F93CF93DF936C010091900148
:1010600080919101082BC7E0D0E010E0FC2EC80170
:101070000C2E02C0959587950A94E2F780FD0CC06E
:101080002197A0F7F12C8F2DDF91CF911F910F9118
:10109000FF90DF90CF900895B6018C2F0E94B70E7D
:1010A000019771F3F0CFCF93DF93EC010E942608F4
:1010B000BE01DF91CF910C94B70E1F93CF93DF93B6
:1010C000EB0190918C01992331F0CB01DF91CF910D
:1010D0001F910C945308882379F0CB010E942608B5
:1010E000182F682FCE010E94D507BE01812FDF91F6
:1010F000CF911F910C94B70ECB010E940008182FBE
:10110000F4CF1F93CF93DF93C091920116E08091AB
:1011100093018C1304C0DF91CF911F910895D0E00B
:101120001C9FF0011D9FF00D1124EC56FE4F4081D5
:10113000518162817381848195810E946307219628
:10114000C770E5CF4091C4015091C5016091C601BF
:101150007091C7018091C8019091C9010C946307F7
:101160001F93CF93DF938091C901807FA9F4809171
:10117000C601882389F080919201C091930160910A
:10118000C4017091C501A091C701B091C801D62FCB
:10119000D72316E0C81304C0DF91CF911F910895A3
:1011A00090E0109711F0DF3F19F401968770F2CFAD
:1011B000189F9001199F300D1124F901EC56FE4F34
:1011C00041814713F2CF40814613EFCF4281411155
:1011D000ECCF438154814A1B5B0B483C510528F7F7
:1011E0008091C9018F7080618093C901F901E75630
:1011F000FE4F80818F708061808384EC91E00E943B
:10120000EC06DF91CF911F910C948108AF92BF92B1
:10121000CF92DF92EF92FF920F931F93CF93DF93C2
:10122000CDB7DEB761970FB6F894DEBF0FBECDBF66
:101230008C0185E0F801DE011D9601900D928A95E2
:10124000E1F7F801E28084ECC82E81E0D82E6091AD
:10125000C7017091C8016115710509F45AC19091D7
:10126000C4012091C501892F82238F3F09F451C108
:1012700040815181A380B480F090C601F501E61B46
:10128000F70BFF2009F4F6C08091C901382F307F99
:10129000E83CF10508F0AFC0311179C0FE2C2513F0
:1012A00023C0941321C0E1101FC08F708061809310
:1012B000C9010E94A208C6010E94EC068091C901E2
:1012C000F80185838F2D61960FB6F894DEBF0FBEAF
:1012D000CDBFDF91CF911F910F91FF90EF90DF90E5
:1012E000CF90BF90AF900895AB2829F0842F85232D
:1012F0008F3F09F027C180E0F82FF170DF2E80FFCB
:101300003CC0809192012091930136E0821315C078
:101310004D875E878D859E850E945308292F2295D3
:101320002F702230F0F0243018F59F70F1F0F801A2
:101330009581907FD1F4D12C1EC090E0389FF001B0
:10134000399FF00D1124EC56FE4F6181651306C0E4
:101350006081641303C06281E6120FC0019687703A
:10136000D5CF9F7011F0882331F3805E883018F359
:10137000C8010E94EC06FD2CA5CFEE2009F4A2CFF7
:101380008091C90181608093C901F12C9BCF251305
:1013900006C0941304C0F801EE2009F487C0C80108
:1013A0000E944D07882319F1EE2009F18091C901AF
:1013B000803270F02091C4013091C50138872F83AD
:1013C0001986BB86AA868C87CE0107960E94EC06FA
:1013D00086E0F801A4ECB1E001900D928A95E1F766
:1013E0000E94B0080E94A208FF24F3946BCFC801AA
:1013F0000E94EC06F9CF311113C07A2DB98AA88A60
:101400006E2D89890E94540784EC91E00E94EC06BD
:1014100086E0F60111928A95E9F70E94A208B5CFFD
:1014200025130FC094130DC0E1100BC0F801858384
:10143000C8010E94EC0686E0F60111928A95E9F750
:1014400041CFC8010E944D07882389F2EE2079F22E
:101450008091C901803208F4BBCF2091C401309142
:10146000C5013A8329831B82BD82AC828E83CE0163
:101470000196ACCFE83CF10508F03EC0FE2CEE2012
:1014800009F4B5CF25132AC0941328C08091C9014F
:1014900080FD1BC0982F907FC1F0F8018583903F9D
:1014A00031F0982F907F905F8F70892B8583C801D2
:1014B0000E94EC0686E0F801A4ECB1E001900D92E8
:1014C0008A95E1F70E94A208FDCE86E0F801A4EC1F
:1014D000B1E001900D928A95E1F7F4CEC8010E9427
:1014E0004D07811175CF8091C90181608093C90139
:1014F000C8010E94EC06E6CE7A2DB98AA88A6E2D24
:1015000089890E94540786E0F60111928A95E9F7CD
:10151000D9CFEE2009F46BCFC8010E944D07F82EF9
:10152000882309F464CF86E0F801A4ECB1E00190CF
:101530000D928A95E1F784EC91E00E94D7030E9416
:10154000B008C0CF81E08E25D7CE1F93CF93DF9315
:10155000CDB7DEB72C970FB6F894DEBF0FBECDBF68
:101560004F83588769877A878B879C87CE01079638
:101570000E940609882369F08A859B85892B39F0AA
:101580004F815885842F85238F3F09F071C016E065
:101590005FC086E0FE013796DE01119601900D9244
:1015A0008A95E1F78A859B85892B89F38F819885B8
:1015B00089238F3F61F32091930130E0C9010196A7
:1015C00087709927409192014817190671F40E947B
:1015D0002A07109293011092920186E0E4ECF1E068
:1015E000DF011D928A95E9F7D2CF96E0929FD00154
:1015F000939FB00D1124AC56BE4FFE013196019061
:101600000D929A95E1F7809393010E948108BFCFD4
:10161000819FC00111248C569E4F0E940609882389
:10162000E9F0E09192011E9FF0011124EC56FE4F6B
:101630004081518162817381848195810E94630719
:101640008091920190E00196877099278093920192
:1016500080919201909193018913DACF2C960FB665
:10166000F894DEBF0FBECDBFDF91CF911F910895DB
:1016700069857A858B859C850E94630788CF682F52
:1016800080910001909101010C94C818682F8091FD
:101690000001909101010C94CA1880910001909171
:1016A00001010C94CC188091CA018595859585958A
:1016B00008958091CA01877008959091CA0197702A
:1016C00081E009F480E0089590910C0292FB2227BA
:1016D00020F9281751F080FB92F990930C02809129
:1016E0000B0290910C020C945C0C089580910C02FA
:1016F00082FB882780F991E089270C94640B81E0B4
:101700000C94640B80E00C94640B8091D6010895D6
:101710009091D601892B8093D60108958095909160
:10172000D60198239093D60108951092D60108957A
:101730009091D501892B8093D50108958095909142
:10174000D50198239093D50108951092D50108955D
:101750001092D40108958091CB01089508950C94BE
:10176000AE0B90910C0292FD08C09091CB0198179E
:1017700021F08093CB010C94AF0B08958091CB01A5
:10178000882329F01092CB0180E00C94AF0B0895D0
:10179000E0910001F09101018091D6018083E091F8
:1017A0000001F091010180819091D501892B808306
:1017B000E0910001F091010180819091D401892B89
:1017C00080839091CB01992381F0E0910001F09109
:1017D00001018081892B808380910001909101011A
:1017E0000E94801881110E94BE0B8091000190918F
:1017F00001010C943B1808950C94FB0B90910C0282
:1018000092FD10C098E0899F90011124622B609393
:10181000CA010E94A3078091CA0185958595859587
:101820000C94FC0B0C94A3071092CA0180E00C945A
:10183000FC0B9091CA01809589238093CA01282FBF
:10184000277039F4282F082E000C330B921713063B
:1018500021F490910C0292FF07C08595859585959E
:101860000E94AE070C94140C08956FEF7FEF90E088
:1018700080E00C94952190E080E00E947121893EE7
:101880009E4F11F40C94521380E0089582E090E092
:101890000C94692183E090E00C946921CF9384E05B
:1018A00090E00E946921C82F82E290E00E946921A5
:1018B000982F8C2FCF910895CF93C92F682F84E054
:1018C00090E00E9477216C2F82E290E0CF910C94FF
:1018D0007721AB01BC018FE090E00C948921AB0132
:1018E000BC0183E190E00C94892160E070E0CB01C1
:1018F0000C946F0C60E070E0CB010E94690C0C94BA
:10190000750C69EE7EEF90E080E00E94952160E02A
:1019100082E090E00E94772160E083E090E00E9406
:1019200077211092910160E084E090E00E9477219D
:1019300060E082E290E00E94772160E085E090E044
:101940000E94772160E086E090E00E9477216FEFAF
:1019500087E090E00E94772140E050E0BA0188E003
:1019600090E00E94892160E08DE090E00E94772164
:1019700040E050E0BA0188E190E00E94892160E0F7
:1019800087E190E00E94772140E050E0BA018CE1CD
:1019900090E00E94892170E060E080E290E00E9487
:1019A000952140E050E0BA0188E190E00E94892151
:1019B00080E00E946B130E9491130C947A0C0C949B
:1019C000810C682F8EE090E00C9477210E946319BF
:1019D0006093DE017093DF018093E0019093E10159
:1019E0006093DA017093DB018093DC019093DD0159
:1019F000089585B7806885BF85B7806885BF0895DD
:101A0000089508950C94000D08950C94040D0E94FF
:101A1000F90C85E99FE00E94C6190E94010D0C9403
:101A2000020D81E008950C94110D089508950E940F
:101A3000150D0C94160D0E944E190E94A0130E94C1
:101A40003D100C94050DBF92CF92DF92EF92FF9262
:101A50000F931F93CF93DF93CDB7DEB72A970FB6BF
:101A6000F894DEBF0FBECDBF0E944D1081110E94C1
:101A7000E60C98EDC92E91E0D92E10E000E0B02ED2
:101A8000802F0E94CF0FE82EF601F1906F01F8161B
:101A900009F451C08091E20181FD0E94D50F8F2D84
:101AA0008E25F82FF170FF2E80FD43C081FF43C0CB
:101AB000DD24D39482E0F82E0E94130D882399F040
:101AC000DE82BF82EF2081E009F480E088870E94F7
:101AD00057198160782F9A8789874E815F81688541
:101AE0008A850E949903F801E852FE4F80818F2574
:101AF00080830E9438120E942F189091D701891775
:101B000071F10E942F188093D7012A960FB6F8948E
:101B1000DEBF0FBECDBFDF91CF911F910F91FF9020
:101B2000EF90DF90CF90BF900C94910301E010E014
:101B3000A6CFD12CC1CF01301105C1F78FEF89831A
:101B40008A831B820E9457198160782F9D838C8322
:101B500049815A816B818D810E949903CACF2A964F
:101B60000FB6F894DEBF0FBECDBFDF91CF911F91AE
:101B70000F91FF90EF90DF90CF90BF900895CF939B
:101B8000DF930E94BB0EEC01811521E5920708F05E
:101B900042C0811530E5930708F09DC0883E91054D
:101BA00030F5803E910508F092C0883A910588F49E
:101BB000853A910508F084C08130910509F487C009
:101BC000009709F484C0049708F081C0D0E0C0E019
:101BD0007EC08F3B9105D0F7C85AD0E0CC0FDD1FF7
:101BE000CA5BDE4F0990D881C02DD46470C08115C6
:101BF000904250F4C11581E0D80708F068C0C03F9A
:101C0000D10520F3D06563C0C11590E4D907F0F287
:101C1000DF70D06A5CC0811525E5920700F581155B
:101C200034E5930708F08BC0811543E5940708F06D
:101C300073C0C11582E5D80708F469C0CE0183706E
:101C4000992721E030E002C0220F331F8A95E2F786
:101C5000C695C69580E2C89FE001112454C0C11505
:101C600099E5D907A8F4C11528E5D20708F06CC09A
:101C7000C11536E5D30708F0A9CF8C2F0E94520F6B
:101C8000C82FD0E0DC2FCC27CC27DF71D0621FC05B
:101C9000C1154AE5D40708F45CC0CE019056811501
:101CA000904208F093CF8D2F8F710E94520F90E0D9
:101CB000982F882788279F719C012C2BE901E6CF5C
:101CC000C55AD0E0CC58DE4FC881D0E0D064CE01F8
:101CD000DF91CF910895E4E096958795EA95E1F735
:101CE00083702C2F26952695237040E2249F900127
:101CF0001124382B8C2F8370C1E0D0E002C0CC0FB0
:101D0000DD1F8A95E2F7C22BD32BDC68E0CFDC2FF6
:101D1000CC27C16FD06ADBCF8370992721E030E0F8
:101D200002C0220F331F8A95E2F7C695C69590E24E
:101D3000C99FE0011124C22BD32BDA68C8CFD82F5A
:101D4000CC27C46FD06AC3CFDC2FCC27C06FD06A3A
:101D5000BECF8C2F8F700E94520F34E0D695C7955E
:101D60003A95E1F7CF709C2FEC01D069B0CF0E947B
:101D70004D150C94BF0D82389105B1F1B0F481334B
:101D8000910509F475C048F48932910509F469C0D8
:101D90008A32910509F473C008958533910509F4D9
:101DA00059C08933910501F10895833E9105A9F148
:101DB00038F4803E9105F9F0823E910549F108958D
:101DC000863E9105A9F1873E9105C9F1843E9105B2
:101DD00019F520910C0221FF1FC080910B0284FD98
:101DE00014C087EE90E0089520910B022370A1F0BB
:101DF00080EE90E0089520910B0220FD47C03091C5
:101E00000C0230FF09C024FF44C090E080E004C011
:101E100020910B0222FDF7CF089520910B0222FDA5
:101E20003BC030910C0230FDE3CF24FFF5CFEDCF66
:101E300020910B0223FFF0CF24FDE7CFD2CF2091DA
:101E40000B0223FD2CC030910C0231FFEECF84EE4B
:101E500090E0089520910B0225FFDECF89E290E00B
:101E6000089520910B0225FFD7CF85E390E00895D8
:101E700020910B0226FFD0CF8AE290E008952091B6
:101E80000B0226FFC9CF81E390E0089589E390E03B
:101E9000089583EE90E0089582EE90E0089586EE36
:101EA00090E0089590910B0292FF06C0282F2871B0
:101EB0002830F9F4877F846093FF06C0282F2871AB
:101EC0002831F1F4877E846120910C0220FF06C046
:101ED000382F38713830D9F4877F816021FF06C0F0
:101EE000282F28712831D1F4877E816194FD877E67
:101EF0000895282F24712430F9F68B7F8860DCCF79
:101F0000282F2471243101F78B7E8861DDCF382F93
:101F10003171313019F78E7F8860E0CF282F217121
:101F2000213121F78E7E8861E1CF80E008950C9405
:101F3000350C0E944D108FE39CE90197F1F700C02A
:101F400000000E944D1080E00E94CF0F80FF04C06F
:101F50000E94970F0C94A21908950C94990F0E9457
:101F60003B0C811102C00E94DF0C0E94460C809342
:101F7000E2010E944E0C90930C0280930B020E948F
:101F8000AD0F0E944A0C0E947D07809190010C9435
:101F9000900708950C94C90F08950C94CC0FE82F66
:101FA000F0E0E15FFD4F8081089508951F93CF9386
:101FB000DF9327E731E0C1E0D0E0D90150E040E015
:101FC00002C041E050E08D918F3F91F0E82FE29503
:101FD000EF70F0E011A18F70BE0101C0660F8A950D
:101FE000EAF7962F9095912391A382A1862B82A345
:101FF0004130510531F72E5F3F4F81E02B373807D5
:10200000E1F6DF91CF911F910895FC0170E0AB01E3
:10201000440F551FDA01A958BE4F8C9120E08F3F25
:1020200081F0A82FA295AF70B0E090962C9130E08F
:102030008F7002C0359527958A95E2F720953095E7
:10204000217049585E4FDA0111969C919F3F89F0AB
:10205000A92FA295AF70B0E090964C9150E09F7080
:1020600002C0559547959A95E2F782E040FD80E0E1
:10207000282BE60FF71F208308950E94D60FADE0AE
:10208000B2E01C92EFE0F2E0108211961C921182F5
:1020900082E00E9485100C9448021F93CF93DF9337
:1020A00000D0CDB7DEB71A82198260E0CE0101966A
:1020B0000E94051061E0CE0101960E94051042E0E9
:1020C00050E0BE016F5F7F4F8DE092E00E945C2187
:1020D00011E0009709F410E0892B31F089819A8191
:1020E00090930E0280930D02212F42E06FE072E088
:1020F0008DE092E00E9486100E944E02812F0F9088
:102100000F90DF91CF911F9108950895FF920F9343
:102110001F93CF93DF93F82E092F162FD72FC42F9D
:10212000222349F081E08093E5010E9457199093A2
:10213000E4018093E3018091E5018823A1F080917F
:10214000E3019091E4010E946F19059760F0EF2D73
:10215000F02FA12FBD2FCE0FDF2FD11DEC17FD07C4
:1021600041F41092E501DF91CF911F910F91FF9003
:10217000089581918D93F2CF0E94D3180E94591B2C
:102180000E94721B0E94841B0E94170DFBCF80913E
:10219000EC0180FF12C06091070185E0689FB001EB
:1021A0001124759567957595679560387105A8F543
:1021B00061157105A1F1862F089581FF09C0609115
:1021C000070185E0689FB001112475956795EDCFF3
:1021D0006091070182FD0AC08091EB018823D1F054
:1021E0009091060160910701891728F085E0689FAA
:1021F000B0011124DACF869FB001112485E0869FBB
:102200009001879F300D1124692F70E0C9010E9451
:102210002721CBCF65E070E0CECF8FE7089581E036
:1022200008958091EC0180FF0CC06091030170E083
:1022300075956795759567956115710549F1862FB7
:10224000089581FF06C06091030170E07595679560
:10225000F3CF6091030182FD0BC09091EA019923B5
:10226000A1F06091020180910301961738F0682F68
:1022700070E06038710500F38FE70895899FC00111
:10228000112470E00E942721F4CF61E070E0D7CFE5
:1022900081E00895803F31F40E94C71081958093BA
:1022A000F0010895813F19F40E94C710F8CF823FD2
:1022B00031F40E94C71081958093EF010895833F08
:1022C00019F40E94C710F8CF893F29F40E94111118
:1022D0008093F10108958A3F21F40E9411118195A4
:1022E000F7CF8B3F31F40E94111181958093F20159
:1022F00008958C3F19F40E941111F8CF9CE0980FBB
:10230000953070F4845F990B21E030E001C0220F1A
:102310008A95EAF78091EE01822B8093EE01089571
:102320008D3F31F48091EC0181608093EC01089540
:102330008E3F21F48091EC018260F7CF8F3FB9F797
:102340008091EC018460F1CF4091EF01803F59F41E
:102350008091F00187FF0DC01092F00141110BC078
:102360001092EB0108C0813F81F48091F0011816B2
:102370009CF3442381F08091F1019091F201892B2B
:1023800009F05AC01092EA010895823F49F447FFCC
:10239000F0CF1092EF018091F0018111ECCFE0CFEE
:1023A000833F19F41416ACF3E4CF9091F101893F07
:1023B00029F41916F4F61092F101DBCF8A3F19F4D3
:1023C00097FFD7CFF8CF9091F2018B3F29F497FF79
:1023D000D0CF1092F201CDCF8C3F19F41916CCF367
:1023E000C8CF9CE0980F953090F4845F990B21E062
:1023F00030E0B90102C0660F771F8A95E2F7CB0182
:1024000080959091EE0189238093EE01B2CF8D3FAC
:1024100031F48091EC018E7F8093EC01AACF8E3F46
:1024200021F48091EC018D7FF7CF8F3F09F0A1CF90
:102430008091EC018B7FF0CF08950E9457199C0189
:102440009091EF018091F001982B21F03093E901F8
:102450002093E8019091F1018091F201982B21F0F5
:102460003093E7012093E6018DEE91E00C9446183D
:10247000EF92FF920F931F93CF93DF9300D000D082
:1024800000D0CDB7DEB786E0EDEEF1E0DE011196CB
:1024900001900D928A95E1F7E090EF01F090F00144
:1024A0000091F1011091F2011092EF011092F001F0
:1024B0001092F1011092F2018E2D8F2991F08091EE
:1024C000E8019091E9010E946F19AC019091EB0134
:1024D000992309F43FC0809108018417150608F478
:1024E00047C0802F812B91F08091E6019091E70108
:1024F0000E946F19AC019091EA01992309F477C009
:10250000809104018417150608F47FC08091EF01C3
:102510009091F001892B9091F101892B9091F2011A
:10252000892B11F00E941D1286E0FE013196ADEE5E
:10253000B1E001900D928A95E1F726960FB6F894D6
:10254000DEBF0FBECDBFDF91CF911F910F91FF90E6
:10255000EF900895209109018AE0289F90011124AD
:102560002417350708F0BDCF9F5F9093EB0102C0A1
:102570009F3FD1F7EE2059F00E94C7109FEF1E1425
:102580000CF491E0899F802D11248093EF01FF20AE
:1025900059F00E94C7109FEF1F140CF491E0899F1F
:1025A000802D11248093F0013091EF01332309F441
:1025B00098CF2091F001222309F493CF45EB340307
:1025C000C0011124992359F09093EF0145EB2403A6
:1025D00090011124332339F03093F00182CF81E050
:1025E0008093EF01F3CF81E08093F0017ACF2091C7
:1025F00005018AE0289F900111242417350708F06F
:1026000085CF9F5F9093EA0102C09F3FD1F70023DF
:1026100059F00E9411119FEF10160CF491E0899F60
:10262000802D11248093F101112359F00E94111182
:102630009FEF11160CF491E0899F802D1124809357
:10264000F2013091F101332309F460CF2091F201BE
:10265000222309F45BCF45EB3403C00111249923F5
:1026600059F09093F10145EB240390011124332399
:1026700039F03093F2014ACF81E08093F101F3CF3A
:1026800081E08093F20142CF86E0EDEEF1E0DF01E0
:102690001D928A95E9F71092EB011092EA011092CF
:1026A000EC01089583E290E00E946921813289F46F
:1026B00084E290E00E946921813159F485E290E042
:1026C0000E94692191E0833109F090E0892F8170A7
:1026D000089580E0FCCFCF93C82F6FEF811161E2A6
:1026E00083E290E00E9477216FEFC11161E184E203
:1026F00090E00E9477216FEFC11163E185E290E0E5
:10270000CF910C947721089586E290E00E94692190
:10271000682F70E090E080E0089586E290E00C94ED
:10272000772180E00E946B1360E070E0CB010E9493
:102730008D130E94CE140E94B11581E00C946B138E
:102740000E9483130E945213811102C00C949113B2
:102750000895CF93FB01C281CC2309F19C01225142
:102760003F452031310520F582510E94C115C0E05E
:102770008C2FCF91089581E00E94A30743E062E08F
:1027800081E00E943F02F3CF81E00E94AE0743E068
:1027900062E081E00E943F02EBCF82E0F6CF803121
:1027A000FFE59F0789F381319F45B9F3C1E0E0CF91
:1027B0008031EFE59E07F9F281319F45C9F682E04D
:1027C000DBCF2FEFFC01208308951F93CF93DF937E
:1027D000EC01162FE881E150E33108F055C0F0E03C
:1027E000E953FE4D0C943B21198289E08A83612FC5
:1027F000CE01DF91CF911F910C944E1A89818230C6
:10280000B1F0833059F08130A9F40E9463190E941D
:1028100041216A837B838C839D83E9CF80E00E9482
:10282000CF0F8A8381E00E94CF0F8B83E0CF0E947D
:102830008413EDCF612FCE010E94E113D8CF89819F
:102840008230C1F76A817B818C819D810E94412108
:102850000E948D13CCCF4B816A8189810E94A01484
:102860009827892798279D838C83C1CF2C813D8110
:102870003227232732274B816A8189810E94B9142C
:10288000B6CF0E94CE14B3CF8FEF8883B0CF0E9413
:102890005A158983ACCF0E945C1598278927982701
:1028A0009A838983A4CF6B8170E089819A81AE017C
:1028B0004C5F5F4F9827892798270E945F1597CF15
:1028C0006B8170E089819A81AE014C5F5F4F9827E0
:1028D000892798270E9486158ACF0E94B11587CF35
:1028E0000E948D14D6CF6B8170E089819A81AE01F0
:1028F0004C5F5F4F9827892798270E94FF1477CF56
:102900006B8170E089819A81AE014C5F5F4F98279F
:10291000892798270E9424156ACF84E0089524E02F
:10292000629FB001112450E0440F551F640F751FC2
:1029300028E0829FC0011124860F971F8796089573
:102940000F931F93CF93DF930E948F148C010E94EB
:102950006921C82FD0E0DC2FCC27C80101960E9446
:1029600069219E01282BC901DF91CF911F910F9101
:1029700008950F931F93CF93DF93122F032F0E947D
:102980008F14EC01602F0E947721612FCE010196F8
:10299000DF91CF911F910F910C947721EF92FF92CD
:1029A0000F931F93CF93DF938CEAE82E80E0F82EED
:1029B000C0E08701D0E001C0D1E0F8012591349159
:1029C00040E06D2F8C2F0E94B914F80132962591AA
:1029D000349141E06D2F8C2F0E94B9140C5F1F4F72
:1029E000D13051F788E0E80EF11CCF5FC43009F711
:1029F000DF91CF911F910F91FF90EF900895EF928B
:102A0000FF920F931F93CF93DF93EC018A017C0118
:102A1000E60EF71ECE018796CE15DF0539F4DF915D
:102A2000CF911F910F91FF90EF900895C032D10583
:102A300040F40E946921F80180830F5F1F4F2196A7
:102A4000E9CFF8011082F9CFCF92DF92EF92FF9297
:102A50000F931F93CF93DF937C016A018C01060FC4
:102A6000171FEC01CE018796C017D10749F4DF91FB
:102A7000CF911F910F91FF90EF90DF90CF9008952D
:102A8000C032D10540F4FE01EE19FF09EC0DFD1D29
:102A900060810E9477212196E5CF462F843038F45B
:102AA000723028F4623018F4672F0C94A01490E070
:102AB00080E0089580E1089589EB93E00895EF9216
:102AC000FF920F931F93CF93DF93EC018A017C0158
:102AD000E60EF71ECE01895B9F4FCE15DF0539F458
:102AE000DF91CF911F910F91FF90EF900895C93B17
:102AF00023E0D20740F40E946921F80180830F5F30
:102B00001F4F2196E7CFF8011082F9CFCF92DF92C5
:102B1000EF92FF920F931F93CF93DF937C016A0193
:102B20008C01060F171FEC01CE01895B9F4FC01768
:102B3000D10749F4DF91CF911F910F91FF90EF9052
:102B4000DF90CF900895C93B23E0D20740F4FE0107
:102B5000EE19FF09EC0DFD1D60810E947721219681
:102B6000E3CFCF93DF93C7E4D0E060E0CE010E94D3
:102B700077212196C11584E0D807B9F7DF91CF916D
:102B80000895DF92EF92FF920F931F93CF93DF93FD
:102B900000D000D0CDB7DEB7F82E8FE08F1540F013
:102BA0008FEF93E00E94692107E410E08823C1F0D1
:102BB0000F900F900F900F90DF91CF911F910F9179
:102BC000FF90EF90DF900895011584E0180781F3DE
:102BD000C8010E946921811101C0FA940F5F1F4F43
:102BE000F110F2CF19821A821B821C82DD24D39449
:102BF00078018FEFE81AF80AC8010E9469218983D9
:102C00001A828823A9F29FEF980F933078F48A8371
:102C1000D9820E5F1F4FC7010E9469218B838823D1
:102C200039F2CE0101960E948603E2CF8701F9CFE7
:102C30000F931F93CF93DF93C42FD22FFC01828178
:102C40008823C9F04093F5010E9457199093F4012D
:102C50008093F30180E28C0F883008F050C0C77079
:102C600081E001C0880FCA95EAF7DF91CF911F91EB
:102C70000F910C94E3041091F501141335C0809169
:102C8000F3019091F4010E946F19883C910560F561
:102C9000C0E2CD0F1D17B9F080E2810F883040F4FB
:102CA000177081E001C0880F1A95EAF70E94EA04C4
:102CB000C83048F481E09D2F977001C0880F9A9525
:102CC000EAF70E94E304802F0E94DB04C830B8F4C6
:102CD000D77081E001C0880FDA95EAF7DF91CF91D4
:102CE0001F910F910C94EA0480E28C0F883038F425
:102CF000C77081E001C0880FCA95EAF7EFCFDF9176
:102D0000CF911F910F9108950F939C01CB01233F09
:102D10004CE5340759F1A8F4283DFCE53F0701F1E3
:102D2000293D4CE53407D1F1273D3C4591F406E2BD
:102D300021EE41EE67ED7CE50E94181680E00F91D0
:102D40000895253FFCE53F07E9F0B0F0263F3C45FC
:102D5000F9F0FC018281882339F11092F501EFCF5F
:102D600007E225EE45EE68ED7CE5E6CF06E221EED2
:102D700040EE63EF7CE5E0CF07E225EE44EE64EF42
:102D80007CE5DACF06E221EE42EE65EF7CE5D4CFBA
:102D900007E225EE46EE66EF7CE5CECF08E221E0C5
:102DA00045EE69ED7CE5C8CF81E0C9CFCF93DF93D5
:102DB000EC01FB018281882309F420C1C330FDE5C9
:102DC000DF07C8F5CA3F9CE5D90730F49E012250C1
:102DD0003C452431310598F50E944E0C90930C022D
:102DE00080930B02C031FCE5DF0709F4E0C008F076
:102DF00061C0C8309CE5D90709F4CBC088F5C43060
:102E0000FCE5DF0709F4B3C0E8F4C2309CE5D9075C
:102E100009F4A7C080910B028260C330DC4509F43D
:102E2000A3C080910B0290910C020E945C0C0E9446
:102E30002A0780E004C0C136EDE5DE0769F2DF91C4
:102E4000CF91089580910B028061C630FCE5DF07C9
:102E500009F48AC008F48FC080910B02806284C09C
:102E600080910B028D7FCC309CE5D90709F47CC0A2
:102E700070F480910B028C60CA30FCE5DF0709F426
:102E800073C008F48AC080910B028E7F6DC0809160
:102E90000B02877FCE309CE5D90709F465C080918D
:102EA0000B028B7FCF30DC4508F45EC080910B02B3
:102EB0008F7E5AC0CC3FFCE5DF0709F474C040F5B3
:102EC000C4319CE5D90709F48AC058F4C231FCE545
:102ED000DF0709F474C008F46EC080910B02837F91
:102EE00043C0CA3F9CE5D90709F449C008F04DC06A
:102EF000C531DC4509F095CF80910B0282FB992703
:102F000090F921E0922790FB82F990FB83F92CC085
:102F1000C1158DE5D80709F458C088F480910C02DA
:102F20008360CE3FECE5DE0769F180910C028D7F76
:102F3000CF3FDC4538F180910C028C7F23C0C2303A
:102F40008DE5D80709F458C008F452C0C136DD45F4
:102F500009F067CF90910B02892F8F7E94FF8061DB
:102F600003C080910B02816080930B025ACF809145
:102F70000B028460F9CF80910B028860F5CF8091BD
:102F80000C02816080930C024CCF80910C02826015
:102F9000F9CF80910B028064E7CF0E942A078091CD
:102FA0000B028068E1CF80910C028E7FEBCF809185
:102FB0000B028F7DD9CF80910B028F7BD5CF0E94E2
:102FC0002A0780910B028F77CFCF80910C02982F28
:102FD000909591708E7F892B90FB81F9D3CF0E94C1
:102FE0002A0790910B02892F97FB87F98058BCCF55
:102FF00081E00E94E10C15CF80E0FBCF81E01FCF84
:10300000CF93DF93EB0186319C4511F50E94850B30
:103010009A81992399F08A7A91E009F490E090934B
:10302000F601811109C089E20E943F0B0E94C80B82
:1030300080E0DF91CF91089585E3F6CF8091F6018E
:10304000811104C089E20E94460BF0CF85E3FBCFDB
:1030500081E0EFCF9093FC018093FB010895E09114
:10306000FB01F091FC01309721F00190F081E02DFF
:10307000099480E00895E091FB01F091FC01309704
:1030800021F00280F381E02D09940895E091FB0185
:10309000F091FC01309739F022E0DC012C930480A0
:1030A000F581E02D099408952091F9013091FA01FC
:1030B0002817390771F09093FA018093F901E09194
:1030C000FB01F091FC01309721F00680F781E02DA3
:1030D000099408952091F7013091F80128173907D4
:1030E00071F09093F8018093F701E091FB01F0916A
:1030F000FC01309721F00084F185E02D09940895BA
:103100009C012E5F3F4FAC01485F5F4F80E024176A
:10311000350709F40895F90191919F019923B9F3B5
:103120008F5FF5CF662349F0FC0132960896219116
:10313000261729F0E817F907D1F780E0089581E014
:1031400008959C01FC0132969FEF80E04191461763
:1031500051F09F3F19F4411101C0982F8F5F8630C5
:10316000A9F79F3F09F40895290F311D97FD3A955E
:10317000F90162830895FC01329608962191261385
:1031800003C0DF0111971C92E817F907B9F70895FA
:103190000C94A1180C94BB18029626E0FC01119225
:1031A0002A95E9F708950895089508950C94D5187F
:1031B00080911902843049F10E94D61880E00E9463
:1031C00091031092FD0188E190E020E40FB6F8949D
:1031D000A895809360000FBE2093600083B7817F25
:1031E000846083BF83B7816083BF7894889583B7F9
:1031F0008E7F83BF0FB6F894A89580916000886198
:1032000080936000109260000FBE089508950E94A0
:10321000D4180E944D100E94061980E00E94CF0F22
:1032200091E0811107C081E00E94CF0F91E08111F0
:1032300001C090E0892F089508950C941C190E94F4
:103240002A070E942F180E9491030C941D191F92A7
:103250001FB61F9211248F939F93AF93BF938091BA
:10326000FD01811113C08091110290911202A09171
:103270001302B09114024196A11DB11D8093110259
:1032800090931202A0931302B0931402BF91AF91D6
:103290009F918F911F901FBE1F90189582E084BD53
:1032A00093E095BD9AEF97BD80936E0008952FB778
:1032B000F8948091110290911202A0911302B091A2
:1032C00014022FBF08952FB7F894609111027091E6
:1032D000120280911302909114022FBF08959C0155
:1032E0004FB7F8948091110290911202A0911302AD
:1032F000B09114024FBF821B930B089578941F92D4
:103300001FB61F9211248F939F93AF93BF93809109
:10331000110290911202A0911302B0911402019631
:10332000A11DB11D8093110290931202A09313026C
:10333000B0931402BF91AF919F918F911F901FBEC8
:103340001F90189581E08093E00080E28093D80080
:103350001092C9008FE19EE40197F1F700C00000D0
:1033600087E090EBDC018093220290932302A093EC
:103370002402B093250288E19CE00FB6F894A8954A
:10338000809360000FBE90936000FFCF90938B01FD
:1033900080938A01089580910902089590911902FD
:1033A000943029F58093FE01709300026093FF0131
:1033B0009093E9008FEF9091E800815095FD06C051
:1033C00095ED9A95F1F700008111F5CF8091E80015
:1033D00085FF0DC050E040E063E070E08EEF91E0CB
:1033E0000E94471C8091E8008E778093E800089542
:1033F000BC0184E00C94CE19BC0183E00C94CE197E
:103400009C0184E08093E9009FEF8091E800915057
:1034100085FD06C085ED8A95F1F700009111F5CF85
:103420008091E80085FF0CC050E040E066E070E06D
:10343000C9010E94471C8091E8008E778093E800C4
:103440000895CF93DF93EC0181E08093E9008FEF43
:103450009091E800815095FD06C095ED9A95F1F7A1
:1034600000008111F5CF8091E80085FF14C050E085
:1034700040E068E070E0CE010E94471C8091E800C7
:103480008E778093E80088E0FE01A1E0B2E0019031
:103490000D928A95E1F7DF91CF910895CF93FC01CA
:1034A000603221F580911902843001F5C091E90064
:1034B000CF702091EC00922F917020FD90E8C92BE5
:1034C00082E08093E9008091E80080FF0CC050E02A
:1034D00040E060E270E0CF010E94471C8091E8006C
:1034E0008E778093E800CF70C093E900CF91089564
:1034F00080911802811109C00E94261E0E94831E1D
:103500008091E20084608093E20008951092180296
:10351000089508950895089542E061EC81E00E94C5
:10352000A21D42E261EC84E00E94A21D42E261EC35
:1035300082E00E94A21D42E260EC83E00C94A21D96
:1035400080911B02833009F461C030F48130D1F1E5
:10355000823009F49DC008958A3009F489C08B3007
:1035600009F46FC0893009F050C080911A0281328D
:1035700009F04BC080911E0290911F02009719F034
:10358000029709F042C08091E800877F8093E800AD
:103590008091E80082FF35C09091F3008091F200A5
:1035A000029729F48091F1008B7F813021F4809182
:1035B000F100809309028091E8008B778093E80006
:1035C0000C94D61D80911A02813AF9F48091E8009A
:1035D000877F8093E80080911E0290911F02892BC3
:1035E00061F468E081E092E070E00E94E51C809167
:1035F000E8008B778093E800089560E090E080E039
:10360000F3CF809119028111C3CF089580911A02DE
:10361000813AD9F780911E0290911F02892BA9F758
:103620008091E800877F8093E8008091E80080FF28
:10363000FCCF809114018093F1008091E8008E7797
:10364000BDCF80911A02813201F780911E029091C4
:103650001F02892BD1F68091E800877F8093E800D4
:103660000E94D61D80911C02809314010C942A079D
:1036700080911A02813249F68091E800877F809319
:10368000E8000E94D61D80911D0280930A020895D1
:1036900080911A02813A09F0B8CF8091E800877FC3
:1036A0008093E8008091E80080FFFCCF80910A02BF
:1036B000C2CF84B7877F84BF0FB6F894A895809156
:1036C0006000886180936000109260000FBE80E807
:1036D00090E00FB6F89480936100909361000FBE64
:1036E0000C94070D0E94261E0E94831EE2EEF0E05D
:1036F00080818460808378940E940C210E941B0D3D
:103700008AE091E00C942A18CF93DF93CDB7DEB70F
:10371000A0970FB6F894DEBF0FBECDBF80911902FF
:10372000853031F480911902853091F10E941F1982
:103730000E94230D80911902843009F583E0809363
:10374000E9008091E80082FF1AC08091E80090E0D3
:1037500085FF09C050E040E060E270E0CE010196D4
:103760000E94961C91E08091E8008B778093E8009E
:10377000992329F060E2CE0101960E94E513A096FC
:103780000FB6F894DEBF0FBECDBFDF91CF91089585
:103790000E94D81880911702882321F20E940719ED
:1037A000882309F4BFCF0E94311C0E942A07BACF98
:1037B0000C94DA1B292F33272330310521F168F4CB
:1037C0002130310509F443C02230310509F444C0E9
:1037D00090E080E030E020E026C02132310551F158
:1037E00022323105A9F76330710590F7FB01EE0F26
:1037F000FF1FE258FE4F2081318165587E4FFB014B
:10380000808190E010C099278130910581F0009768
:1038100029F00297E9F6ECE7F1E002C0E0ECF1E014
:10382000849190E09F01FA01318320830895EEE9AD
:10383000F1E0F6CF6330710558F6660F771FFB0194
:10384000EC57FE4F2081318189E090E0ECCF82E19E
:1038500090E02FE132E0E7CF8BE590E024EC31E01F
:10386000E2CF80E189BD82E189BD09B400FEFDCFD0
:103870008091D8008F7D8093D8008091E000826095
:103880008093E0008091E00081FDFCCF0895AF922D
:10389000BF92CF92DF92FF920F931F93CF93DF934C
:1038A0006C01EB018A010E94F51DF82E811123C0E5
:1038B0000115110539F0F80180819181C81BD90BE0
:1038C000C80ED91EB12CA12C2097A9F08091E80038
:1038D00085FD22C08091E8008E778093E800011575
:1038E0001105A1F0F80180819181A80EB91EB18265
:1038F000A08285E0F82E8F2DDF91CF911F910F913F
:10390000FF90DF90CF90BF90AF9008950E94F51D7B
:103910008823D1F2F82EEFCFF60181916F018093C9
:10392000F1002197FFEFAF1ABF0ACECFAF92BF923F
:10393000CF92DF92FF920F931F93CF93DF936C018F
:10394000EB018A010E94F51DF82E811123C001159B
:10395000110539F0F80180819181C81BD90BC80E7F
:10396000D91EB12CA12C2097A9F08091E80085FDEB
:1039700022C08091E8008B778093E8000115110543
:10398000A1F0F80180819181A80EB91EB182A082B8
:1039900085E0F82E8F2DDF91CF911F910F91FF9031
:1039A000DF90CF90BF90AF9008950E94F51D8823BF
:1039B000D1F2F82EEFCF8091F100F60181936F01E3
:1039C0002197FFEFAF1ABF0ACECFFC0180912002F2
:1039D0009091210286179707A0F06115710529F4CF
:1039E0009091E8009E779093E80090E06115710552
:1039F00051F4911108C08091E80082FF34C080E04A
:103A00000895BC01F2CF809119028823C1F185305D
:103A1000C1F18091E80083FD30C08091E80082FD13
:103A2000EACF8091E80080FFE1CF8091F300209100
:103A3000F200382F6115710519F02830310558F062
:103A400091E02830310509F090E02091E8002E77D0
:103A50002093E800CBCF81918093F10061507109F0
:103A60002F5F3F4FE7CF80911902882341F08530C7
:103A700041F08091E80083FFBECF81E0089582E0AD
:103A8000089583E00895FC01809120029091210225
:103A900086179707A0F06115710529F48091E80059
:103AA0008E778093E80090E06115710551F49111D3
:103AB00008C08091E80082FF35C080E00895BC0115
:103AC000F2CF809119028823C9F18530C9F1809124
:103AD000E80083FD31C08091E80082FDEACF80914B
:103AE000E80080FFE1CF8091F3002091F200382FB1
:103AF0006115710519F02830310558F091E0283032
:103B0000310509F090E08091E8008E778093E8001D
:103B1000CBCF84918093F1003196615071092F5F72
:103B20003F4FE6CF80911902882341F0853041F064
:103B30008091E80083FFBDCF81E0089582E0089581
:103B400083E00895982F973028F08F708093E900D4
:103B500081E008959093E900242F762F50E0981784
:103B600031F07091EC002091ED005091F00021FDBA
:103B700002C09F5FE8CF3091EB003E7F3093EB00B7
:103B80003091ED003D7F3093ED003091EB003160DE
:103B90003093EB007093EC002093ED005093F00015
:103BA0002091EE0027FDE5CF80E0089580911A0274
:103BB00087FF13C08091E80082FF06C08091E80073
:103BC0008B778093E80004C0809119028111F2CFB5
:103BD0000895809119028823D9F38091E80080FF2D
:103BE000F8CF8091E8008E77ECCF2091E4003091FF
:103BF000E50095E6A9012091EC00822F817020FF5D
:103C000006C08091E80080FF06C080E00895209102
:103C1000E80022FD1AC080911902882389F08530BE
:103C200089F08091EB0085FD0FC02091E400309178
:103C3000E50042175307F9F29150E1F684E0089548
:103C400082E0089583E0089581E008950E94941E23
:103C50000E949C1EE0EEF0E0808181608083E8EDB0
:103C6000F0E080818F77808319BCA7EDB0E08C9164
:103C70008E7F8C9380818F7E8083109218020895AE
:103C80000F931F93CF93DF930E94941E0E949C1E5C
:103C9000C8EDD0E088818F778883888180688883A9
:103CA00088818F7D888319BC1092190210921502A9
:103CB000109217021092160200EE10E0F8018081B7
:103CC0008B7F808388818160888342E060E080E030
:103CD0000E94A21DE1EEF0E080818E7F8083E2EE03
:103CE000F0E0808181608083808188608083F8013A
:103CF00080818E7F8083888180618883DF91CF91EE
:103D00001F910F910895E8EDF0E080818F7E808310
:103D1000E7EDF0E080818160808384E082BF81E014
:103D2000809318020C94401EE8EDF0E080818E7FB5
:103D300080831092E20008951092DA001092E10060
:103D400008951F920F920FB60F9211242F933F9355
:103D50004F935F936F937F938F939F93AF93BF9393
:103D6000EF93FF938091E10082FF0BC08091E2000E
:103D700082FF07C08091E1008B7F8093E1000E9469
:103D80000B218091DA0080FF19C08091D80080FF5C
:103D900015C08091DA008E7F8093DA008091D9007F
:103DA00080FF96C080E189BD82E189BD09B400FE33
:103DB000FDCF81E0809319020E94781A8091E10082
:103DC00080FF19C08091E20080FF15C08091E20061
:103DD0008E7F8093E2008091E20080618093E20018
:103DE0008091D80080628093D80019BC85E08093D0
:103DF00019020E948A1A8091E10084FF2BC08091F1
:103E0000E20084FF27C080E189BD82E189BD89B5D8
:103E1000982F917080FFFBCF8091D8008F7D809389
:103E2000D8008091E1008F7E8093E1008091E200D4
:103E30008F7E8093E2008091E20081608093E200B7
:103E400080911502882309F449C084E08093190207
:103E50000E948B1A8091E10083FF29C08091E200CB
:103E600083FF25C08091E100877F8093E10082E09D
:103E700080931902109215028091E1008E7F809349
:103E8000E1008091E2008E7F8093E2008091E20069
:103E900080618093E20042E060E080E00E94A21D29
:103EA0008091F00088608093F0000E94891AFF9151
:103EB000EF91BF91AF919F918F917F916F915F91A2
:103EC0004F913F912F910F900FBE0F901F9018951B
:103ED00019BC109219020E94861A70CF8091E300DB
:103EE00087FD93E090931902B3CF1F920F920FB604
:103EF0000F9211242F933F934F935F936F937F9370
:103F00008F939F93AF93BF93CF93DF93EF93FF93E1
:103F1000D091E900DF708091EC00C82FC17080FD66
:103F2000C0E81092E9008091F000877F8093F00054
:103F300078940E94B91F1092E9008091F000886087
:103F40008093F000CD2BCF70C093E900FF91EF91EB
:103F5000DF91CF91BF91AF919F918F917F916F91A1
:103F60005F914F913F912F910F900FBE0F901F9037
:103F700018951F93CF93DF93CDB7DEB7AA970FB6EF
:103F8000F894DEBF0FBECDBF8AE192E02091F10030
:103F9000FC012193CF01F2E082329F07B9F70E9422
:103FA000A01A8091E80083FF1EC180911A029091AF
:103FB0001B029A3008F017C1E92FF0E0E652FE4DDF
:103FC0000C943B21803899F0823809F00CC1809123
:103FD0001E028F70873008F006C18093E90080913F
:103FE000EB0085FB882780F91092E90006C08091DC
:103FF000160290911702911182609091E800977FCC
:104000009093E8008093F1001092F1008091E80015
:104010008E77E5C0882309F4D3C0823009F0E3C06D
:1040200080911C028111D6C080911E028F702FEFEB
:10403000280F263008F0D7C08093E9002091EB00CC
:1040400020FFC8C0933031F48091EB0080628093F0
:10405000EB00C0C09091EB0090619093EB0021E0E9
:1040600030E001C0220F8A95EAF72093EA0010920F
:10407000EA008091EB008860EACF8111B4C0109112
:104080001C021F778091E3008078812B8093E300EE
:104090008091E800877F8093E8000E94D61D809180
:1040A000E80080FFFCCF8091E30080688093E3000C
:1040B00082E0111183E08093190295C0805882300C
:1040C00008F091C080911C0290911D028C3D23E06C
:1040D0009207A1F583E08A838AE289834FB7F89437
:1040E000DE01139620E03EE051E2E32FF0E0509332
:1040F0005700E49120FF03C0E295EF703F5FEF703F
:104100008E2F90E0EA30C0F0C7968D939D932F5F7D
:10411000243159F74FBF8091E800877F8093E800F2
:104120006AE270E0CE0101960E94E51C8091E800F1
:104130008B778093E80057C0C096E7CF60911E024E
:1041400070911F02AE014F5F5F4F0E94D81BBC01F0
:10415000892B09F448C09091E800977F9093E8007C
:1041600089819A810E94431DE1CF8038E1F58091D9
:10417000E800877F8093E800809115028093F1002A
:1041800045CF811130C090911C02923060F5809132
:10419000E800877F8093E800909315020E94D61D67
:1041A00080911502882311F084E005C08091E3001E
:1041B00087FDFACF81E0809319020E948C1A13C008
:1041C00080911C02813079F481E0933009F080E025
:1041D000809317021092E9008091E800877F809316
:1041E000E8000E94D61D8091E80083FF0AC08091FC
:1041F000E800877F8093E8008091EB0080628093E5
:10420000EB00AA960FB6F894DEBF0FBECDBFDF91CC
:10421000CF911F9108950895CF938091190288231B
:10422000A1F0C091E900CF709091EC00892F8170CE
:1042300090FD80E8C82B1092E9008091E80083FD92
:104240000E94B91FCF70C093E900CF91089597FBEA
:10425000072E16F4009407D077FD09D00E9448215C
:1042600007FC05D03EF4909581959F4F0895709579
:1042700061957F4F0895EE0FFF1F0590F491E02D9B
:10428000099469279627692778278727782708952B
:10429000AA1BBB1B51E107C0AA1FBB1FA617B7076C
:1042A00010F0A61BB70B881F991F5A95A9F7809588
:1042B0009095BC01CD010895FB01DC0104C08D91F6
:1042C0000190801921F441505040C8F7881B990B88
:1042D0000895F999FECF92BD81BDF89A992780B5CE
:1042E0000895A8E1B0E042E050E00C949D21262F13
:1042F000F999FECF92BD81BDF89A019700B40216DC
:1043000039F01FBA20BD0FB6F894FA9AF99A0FBE89
:1043100008950396272F0E9478210E947721252F48
:104320000E947821242F0C9478210196272F0E9437
:1043300078210C947721DC01CB01FC01F999FECFA7
:1043400006C0F2BDE1BDF89A319600B40D9241501D
:104350005040B8F70895F894FFCF28052805800548
:104360008005D205EE0555055505F90560066F0671
:104370006F063907390742074207440742074207D9
:104380004207390739074907420742074907F4132B
:10439000FE131F142B1436144114441444144414F3
:1043A0004414441447144B14531460146D147014C3
:1043B00073148014E21F0A20F3200A20F3203D200A
:0843C0005E20F320B520C120AE
:1043C800CC012808641E140A321ECB19211A001ABF
:1043D800FC19F81901E200E900EA00B500B600B7D7
:1043E80000CD008301CC008A0192019401210223AF
:1043F8000224022502260227022A02B300B4006F13
:10440800007000818283E200E900EA00B500B6008E
:10441800B700CD008301CC008A01920194012102EA
:10442800230224022502260227022A02B300B4002E
:104438006F007000818283C697353440227BCE029C
:0A44480031025302D601EF010F020A
:00000001FF
