:100000000C9495020C94DC020C94DC020C94DC023F
:100010000C94DC020C94DC020C94DC020C94DC02E8
:100020000C94DC020C94DC020C94D0270C94A428D1
:100030000C9456220C94DC020C94DC020C94DC022E
:100040000C94DC020C94DC020C94DC020C94DC02B8
:100050000C94DC020C94AD220C94DC020C94DC02B7
:100060000C94DC020C94DC020C94DC020C94DC0298
:100070000C94DC020C94DC020C94DC020C94DC0288
:100080000C94DC020C94DC020C94DC020C94DC0278
:100090000C94DC020C94DC020C94DC020C94DC0268
:1000A0000C94DC020C94DC020C94DC021E001F0099
:1000B0001D001B0001000100010001000100010002
:1000C000010001000100010001000100000000002A
:1000D000000000002A2B28000000000000000000A3
:1000E0000000000000000029000000002C1E342049
:1000F000212224342627252E362D3738271E1F206F
:100100002122232425263333362E37381F040506B3
:100110000708090A0B0C0D0E0F10111213141516F7
:100120001718191A1B1C1D2F3130232D35040506F5
:100130000708090A0B0C0D0E0F10111213141516D7
:100140001718191A1B1C1D2F3130354C00000000E8
:10015000000000000000000000000000000000009F
:10016000000000000000000000000000000000008F
:100170007E0F00D4FFFFFFC70000007800047F3F20
:100180001F643214643214783C1E1E140A052223A4
:10019000252628292A2C2D2F3032333536383A3B64
:1001A0003D3E4042434547494A4C4E5051535557B6
:1001B000595A5C5E6062646668696B6D6F717375D5
:1001C00077797B7D7F81838587898A8C8E909294D5
:1001D00096989A9C9E9FA1A3A5A7A8AAACAEAFB1E2
:1001E000B3B4B6B8B9BBBCBEBFC1C2C3C5C6C7C92C
:1001F000CACBCCCDCED0D1D2D2D3D4D5D6D7D7D8E6
:10020000D9D9DADADBDBDBDCDCDCDCDCDDDDDDDD37
:10021000DCDCDCDCDCDBDBDBDADAD9D9D8D7D7D63F
:10022000D5D4D3D2D2D1D0CECDCCCBCAC9C7C6C5F6
:10023000C3C2C1BFBEBCBBB9B8B6B4B3B1AFAEAC3C
:10024000AAA8A7A5A3A19F9E9C9A98969492908EE7
:100250008C8A89878583817F7D7B79777573716FC0
:100260006D6B6968666462605E5C5A59575553519C
:10027000504E4C4A4947454342403E3D3B3A383652
:10028000353332302F2D2C2A292826252322FFAA68
:100290007F5540030201000001010101010101013C
:1002A0000102020202020202020203030303030329
:1002B00003030404040404040405050505050606F7
:1002C00006060607070707070808080809090909B5
:1002D0000A0A0A0B0B0B0C0C0C0D0D0D0E0E0E0F5B
:1002E0000F0F1010111111121213131414151516EB
:1002F000161717181819191A1A1B1B1C1D1D1E1E5C
:100300001F202021222223242425262627282929AC
:100310002A2B2C2D2D2E2F303132323334353637D7
:1003200038393A3B3C3D3E3F4041424344454647D5
:1003300048494A4C4D4E4F50515354555658595AAE
:100340005B5D5E5F616264656668696B6C6D6F7052
:1003500072737577787A7B7D7E8082838587888AC1
:100360008C8E8F91939596989A9C9EA0A2A3A5A7F8
:10037000A9ABADAFB1B3B5B7BABCBEC0C2C4C6C9F4
:10038000CBCDCFD1D4D6D8DBDDDFE2E4E7E9EBEEAD
:10039000F0F3F5F8FAFDFF200372006500640077C2
:1003A000006F006C0066005F0034006B0065007930
:1003B00000640069007200000020037200650064A0
:1003C0000077006F006C0066002D00640069006714
:1003D000006900740061006C000000040309040956
:1003E000025B00030100A0FA0904000001030101FF
:1003F00000092111010001224000070581030800C6
:100400000A09040100020300000009211101000192
:1004100022220007058203200001070503032000B4
:10042000010904020001030000000921110100017B
:10043000227B000705840320000A1201000200004D
:100440000008EDFE00000100010200010660FF0946
:1004500061A1010962150026FF009520750881023F
:100460000963150026FF00952075089102C005015B
:100470000902A10185020901A10005091901290844
:100480001500250195087501810205010930093122
:100490001581257F95027508810609381581257F0C
:1004A000950175088106050C0A38021581257F958E
:1004B0000175088106C0C005010980A101850319E5
:1004C000012AB700150126B700950175108100C0FB
:1004D000050C0901A101850419012AA002150126B4
:1004E000A002950175108100C005010906A1010552
:1004F0000719E029E7150025019508750181029586
:1005000001750881010507190029FF150026FF0064
:1005100095067508810005081901290595057501DD
:100520009102950175039101C00011241FBECFEF08
:10053000DAE0DEBFCDBF04B603FE27C080917902AA
:1005400090917A02A0917B02B0917C028730904B0F
:10055000A740B04BD1F41092790210927A02109217
:100560007B0210927C0214BE84B7877F84BF0FB6D3
:10057000F894A89580916000886180936000109243
:1005800060000FBEE0E0F8E3099511E0A0E0B1E003
:10059000E2EFF6E502C005900D92A23CB107D9F753
:1005A00022E0A2ECB1E001C01D92A937B207E1F749
:1005B0000E94D5110C94402B0C94000081E008950A
:1005C00081E008950C94E00208950C94E4021F93D6
:1005D000CF93DF9300D000D00F92CDB7DEB7498321
:1005E0005A836B833091C40189819A8131111DC076
:1005F0006623B9F02223A9F00E943B09182F682F27
:1006000089819A810E94EA0869817A81812F0F90FD
:100610000F900F900F900F90DF91CF911F910C943E
:10062000781E0E941509182FEFCF0E943B0969819F
:100630007A81EDCFFC01262F408151816281738147
:1006400084810C94E70281E00895CF93DF93EC015D
:1006500060E00E941A03BE01DF91CF910C94E50285
:10066000E1E0F0E0DF0102C0AA0FBB1F6A95E2F7EC
:10067000BD01DF0102C0AA0FBB1F4A95E2F76A2B3A
:1006800001C0EE0F2A95EAF7962F9823961302C021
:100690008E2B0895E0958E230895242F462F682FE2
:1006A0008091C8010E9430030C94A7080E94C810D2
:1006B0000E94A5040C94E3100C94E61008950E9487
:1006C0003F080E945E032FEF84E39CE021508040AE
:1006D0009040E1F700C000000C94D1220F931F93CB
:1006E000CF93DF938C0161E00E941A03EC01B80103
:1006F0000E94731C882309F441C0B801CE010E94F6
:10070000E2028823D9F1B801CE010E94AF1F8823ED
:10071000A9F1B801CE010E940120882379F1B80126
:10072000CE010E942B21882349F1B801CE010E94FD
:10073000251B882319F1F8018281882361F0CA35CD
:10074000FDE5DF0721F170F4C115ECE5DE07A1F04E
:10075000CE3DDC45C9F0C801DF91CF911F910F91CB
:100760000C94DE02CB358DE5D807A1F0CC35DD4504
:1007700091F70E948B0CEFCF0E945F0380E0DF9126
:10078000CF911F910F9108950E94F40DF7CF0E9411
:10079000940CE1CF0E94970CDECFDF92EF92FF9294
:1007A0000F931F93CF93DF93E82FF0E0E453FF4FB5
:1007B000D490282F26952695269530E0F901E45906
:1007C000FE4F0491877010E0082E02C01595079522
:1007D0000A94E2F701701127F901E45AFE4FE49000
:1007E000F12C082E02C0F594E7940A94E2F791E008
:1007F000E922FF24F901E45BFE4FC491D0E002C07E
:10080000D595C7958A95E2F7C170DD2701151105C9
:1008100019F081EE0E94F104E114F10419F086EE62
:100820000E94F1048D2D0E94F005EF2819F086EE4C
:100830000E948305012B19F081EE0E948305CD2BC8
:1008400051F08CE2DF91CF911F910F91FF90EF90CB
:10085000DF900C94F005DF91CF911F910F91FF90E5
:10086000EF90DF900895EF92FF920F931F93CF9335
:10087000DF93EC01162F0AE08881882309F454C025
:10088000813009F04EC08981813099F47E0122E0E7
:10089000E20EF11C8A810E94F005E7012196812F6A
:1008A000815050F3EFE9FFE03197F1F700C000000D
:1008B000F7CF823041F47E0182E0E80EF11C8A819C
:1008C0000E94F104EACF833041F47E01E2E0EE0EB3
:1008D000F11C8A810E948305E0CF843011F02196BB
:1008E000DDCF2A81229690E080E0AE014F5F5F4F1E
:1008F0002053330B2A30310548F0019778F2EFE9A5
:10090000FFE03197F1F700C00000F7CF089FB0017A
:10091000099F700D1124C901860F971F2981EA01D3
:10092000E4CF0E94CD03BACFDF91CF911F910F91F9
:10093000FF90EF90089560E00C94330408950C94B8
:100940009E0481E008950C94A1040895CF93C82FCC
:100950000E949F048C2FCF910C94A304CF93DF931C
:10096000CDB7DEB72B970FB6F894DEBF0FBECDBF65
:100970004F83588769877A878B8761110E94BA0CE9
:100980001E821D8285E0FE013796DE0111960190E0
:100990000D928A95E1F78C819D81892B89F449819B
:1009A0005A816B817C818D819E810E94BA0B2B962E
:1009B0000FB6F894DEBF0FBECDBFDF91CF91089583
:1009C00089819A8189238F3F51F3CE0101960E943C
:1009D00023038111E4CFEBCFFC01808191810C9442
:1009E0006809CF93C82F882309F48BC08238C1F4DB
:1009F0000E945A2181FD85C089E30E94540C0E9407
:100A0000DD0C2FEF81EE94E0215080409040E1F723
:100A100000C0000089E30E945B0CCF910C94DD0CB8
:100A20008338A1F40E945A2180FD6BC083E50E94A7
:100A3000540C0E94DD0C2FEF81EE94E02150804099
:100A40009040E1F700C0000083E5E5CF8438A1F4D1
:100A50000E945A2182FD55C087E40E94540C0E94D6
:100A6000DD0C2FEF81EE94E0215080409040E1F7C3
:100A700000C0000087E4CFCF8CEF8C0F813A90F458
:100A80006C2F80910001909101010E94BD2188236B
:100A900029F08C2F0E945B0C0E94DD0C8C2F0E9491
:100AA000540CBBCF80E28C0F883048F4C77081E0D3
:100AB00001C0880FCA95EAF70E949D0CAECFEBE506
:100AC000EC0FE33040F4F0E0EA5AFE4F808190E012
:100AD000CF910C947F21E8E5EC0FE73150F4F0E082
:100AE000EE0FFF1FE85DFE4F80819181CF910C9446
:100AF0009521C03F30F08C2F0E946312CF910C944F
:100B00003613CF910895882309F452C0823871F4C6
:100B10000E945A2181FF4CC089E30E94540C0E941C
:100B2000DD0C89E30E945B0C0C94DD0C833859F4D6
:100B30000E945A2180FF3CC083E50E94540C0E9411
:100B4000DD0C83E5EFCF843859F40E945A2182FFEF
:100B50002FC087E40E94540C0E94DD0C87E4E2CF92
:100B60009CEF980F913AF0F290E2980F983050F481
:100B7000877091E001C0990F8A95EAF7892F0E944A
:100B8000A30CD2CF9BE5980F933020F490E080E047
:100B90000C947F2198E5980F973120F490E080E045
:100BA0000C949521803F20F00E94BD120C943613C6
:100BB00008951F93CF93DF93182FEB010E94F10448
:100BC000209731F4812FDF91CF911F910C948305F1
:100BD0008FE99FE00197F1F700C000002197F0CF67
:100BE00070E060E0893311F460E570E00C94D905A1
:100BF000882321F00E949D0C0C94DD0C089588231D
:100C000021F00E94A30C0C94DD0C0895BF92CF92AA
:100C1000DF92EF92FF920F931F93CF93DF936C01BC
:100C2000D62FC72FFC011281058102950F700E94FB
:100C3000720CE82E8823A1F0E12E112389F08C2F6D
:100C4000807F803429F080E28D0FE12C883040F0E5
:100C500082E00E942E0D0E94720C91E0E82EE9269F
:100C6000BC2EB2949FE0B922FBE0FB1598F1EB2D6E
:100C7000F0E0EE5BF44D0C94A02A0C2F0F70C07FB7
:100C800011F00295007F1123A9F0002359F080E2B2
:100C90008D0F883010F0D11109C0802F0E949D0C5B
:100CA0000E94DD0C8D2F0E94F10414C0802F0E9441
:100CB000AD0CF6CF8D2F0E948305002359F080E202
:100CC0008D0F883010F0D1112CC0802F0E94A30C02
:100CD0000E94DD0C2B2D2850330B2430310520F4DD
:100CE0000E945A210E94A604EE2009F469C10E94C4
:100CF0006E0C80FD65C1F60112820E94680C0E9494
:100D0000B808C6010E9401080E94680CDF91CF91CB
:100D10001F910F91FF90EF90DF90CF90BF900C94B8
:100D2000C308802F0E94B30CD3CF2C2F2F70F22E2C
:100D3000C07FC03219F0F29480EFF822DD2369F011
:100D4000D13049F1112391F1002351F1F601858150
:100D500080FFA8CF8F70858323C0112381F00111FC
:100D600006C00E94C00C8F290E94F805B3CF013045
:100D7000C1F70E94C00C8F290E94C60CABCF011195
:100D800006C00E94D30C8F2D0E94FF05A3CF013017
:100D900009F4A0CFF6CF112329F0063008F09ACF3E
:100DA0008F2DE2CF053008F095CFEDCF002359F31A
:100DB000D93349F4FFEF27EE33E0F15020403040C3
:100DC000E1F700C000008D2F0E94830583CF8C2F98
:100DD00086958695837069F0813009F07BCF8D2FE1
:100DE0009C2F9370111102C090E080E00E94952129
:100DF00071CF8D2F9C2F9370111102C090E080E075
:100E00000E947F2167CF8D2F112329F00E9463124A
:100E10000E9436135FCF0E94BD12FACF8C2F8370D1
:100E200079F5111157CF4D2F429546954770440FD4
:100E3000440F8D2F8F70042E01C0880F0A94EAF79B
:100E40002D2F2071D4FF07C02FE030E001C0220F0A
:100E50004A95EAF72095C695C695C370822BC23095
:100E600049F058F4C13019F00E94990833CF0E941C
:100E7000940830CF0E949E082DCF0E9492082ACF5E
:100E80008695112311F08C2F8170882309F422CFCD
:100E90004D2F429546954770440F440F8D2F8F700C
:100EA000042E01C0880F0A94EAF72D2F2071D4FF79
:100EB00007C02FE030E001C0220F4A95EAF72095E5
:100EC000C695C695C370822BC23049F058F4C13024
:100ED00019F00E94DF08FECE0E94DA08FBCE0E94C5
:100EE000E408F8CE0E94A708F5CECF70112329F0B0
:100EF0008C2F0E94B8088D2F37CF8D2F0E94FF05B1
:100F00008C2F0E94C308E6CED23F89F160F4D03F17
:100F1000C9F0D13F29F1112309F442C00111C2CE19
:100F20008C2F8F7121C0D33F39F1D43FA1F711230A
:100F300069F1CF718C2F0E94B80863E08C2F0E945A
:100F4000130DC8CE112341F0053008F0C3CE8C2F0D
:100F50008F710E94CF08BECE063008F0BBCEF7CF0F
:100F60008C2F8F71112369F20E94B808B3CE8C2F99
:100F70008F711123C9F3C5CF112329F08C2F8F71E5
:100F80000E94B008A7CE0E94AD08A4CE81E00E94C6
:100F90002E0D023008F49ECE82E00E942E0D9ACED5
:100FA000002359F0D93309F00ECF8FEF97EEE3E02D
:100FB00081509040E040E1F704CF8C2F8F71A1CF9A
:100FC000DF91CF911F910F91FF90EF90DF90CF9025
:100FD000BF9008950F931F93CF93DF93EC01688127
:100FE00079818A810E9472098C010E94E9080E941D
:100FF0009108B801CE01DF91CF911F910F910C9410
:101000000606CF93DF93EC018B819C81892B29F01D
:101010008881998189238F3F59F4DF91CF91089579
:10102000CE010E94EA07CE01DF91CF910C942503F7
:10103000CE010E946E038111F3CF0E94720C8823AF
:1010400061F38A81882349F382E0DF91CF910C9488
:101050002E0D90E080E00E947F2190E080E00E94D1
:1010600095210E94BA0C0E94BD0C0E94DD0C0E94CA
:101070005D140C9436130E94620C0C9429080E9493
:10108000AA0C0C943B08E92FE295EF70E250EE3089
:1010900070F4F0E0E25BF44D0C94A02A803F19F06C
:1010A00020F4883E20F481E00895843FE1F380E05D
:1010B0000895883EC0F3813FD1F7F5CF93FB882791
:1010C00080F90895FC01808191810E9468090C9447
:1010D0004308CF93DF9300D000D00F92CDB7DEB797
:1010E0000F900F900F900F900F90DF91CF91089578
:1010F000CF93DF9300D000D000D0CDB7DEB72696D7
:101100000FB6F894DEBF0FBECDBFDF91CF9108952B
:1011100008950C9488080E9489088093C9010C9452
:10112000290808950C948B089091C901892B0C947F
:101130008B089091C90189230C948B089091C90167
:1011400089270C948B080C9488080C94A3080E949F
:10115000A5088093C8010C94290880E00C94A70886
:1011600091E001C0990F8A95EAF7892F0C94A7089E
:1011700021E030E001C0220F8A95EAF78091C80192
:10118000822B0C94A70821E030E001C0220F8A9541
:10119000EAF720958091C80182230C94A70821E0EA
:1011A00030E001C0220F8A95EAF78091C8018227BA
:1011B0000C94A7089091C801892B0C94A7089091D2
:1011C000C80189230C94A7089091C80189270C9421
:1011D000A7080895990F890F982F977041E001C0D3
:1011E000440F9A95EAF786958695869593E0899FB0
:1011F000F0011124EB53FE4F30E020E070E05191FC
:10120000DF011197CB01022E02C0969587950A94B3
:10121000E2F7817081958527842385278C932F5F42
:101220003F4F2330310559F70895990F890F982FB3
:10123000977086958695869523E0829FF00111240C
:10124000EB53FE4F50E040E080E0219130E0092E6A
:1012500002C0369527950A94E2F721703327042EB1
:1012600001C0220F0A94EAF7822B4F5F5F4F433091
:10127000510559F70895CF92DF92FF920F931F9374
:10128000CF93DF936C010091C8018091C901082BB5
:10129000C7E0D0E010E0FC2EC8010C2E02C09595EE
:1012A00087950A94E2F780FD0CC02197A0F7F12CF6
:1012B0008F2DDF91CF911F910F91FF90DF90CF90F5
:1012C0000895B6018C2F0E94D00F019771F3F0CFD3
:1012D000CF93DF93EC010E943B09BE01DF91CF91D8
:1012E0000C94D00F1F93CF93DF93EB019091C40127
:1012F000992331F0CB01DF91CF911F910C946809B4
:10130000882379F0CB010E943B09182F682FCE016A
:101310000E94EA08BE01812FDF91CF911F910C94AA
:10132000D00FCB010E941509182FF4CF1F93CF9334
:10133000DF93C091CA0116E08091CB018C1304C0E9
:10134000DF91CF911F910895D0E01C9FF0011D9F68
:10135000F00D1124E453FE4F40815181628173816D
:10136000848195810E9478082196C770E5CF4091CD
:10137000FC015091FD016091FE017091FF0180918F
:101380000002909101020C9478081F93CF93DF9391
:1013900080910102807FA9F48091FE01882389F069
:1013A0008091CA01C091CB016091FC017091FD0157
:1013B000A091FF01B0910002D62FD72316E0C813E9
:1013C00004C0DF91CF911F91089590E0109711F024
:1013D000DF3F19F401968770F2CF189F9001199F93
:1013E000300D1124F901E453FE4F41814713F2CF30
:1013F00040814613EFCF42814111ECCF43815481AC
:101400004A1B5B0B483C510528F7809101028F7005
:10141000806180930102F901EF52FE4F80818F704D
:10142000806180838CEF91E00E940108DF91CF9171
:101430001F910C949609AF92BF92CF92DF92EF92D8
:10144000FF920F931F93CF93DF93CDB7DEB76197D2
:101450000FB6F894DEBF0FBECDBF8C0185E0F8015A
:10146000DE011D9601900D928A95E1F7F801E28068
:101470008CEFC82E81E0D82E6091FF0170910002A0
:101480006115710509F45AC19091FC012091FD018B
:10149000892F82238F3F09F451C140815181A3805C
:1014A000B480F090FE01F501E61BF70BFF2009F474
:1014B000F6C080910102382F307FE83CF10508F03A
:1014C000AFC0311179C0FE2C251323C0941321C065
:1014D000E1101FC08F708061809301020E94B709E4
:1014E000C6010E94010880910102F80185838F2DB9
:1014F00061960FB6F894DEBF0FBECDBFDF91CF91DE
:101500001F910F91FF90EF90DF90CF90BF90AF9021
:101510000895AB2829F0842F85238F3F09F027C138
:1015200080E0F82FF170DF2E80FF3CC08091CA016F
:101530002091CB0136E0821315C04D875E878D85E3
:101540009E850E946809292F22952F702230F0F085
:10155000243018F59F70F1F0F8019581907FD1F457
:10156000D12C1EC090E0389FF001399FF00D11245E
:10157000E453FE4F6181651306C06081641303C0AC
:101580006281E6120FC001968770D5CF9F7011F06F
:10159000882331F3805E883018F3C8010E94010867
:1015A000FD2CA5CFEE2009F4A2CF8091010281602D
:1015B00080930102F12C9BCF251306C0941304C025
:1015C000F801EE2009F487C0C8010E946208882350
:1015D00019F1EE2009F180910102803270F0209122
:1015E000FC013091FD0138872F831986BB86AA86BE
:1015F0008C87CE0107960E94010886E0F801ACEFC7
:10160000B1E001900D928A95E1F70E94C5090E9410
:10161000B709FF24F3946BCFC8010E940108F9CFEA
:10162000311113C07A2DB98AA88A6E2D89890E943A
:1016300069088CEF91E00E94010886E0F6011192A2
:101640008A95E9F70E94B709B5CF25130FC0941307
:101650000DC0E1100BC0F8018583C8010E9401088C
:1016600086E0F60111928A95E9F741CFC8010E9400
:101670006208882389F2EE2079F28091010280329B
:1016800008F4BBCF2091FC013091FD013A832983FE
:101690001B82BD82AC828E83CE010196ACCFE83C2A
:1016A000F10508F03EC0FE2CEE2009F4B5CF25135D
:1016B0002AC0941328C08091010280FD1BC0982F7E
:1016C000907FC1F0F8018583903F31F0982F907F93
:1016D000905F8F70892B8583C8010E94010886E086
:1016E000F801ACEFB1E001900D928A95E1F70E940C
:1016F000B709FDCE86E0F801ACEFB1E001900D92A4
:101700008A95E1F7F4CEC8010E946208811175CF75
:1017100080910102816080930102C8010E9401084A
:10172000E6CE7A2DB98AA88A6E2D89890E94690829
:1017300086E0F60111928A95E9F7D9CFEE2009F4F7
:101740006BCFC8010E946208F82E882309F464CF89
:1017500086E0F801ACEFB1E001900D928A95E1F7D7
:101760008CEF91E00E94EC040E94C509C0CF81E09B
:101770008E25D7CE1F93CF93DF93CDB7DEB72C97AF
:101780000FB6F894DEBF0FBECDBF4F835887698771
:101790007A878B879C87CE0107960E941B0A882335
:1017A00069F08A859B85892B39F04F815885842F74
:1017B00085238F3F09F071C016E05FC086E0FE010F
:1017C0003796DE01119601900D928A95E1F78A8590
:1017D0009B85892B89F38F81988589238F3F61F3BE
:1017E0002091CB0130E0C901019687709927409183
:1017F000CA014817190671F40E943F081092CB01E4
:101800001092CA0186E0ECEFF1E0DF011D928A95AB
:10181000E9F7D2CF96E0929FD001939FB00D1124AB
:10182000A453BE4FFE01319601900D929A95E1F7B7
:101830008093CB010E949609BFCF819FC0011124E4
:1018400084539E4F0E941B0A8823E9F0E091CA014D
:101850001E9FF0011124E453FE4F408151816281AB
:101860007381848195810E9478088091CA0190E0FB
:101870000196877099278093CA018091CA0190913F
:10188000CB018913DACF2C960FB6F894DEBF0FBECA
:10189000CDBFDF91CF911F91089569857A858B85A2
:1018A0009C850E94780888CF682F809100019091D4
:1018B00001010C94F321682F8091000190910101A6
:1018C0000C94F52180910001909101010C94F72175
:1018D00080910202859585958595089580910202F3
:1018E0008770089590910202977081E009F480E07A
:1018F00008959091520292FB222720F9281751F067
:1019000080FB92F990935202809151029091520281
:101910000C94710D08958091520282FB882780F902
:1019200091E089270C94790C81E00C94790C80E08B
:101930000C94790C80910E02089590910E02892BDF
:1019400080930E020895809590910E0298239093B3
:101950000E02089510920E02089590910D02892BA7
:1019600080930D020895809590910D029823909395
:101970000D02089510920D02089510920C02089520
:1019800080910302089508950C94C30C9091520223
:1019900092FD08C090910302981721F080930302F2
:1019A0000C94C40C089580910302882329F01092AE
:1019B000030280E00C94C40C0895E0910001F091C2
:1019C000010180910E028083E0910001F0910101FC
:1019D000808190910D02892B8083E0910001F0912C
:1019E0000101808190910C02892B808390910302E8
:1019F000992381F0E0910001F09101018081892B10
:101A0000808380910001909101010E94AB2181119E
:101A10000E94D30C80910001909101010C946621E9
:101A200008950C94100D9091520292FD10C098E010
:101A3000899F90011124622B609302020E94B808D2
:101A4000809102028595859585950C94110D0C94D5
:101A5000B8081092020280E00C94110D90910202DD
:101A60008095892380930202282F277039F4282F2C
:101A7000082E000C330B9217130621F4909152029A
:101A800092FF07C08595859585950E94C3080C94A3
:101A9000290D08956FEF7FEF90E080E00C942A2BE2
:101AA00090E080E00E94062B893E9E4F11F40C943A
:101AB0001C1C80E0089582E090E00C94F82A83E0FA
:101AC00090E00C94F82ACF9384E090E00E94F82AEA
:101AD000C82F82E290E00E94F82A982F8C2FCF9195
:101AE0000895CF93C92F682F84E090E00E940C2BBB
:101AF0006C2F82E290E0CF910C940C2BAB01BC01D7
:101B00008FE090E00C941E2BAB01BC0183E190E0D0
:101B10000C941E2B60E070E0CB010C94840D60E00F
:101B200070E0CB010E947E0D0C948A0D69EE7EEF71
:101B300090E080E00E942A2B60E082E090E00E942A
:101B40000C2B60E083E090E00E940C2B1092C90106
:101B500060E084E090E00E940C2B60E082E290E084
:101B60000E940C2B60E085E090E00E940C2B60E06E
:101B700086E090E00E940C2B6FEF87E090E00E94DF
:101B80000C2B40E050E0BA0188E090E00E941E2B50
:101B900060E08DE090E00E940C2B40E050E0BA0144
:101BA00088E190E00E941E2B60E087E190E00E94B7
:101BB0000C2B40E050E0BA018CE190E00E941E2B1B
:101BC00070E060E080E290E00E942A2B40E050E06C
:101BD000BA0188E190E00E941E2B80E00E94351C33
:101BE0000E945B1C0C948F0D0C94960D682F8EE058
:101BF00090E00C940C2B0E9492226093160270933A
:101C00001702809318029093190260931202709346
:101C100013028093140290931502089585B780688B
:101C200085BF85B7806885BF0895089508950C9491
:101C3000150E08950C94190E0E940E0E8EEA90E176
:101C40000E94F5220E94160E0C94170E81E0089552
:101C50000C94260E089508950E942A0E0C942B0EC3
:101C60000E947D220E946A1C0E9456110E94331A13
:101C70000C941A0EBF92CF92DF92EF92FF920F93C5
:101C80001F93CF93DF93CDB7DEB72A970FB6F894A3
:101C9000DEBF0FBECDBF0E94661181110E94FB0DF9
:101CA00090E1C92E92E0D92E10E000E0B02E802FF6
:101CB0000E94E810E82EF601F1906F01F81609F481
:101CC00053C080911A0281FD0E94EE108F2D8E2547
:101CD000F82FF170FF2E80FD45C081FF45C0DD2447
:101CE000D39482E0F82E0E94280E882399F0DE8299
:101CF000BF82EF2081E009F480E088870E9486227D
:101D00008160782F9A8789874E815F8168858A856F
:101D10000E94AE04F801E05FFD4F80818F25808333
:101D20000E94771A0E9451130E945A2190910F022B
:101D3000891771F10E945A2180930F022A960FB6DB
:101D4000F894DEBF0FBECDBFDF91CF911F910F91F1
:101D5000FF90EF90DF90CF90BF900C94A60401E02D
:101D600010E0A4CFD12CBFCF01301105C1F78FEF08
:101D700089838A831B820E9486228160782F9D83BB
:101D80008C8349815A816B818D810E94AE04C8CFBA
:101D90002A960FB6F894DEBF0FBECDBFDF91CF916C
:101DA0001F910F91FF90EF90DF90CF90BF9008951B
:101DB000CF93DF930E94D40FEC01811521E59207A8
:101DC00008F042C0811530E5930708F09DC0883EB9
:101DD000910530F5803E910508F092C0883A910552
:101DE00088F4853A910508F084C08130910509F4A2
:101DF00087C0009709F484C0049708F081C0D0E040
:101E0000C0E07EC08F3B9105D0F7C85AD0E0CC0F20
:101E1000DD1FC75ADE4F0990D881C02DD46470C031
:101E20008115904250F4C11581E0D80708F068C0D0
:101E3000C03FD10520F3D06563C0C11590E4D90738
:101E4000F0F2DF70D06A5CC0811525E5920700F5DD
:101E5000811534E5930708F08BC0811543E594079D
:101E600008F073C0C11582E5D80708F469C0CE0137
:101E70008370992721E030E002C0220F331F8A953A
:101E8000E2F7C695C69580E2C89FE001112454C0D0
:101E9000C11599E5D907A8F4C11528E5D20708F0BE
:101EA0006CC0C11536E5D30708F0A9CF8C2F0E946E
:101EB0006B10C82FD0E0DC2FCC27CC27DF71D0628D
:101EC0001FC0C1154AE5D40708F45CC0CE01905686
:101ED0008115904208F093CF8D2F8F710E946B1067
:101EE00090E0982F882788279F719C012C2BE9016F
:101EF000E6CFC55AD0E0C957DE4FC881D0E0D064E4
:101F0000CE01DF91CF910895E4E096958795EA950B
:101F1000E1F783702C2F26952695237040E2249FAD
:101F200090011124382B8C2F8370C1E0D0E002C0C7
:101F3000CC0FDD1F8A95E2F7C22BD32BDC68E0CFF4
:101F4000DC2FCC27C16FD06ADBCF8370992721E0CB
:101F500030E002C0220F331F8A95E2F7C695C6957E
:101F600090E2C99FE0011124C22BD32BDA68C8CFBD
:101F7000D82FCC27C46FD06AC3CFDC2FCC27C06F3B
:101F8000D06ABECF8C2F8F700E946B1034E0D69534
:101F9000C7953A95E1F7CF709C2FEC01D069B0CF8F
:101FA0000E94781E0C94D80E82389105B1F1B0F4DD
:101FB0008133910509F475C048F48932910509F41B
:101FC00069C08A32910509F473C00895853391057B
:101FD00009F459C08933910501F10895833E9105B3
:101FE000A9F138F4803E9105F9F0823E910549F15E
:101FF0000895863E9105A9F1873E9105C9F1843E79
:10200000910519F52091520221FF1FC080915102C4
:1020100084FD14C087EE90E0089520915102237052
:10202000A1F080EE90E008952091510220FD47C07C
:102030003091520230FF09C024FF44C090E080E09C
:1020400004C02091510222FDF7CF08952091510242
:1020500022FD3BC03091520230FDE3CF24FFF5CF8B
:10206000EDCF2091510223FFF0CF24FDE7CFD2CF57
:102070002091510223FD2CC03091520231FFEECF4E
:1020800084EE90E008952091510225FFDECF89E291
:1020900090E008952091510225FFD7CF85E390E08D
:1020A00008952091510226FFD0CF8AE290E0089552
:1020B0002091510226FFC9CF81E390E0089589E382
:1020C00090E0089583EE90E0089582EE90E0089508
:1020D00086EE90E008959091510292FF06C0282F5D
:1020E00028712830F9F4877F846093FF06C0282F79
:1020F00028712831F1F4877E84612091520220FFFB
:1021000006C0382F38713830D9F4877F816021FFBD
:1021100006C0282F28712831D1F4877E816194FD73
:10212000877E0895282F24712430F9F68B7F8860EC
:10213000DCCF282F2471243101F78B7E8861DDCF1D
:10214000382F3171313019F78E7F8860E0CF282F1A
:102150002171213121F78E7E8861E1CF80E00895E1
:102160000C944A0D0E9466118FE39CE90197F1F7E8
:1021700000C000000E94661180E00E94E81080FF0D
:1021800004C00E94B0100C94D12208950C94B21097
:102190000E94500D811102C00E94F40D0E945B0D3F
:1021A00080931A020E94630D909352028093510211
:1021B0000E94C6100E945F0D0E9492088091C80183
:1021C0000C94A50808950C94E21008950C94E51061
:1021D000E82FF0E0EB5AFD4F8081089508951F939A
:1021E000CF93DF932AE831E0C1E0D0E0D90150E09D
:1021F00040E002C041E050E08D918F3F91F0E82F28
:10220000E295EF70F0E011A18F70BE0101C0660F82
:102210008A95EAF7962F9095912391A382A1862B18
:1022200082A34130510531F72E5F3F4F81E02E38B8
:102230003807E1F6DF91CF911F910895FC0170E01E
:10224000AB01440F551FDA01A657BE4F8C9120E019
:102250008F3F81F0A82FA295AF70B0E090962C919F
:1022600030E08F7002C0359527958A95E2F720956A
:102270003095217046575E4FDA0111969C919F3F31
:1022800089F0A92FA295AF70B0E090964C9150E0E4
:102290009F7002C0559547959A95E2F782E040FD00
:1022A00080E0282BE60FF71F208308950E94EF108F
:1022B000A3E5B2E01C92E5E5F2E0108211961C92D3
:1022C000118282E00E949E110C9456031F93CF93BB
:1022D000DF9300D0CDB7DEB71A82198260E0CE015D
:1022E00001960E941E1161E0CE0101960E941E110E
:1022F00042E050E0BE016F5F7F4F83E592E00E94B5
:10230000EB2A11E0009709F410E0892B31F0898164
:102310009A819093540280935302212F42E065E505
:1023200072E083E592E00E949F110E945C03812F7E
:102330000F900F90DF91CF911F9108950895FF9214
:102340000F931F93CF93DF93F82E092F162FD72FBC
:10235000C42F222349F081E080931D020E9486222F
:1023600090931C0280931B0280911D028823A1F090
:1023700080911B0290911C020E949E22059760F0A2
:10238000EF2DF02FA12FBD2FCE0FDF2FD11DEC177A
:10239000FD0741F410921D02DF91CF911F910F9123
:1023A000FF90089581918D93F2CF0E94FE210E94AB
:1023B00088240E94A1240E94B3240E942C0EFBCFEB
:1023C0008091240280FF12C06091070185E0689F20
:1023D000B0011124759567957595679560387105FD
:1023E000A8F561157105A1F1862F089581FF09C037
:1023F0006091070185E0689FB0011124759567958C
:10240000EDCF6091070182FD0AC0809123028823ED
:10241000D1F09091060160910701891728F085E0BD
:10242000689FB0011124DACF869FB001112485E0A6
:10243000869F9001879F300D1124692F70E0C9019C
:102440000E946A2ACBCF65E070E0CECF8FE7089577
:1024500081E008958091240280FF0CC06091030107
:1024600070E075956795759567956115710549F1EA
:10247000862F089581FF06C06091030170E0759575
:102480006795F3CF6091030182FD0BC0909122020A
:102490009923A1F06091020180910301961738F011
:1024A000682F70E06038710500F38FE70895899F09
:1024B000C001112470E00E946A2AF4CF61E070E04C
:1024C000D7CF81E00895803F31F40E94E0118195DB
:1024D000809328020895813F19F40E94E011F8CFFB
:1024E000823F31F40E94E011819580932702089584
:1024F000833F19F40E94E011F8CF893F29F40E942C
:102500002A128093290208958A3F21F40E942A12F8
:102510008195F7CF8B3F31F40E942A1281958093E9
:102520002A0208958C3F19F40E942A12F8CF9CE0E9
:10253000980F953070F4845F990B21E030E001C072
:10254000220F8A95EAF780912602822B8093260239
:1025500008958D3F31F4809124028160809324029C
:1025600008958E3F21F4809124028260F7CF8F3F3F
:10257000B9F7809124028460F1CF40912702803F17
:1025800059F48091280287FF0DC010922802411152
:102590000BC01092230208C0813F81F48091280271
:1025A00018169CF3442381F08091290290912A020D
:1025B000892B09F05AC0109222020895823F49F4F3
:1025C00047FFF0CF10922702809128028111ECCFB3
:1025D000E0CF833F19F41416ACF3E4CF90912902B5
:1025E000893F29F41916F4F610922902DBCF8A3FAD
:1025F00019F497FFD7CFF8CF90912A028B3F29F497
:1026000097FFD0CF10922A02CDCF8C3F19F4191624
:10261000CCF3C8CF9CE0980F953090F4845F990B71
:1026200021E030E0B90102C0660F771F8A95E2F71A
:10263000CB01809590912602892380932602B2CF08
:102640008D3F31F4809124028E7F80932402AACFA3
:102650008E3F21F4809124028D7FF7CF8F3F09F0C8
:10266000A1CF809124028B7FF0CF08950E94862213
:102670009C019091270280912802982B21F03093A1
:102680002102209320029091290280912A02982B06
:1026900021F030931F0220931E0285E292E00C94F9
:1026A0007121EF92FF920F931F93CF93DF9300D08E
:1026B00000D000D0CDB7DEB786E0E5E2F2E0DE0183
:1026C000119601900D928A95E1F7E0902702F09023
:1026D00028020091290210912A02109227021092DA
:1026E00028021092290210922A028E2D8F2991F031
:1026F00080912002909121020E949E22AC01909133
:102700002302992309F43FC080910801841715061C
:1027100008F447C0802F812B91F080911E02909188
:102720001F020E949E22AC0190912202992309F47B
:1027300077C0809104018417150608F47FC080914A
:10274000270290912802892B90912902892B909140
:102750002A02892B11F00E94361386E0FE01319681
:10276000A5E2B2E001900D928A95E1F726960FB6A8
:10277000F894DEBF0FBECDBFDF91CF911F910F91B7
:10278000FF90EF900895209109018AE0289F900121
:1027900011242417350708F0BDCF9F5F90932302C3
:1027A00002C09F3FD1F7EE2059F00E94E0119FEF49
:1027B0001E140CF491E0899F802D11248093270230
:1027C000FF2059F00E94E0119FEF1F140CF491E0DC
:1027D000899F802D11248093280230912702332372
:1027E00009F498CF20912802222309F493CF45EBD6
:1027F0003403C0011124992359F09093270245EB2B
:10280000240390011124332339F03093280282CF1E
:1028100081E080932702F3CF81E0809328027ACF72
:10282000209105018AE0289F900111242417350783
:1028300008F085CF9F5F9093220202C09F3FD1F79F
:10284000002359F00E942A129FEF10160CF491E019
:10285000899F802D112480932902112359F00E9411
:102860002A129FEF11160CF491E0899F802D1124FC
:1028700080932A0230912902332309F460CF2091FA
:102880002A02222309F45BCF45EB3403C001112453
:10289000992359F09093290245EB240390011124C8
:1028A000332339F030932A024ACF81E08093290202
:1028B000F3CF81E080932A0242CF86E0E5E2F2E0A6
:1028C000DF011D928A95E9F71092230210922202ED
:1028D000109224020895EF92FF920F931F93CF93CB
:1028E000DF93EB01E82FD11110C0442321F0F0E079
:1028F000E956FD4FE4916E2F7E2F8E2FDF91CF9101
:102900001F910F91FF90EF9008950D2F10E0282F49
:1029100030E0442329F029563D4FF901249130E05D
:10292000F6E0CF9FC0011124EFEFF0E0BF010E945D
:10293000562AAB018C2F90E0880F991FA5E5A49F24
:10294000B001A59F700D1124861B970B982F990F2E
:10295000980FBF01601B710B629FD001639FB00D88
:10296000729FB00D11248B2F9D9FB0011124672FF2
:102970007727EF01C61BD70BBE01629FE001639F63
:10298000D00D729FD00D11247F01E91AF108E09E4D
:10299000B001E19E700DF09E700D1124672F772716
:1029A000E61BF70BE29F8001E39F100DF29F100DD5
:1029B0001124E12F722F4230510599F048F441154E
:1029C000510569F04130510581F0EB2F8D2F07C083
:1029D0004430510569F080F046305105B1F76E2F53
:1029E0008DCFE22F7B2F812FFACFE22F7D2FF7CFD4
:1029F000EB2F822F712FF3CF7B2F822FED2FEFCF75
:102A000041E00C946B1408950C940015CF93DF9360
:102A1000762FE901682F842F0E940415798368833B
:102A20008A83DF91CF91089580915702982F9E7FDE
:102A300029F4817082608093570208958A34E8F304
:102A400081708864F8CF88E090E00C94002BCF92DE
:102A5000DF92EF92FF926B017C010E941415B70187
:102A6000A60188E090E0FF90EF90DF90CF900C946B
:102A70001E2B6091570270915802809159029091DB
:102A80005A020C942715E7E5F2E083E08083118277
:102A90008FEF82838383148260817181828193812D
:102AA0000C9427158091570280FF02C086950895E7
:102AB00080E0089590915B02933018F49F5F9093AB
:102AC0005B02882351F06091570270915802809107
:102AD000590290915A020C942715089581E00C94A4
:102AE0005A1590915B02992319F0915090935B02D3
:102AF000882351F0609157027091580280915902D9
:102B000090915A020C942715089581E00C94711548
:102B100080915B02089580935B02662351F060917F
:102B20005702709158028091590290915A020C9468
:102B30002715089560E00C948B1580915802089534
:102B400080915902089580915A02089570E00C9482
:102B5000F01BCF92DF92EF920F931F93CF93DF93EF
:102B6000CDB7DEB72C970FB6F894DEBF0FBECDBF42
:102B700060910E018091570280FF36C0E3E9F2E0D8
:102B80009E012F5F3F4F8E01035F1F4FC901A4912C
:102B90004A2F50E0DA01AA0FBB1FA40FB51FA45A99
:102BA000BD4FCD90DD90EC90D901CD92DD92ED92AC
:102BB0009D013196A017B10751F720910D01B3E0A7
:102BC0002B9F800D911D11240E94A6152C960FB6E7
:102BD000F894DEBF0FBECDBFDF91CF911F910F9153
:102BE000EF90DF90CF90089580910F0190911001A8
:102BF00023E0829FF0011124E45AFD4F891708F069
:102C0000BDCF1182108212828F5F3396F7CF9091E1
:102C1000570290FF14C090910F012091100133E0F2
:102C2000939FF0011124E45AFD4F921710F00C9479
:102C3000A9158183608342839F5F3396F6CF089501
:102C4000CF93DF9300D00F92CDB7DEB790915702AC
:102C500090FF0AC09E012F5F3F4F0E9406154B81D7
:102C600069818A810E9407160F900F900F90DF9163
:102C7000CF910895CF93DF93EC01EC81F0E0E25720
:102C8000FE4F4491E7E5F2E0628181810E942016C7
:102C90008C818F5F8C83DF91CF910895CF93DF93E9
:102CA000EC01E7E5F2E0438162818C810E9420160D
:102CB0008C818F5F8C83DF91CF9108950F931F9349
:102CC000CF93DF9300D00F92CDB7DEB78C01809108
:102CD0002B0281110AC09E012F5F3F4F4FEF6FEF14
:102CE0000E9406158A8180932B02F801648161306D
:102CF00069F080912B0240E0662361F040E0623091
:102D000011F440912B0280E060E004C060912B023E
:102D100040E080E00E940716F801848190E001966F
:102D200063E070E00E946A2A84830F900F900F90F6
:102D3000DF91CF911F910F910895AF92BF92CF92E3
:102D4000DF92EF92FF920F931F93CF93DF9300D008
:102D50000F92CDB7DEB7182FF62E042FE22E9091EA
:102D6000570290FF29C0E92FE695AE2FB0E0A25799
:102D7000BE4F8C91809337029E7F923059F59E0111
:102D80002F5F3F4F812F0E9406154B8169818A81F9
:102D90000E94071610935802F092590200935A02AB
:102DA000EE2051F0609157027091580280915902C3
:102DB00090915A020E9427150F900F900F90DF916B
:102DC000CF911F910F91FF90EF90DF90CF90BF9028
:102DD000AF900895823019F400915A02DBCF86300B
:102DE00019F410915802D6CF8930D9F3893191F670
:102DF000E9518E2F8170D82EE695F0E0E257FD4F15
:102E0000A590B490C12CBB2460911101C61618F096
:102E10000E94A915BFCF2C2D30E0A29EC001A39E19
:102E2000900DB29E900D112470E00E94562A812FC1
:102E3000D11013C0860F40910F01420F532F511D27
:102E40009A01220F331F240F351F245A3D4F402F64
:102E50006F2D0E940615C394D7CF861BECCFE7E5F4
:102E6000F2E09181282F4381628188E0890F0C94E0
:102E70009D1681E00C942F17E7E5F2E09181282F51
:102E80004381628188EF890F0C949D1681E00C9438
:102E90003C17E7E5F2E0628128E0620F08F46FEF8B
:102EA000282F438181810C949D1681E00C94491751
:102EB000E7E5F2E0628128E0621B08F460E0282F79
:102EC000438181810C949D1681E00C945817E7E5AD
:102ED000F2E0438128E0420F08F44FEF282F62818F
:102EE00081810C949D1681E00C946717E7E5F2E070
:102EF000438128E0421B08F440E0282F6281818151
:102F00000C949D1681E00C94761720E00C949D168D
:102F1000EF92FF921F93CF93DF93EC0110E0EE242A
:102F2000EA94F12C60911101161770F00E94A91516
:102F30009A818C8190FF27C08F5F8C83DF91CF9126
:102F40001F91FF90EF90089520910F01422F410FA4
:102F50005527551FCA019A01220F331F280F391F09
:102F6000245A3D4F70E0C7010E946A2A962F8C8137
:102F700040915A0260915902199F800D11240E94BC
:102F800006151F5FCFCF8150D8CFBF92CF92DF926F
:102F9000EF92FF920F931F93CF93DF93FC018281F7
:102FA0000FEF80FF01E010E0809111011817C0F0D1
:102FB0000E94A91580912D02013009F051C08111A4
:102FC00002C080911101815080932D02DF91CF9139
:102FD0001F910F91FF90EF90DF90CF90BF900895D9
:102FE000C0910F01C12ED12CCC0DDD2DD11DCE01F4
:102FF000880F991FC80FD91FC45ADD4F1982188234
:103000001A8234E0E32EF12CB12C80912D028B0D2D
:10301000853004F18370082E000C990BC816D90670
:1030200091F480915A028E9DA0018F9D500D112424
:1030300055954795559547959E0160915902809108
:1030400058020E940615B00EF1E0EF1AF108E9F6F9
:103050001F5FAACF87FFDFCF90911101890FDBCFD0
:1030600090E001966091110170E00E946A2AACCF55
:103070000F931F93CF93DF9380910F0190911001D5
:1030800023E0829FF0011124E45AFD4F891740F19B
:10309000C0E0D3E060911101C61740F10E94A9156C
:1030A00020910B0180912C02820F80932C02909131
:1030B0000C01920F90930C01191654F4082E000C79
:1030C000990B409111014150550B841795071CF045
:1030D000219520930B01DF91CF911F910F910895BE
:1030E0001182108212828F5F3396D0CF0C2F10E0A6
:1030F00070E0C8010E946A2A20910F01820F482FB8
:1031000050E020912C02022E000C330B0217130703
:10311000BCF020910C01022E000C330B201731075C
:103120007CF08D9F90011124245A3D4F40915A020A
:1031300060915902809158020E940615CF5FAACF74
:10314000FA01EE0FFF1FE40FF51FE45AFD4F118245
:1031500010821282F3CF8F929F92AF92BF92CF9242
:10316000DF92EF92FF920F931F93CF93DF93EC01C7
:103170004C81042F10E09801D8010E94B52A9B01D0
:10318000AC010E94CB2A4B015C01E0E2F0E0E01BC5
:10319000F10BA5E5B0E0AC019B010E94CB2A6B01CD
:1031A0007C019F01DF010E94AD2A9B01AC010E94BE
:1031B000D62A9B01AC01280D391D4A1D5B1DC70194
:1031C000B6010E947E2AF22E822F90E039E23F154E
:1031D00060F143E0249F9001112435952795122F2B
:1031E000109500E085E5E82EEF1880911101081791
:1031F00058F10E94A9159C8181E0992319F0903221
:1032000019F48FEF80930A0180910A01890F8C8352
:10321000DF91CF911F910F91FF90EF90DF90CF90B2
:10322000BF90AF909F908F90089525E530E0B90151
:10323000681B790B9B01220F331F260F371F37FFA7
:10324000CCCF2F5F3F4FC9CF8E2D01FD8F2D209109
:103250000F01622F600F7727771F9B01220F331F0B
:10326000260F371F245A3D4F412F609159020E946B
:1032700006150F5FBACF0F931F93CF93DF93EC0127
:1032800010E000E0909111019017110609F06CF424
:103290000E94A9158C8190E00196817099278C83FA
:1032A000DF91CF911F910F91089520910F01A801F7
:1032B000420F511D9A01220F331F240F351F245A2C
:1032C0003D4F4C816091590280915802969590171C
:1032D000110651F04CF0442349F040915A020E94EB
:1032E00006150F5F1F4FCECF4423B9F340E0F7CF51
:1032F000E7E5F2E080818E7F808360817181828149
:1033000093810E942715109238022FEF80E792E0F8
:10331000215080409040E1F700C000000C94A915B6
:10332000E7E5F2E080818E7F8083109238022FEFF4
:1033300080E792E0215080409040E1F700C000001B
:103340000C94A915109238028091350281110AC09F
:1033500081E080933502809157028170809334021E
:103360000C949019089560915702669570E04BE0B7
:1033700050E082E191E00E94DE2A892B19F481E07D
:10338000809338020E94862290932F0280932E020F
:1033900008959091570290FF35C09170811128C017
:1033A000926090935702662351F06091570270919A
:1033B00058028091590290915A020E9427156091FB
:1033C0005702669570E04BE050E082E191E00E9488
:1033D000DE2A892BA1F01092380281E0809331021D
:1033E00040915A0260915902809158020C948517BD
:1033F000853210F09864D5CF880F982BD2CF0E94D9
:10340000B319EBCF0895682F90915702969581E0FC
:10341000890F853208F081E00C94C91981E00C9481
:10342000031A682F9091570296958FEF890F09F430
:1034300084E20C94C91981E00C94111A61E00C9497
:10344000C919E7E5F2E080818160808386950C945C
:103450001E1A8091570280FD0C9478190C94211A41
:1034600060E00C94C9198091360281112EC00E942F
:10347000500D811104C00E94F40D0E9443150E945A
:1034800023156093570270935802809359029093CA
:103490005A026E7F61F40E9443150E9423156093C7
:1034A0005702709358028093590290935A020E94D7
:1034B0001415109238028091570280FF03C0869540
:1034C0000E94301A81E0809336020895E7E5F2E029
:1034D00080818160808386950C94301A1092350229
:1034E0008091340281110E94661A0C94B3190F93D3
:1034F0001F93CF93DF9380913802882309F486C00D
:1035000080913702E0915702E695E81BE093300284
:10351000823091F5F0E0E657FE4FE491CE2FD0E0F7
:103520000AE316E180913102882361F010923102A2
:103530000E94862290932F0280932E0210923302D3
:10354000109232020E948622E0912E02F0912F0208
:103550008E1B9F0B8F3F9F4708F058C0EC0FFD1F3D
:10356000F0932F02E0932E028EE292E0F801DF91B9
:10357000CF911F910F910994863049F4F0E0E957FB
:10358000FE4FE491CE2FD0E00EE416E1CBCF893090
:1035900051F4E695F0E0EC57FE4FE491CE2FD0E0E9
:1035A00008E817E1BFCF8F3051F4E695F0E0EF5710
:1035B000FE4FE491CE2FD0E005EC17E1B3CF85317B
:1035C00049F4F0E0E258FE4FE491CE2FD0E008E35A
:1035D00018E1A8CFC8E2D0E00BEA18E1883109F47D
:1035E000A1CF833239F4ECE7F1E0C591D4910EE537
:1035F00016E198CFC4EFD1E00BE319E1843209F46E
:1036000091CFC0EDD7E003E015E18CCFDF91CF91F2
:103610001F910F910895FA01811101C0FB010994D6
:10362000CF93DF93C82FD62F0E9452158C1740F0EE
:103630000E9452158D1720F4DF91CF910C940E1A31
:103640008C2FDF91CF910C941E1A1F93CF93DF9391
:10365000EC01FB011281112309F4C0C00E949A0CF5
:103660008272CC3CFCE5DF0709F49CC008F044C042
:10367000C63CECE5DE0709F481C0F0F4C33C9CE5F0
:10368000D90709F471C048F4C23CDC4509F469C0AB
:10369000812FDF91CF911F910895C43C9CE5D907FC
:1036A00009F467C046E457E169E377E1C53CDC45CE
:1036B00079F70E940B1B53C0C93CFCE5DF0709F4F6
:1036C00067C068F4C73CECE5DE0709F45CC045E57B
:1036D00057E164E677E1C83CDC4559F3D9CFCA3CF1
:1036E0009CE5D90709F459C045E855E16EE675E156
:1036F000CB3CDC45F1F2CCCFC13DFCE5DF0709F462
:1037000062C098F4CE3C9CE5D90709F454C008F493
:103710004EC0CF3CFCE5DF0709F452C0C03DDC459C
:1037200009F0B6CF6EE089E048C0C43D9CE5D907FA
:1037300009F44FC058F4C23DFCE5DF0709F446C068
:10374000C33DDC4509F0A4CF88E132C0C53D9CE50E
:10375000D90709F441C0CD35DD4509F099CF10E016
:1037600097CF0E94291AFBCF4BE15AE16EE07AE134
:10377000A0CF4EE05AE16BE17AE19BCF49E357E1FC
:1037800066E477E196CF44E657E165E577E191CFCE
:1037900042E857E163E777E18CCF43E757E162E81E
:1037A00077E187CF4EE655E165E875E182CF81E0AC
:1037B0000E941E1AD4CF65E082E00E94101BCFCF7A
:1037C00068E086E0FACF64E18FE0F7CF67E185E15A
:1037D000F4CF62E289E1F1CF83E2EACF11E058CF82
:1037E0003E9A48B14F7B58B15064EFB7F8949B01B3
:1037F000220F331F260F371F280F391F28173907AD
:1038000041F4EFBF8FE594E00197F1F700C00000AD
:103810000895DC016D91CD0178E058B9000000C039
:1038200067FF48B9660F000000C000C000C048B97B
:1038300000C07A9591F7E2CF83E290E00E94F82AE7
:10384000813289F484E290E00E94F82A813159F4AF
:1038500085E290E00E94F82A91E0883109F090E03A
:10386000892F8170089580E0FCCFCF93C82F6FEF30
:10387000811161E283E290E00E940C2B6FEFC11195
:1038800061E184E290E00E940C2B6FEFC11168E1CE
:1038900085E290E0CF910C940C2B089586E290E0A5
:1038A0000E94F82A682F70E090E080E0089586E298
:1038B00090E00C940C2B80E00E94351C60E070E0DE
:1038C000CB010E94571C0E94F91D0E94DC1E81E062
:1038D0000C94351C0E944D1C0E941C1C811102C0BE
:1038E0000C945B1C0895CF93FB01C281CC2309F19A
:1038F0009C0122513F452031310520F582510E9423
:10390000EC1EC0E08C2FCF91089581E00E94B80892
:1039100043E062E081E00E944D03F3CF81E00E942A
:10392000C30843E062E081E00E944D03EBCF82E0F8
:10393000F6CF8031FFE59F0789F381319F45B9F3C9
:10394000C1E0E0CF8031EFE59E07F9F281319F457C
:10395000C9F682E0DBCF2FEFFC0120830895CF93DF
:10396000DF93EC0188818138A9F028F4803871F068
:10397000DF91CF910895823881F08338C9F70E9492
:103980009D1589830E94A0158A83F2CF0E94A315FA
:103990008983EECF0E945215FBCF0E948815F8CF85
:1039A000CF93DF93EC0188818138E1F028F48038EF
:1039B00069F0DF91CF910895823811F18338C9F70A
:1039C0000E94A315482F6A81898108C0D9810E946D
:1039D000A015C82F0E949D154D2F6C2FDF91CF9100
:1039E0000C94851789810E94301A8981811104C045
:1039F000DF91CF910C949019DF91CF910C94661ABE
:103A00008981DF91CF910C949A151F93CF93DF9307
:103A1000EC01162FDC01ED91CD01E150E33108F00E
:103A2000A4C0F0E0E45AF44D0C94A02A198289E075
:103A30008A83612FCE01DF91CF911F910C947D235A
:103A400089818230B1F0833059F08130A9F40E942D
:103A500092220E94A62A6A837B838C839D83E9CF6E
:103A600080E00E94E8108A8381E00E94E8108B8346
:103A7000E0CF0E944E1CEDCF612FCE010E94AB1C07
:103A8000D8CF89818230C1F76A817B818C819D8109
:103A90000E94A62A0E94571CCCCF4B816A81898143
:103AA0000E94CB1D9827892798279D838C83C1CF9F
:103AB0002C813D813227232732274B816A818981DE
:103AC0000E94E41DB6CF0E94F91DB3CF0E94D01C06
:103AD000B0CF0E94AF1CADCF0E943915AACF0E9473
:103AE000851E8983A6CF0E94871E9827892798273D
:103AF0009A8389839ECF6B8170E089819A81AE0120
:103B00004C5F5F4F9827892798270E948A1E91CF84
:103B10006B8170E089819A81AE014C5F5F4F98277D
:103B2000892798270E94B11E84CF0E94DC1E81CF76
:103B30000E94B81DD6CF6B8170E089819A81AE0159
:103B40004C5F5F4F9827892798270E942A1E71CFC4
:103B50006B8170E089819A81AE014C5F5F4F98273D
:103B6000892798270E944F1E64CF8FEF888361CFEB
:103B700084E0089524E0629FB001112450E0440FD6
:103B8000551F640F751F28E0829FC0011124860F06
:103B9000971F879608950F931F93CF93DF930E94EB
:103BA000BA1D8C010E94F82AC82FD0E0DC2FCC2748
:103BB000C80101960E94F82A9E01282BC901DF91B5
:103BC000CF911F910F9108950F931F93CF93DF9380
:103BD000122F032F0E94BA1DEC01602F0E940C2BA4
:103BE000612FCE010196DF91CF911F910F910C941F
:103BF0000C2BEF92FF920F931F93CF93DF938CEADE
:103C0000E82E80E0F82EC0E08701D0E001C0D1E0CE
:103C1000F8012591349140E06D2F8C2F0E94E41D16
:103C2000F80132962591349141E06D2F8C2F0E943E
:103C3000E41D0C5F1F4FD13051F788E0E80EF11CF6
:103C4000CF5FC43009F7DF91CF911F910F91FF90A3
:103C5000EF900895EF92FF920F931F93CF93DF930E
:103C6000EC018A017C01E60EF71ECE018796CE1587
:103C7000DF0539F4DF91CF911F910F91FF90EF9005
:103C80000895C032D10540F40E94F82AF8018083DB
:103C90000F5F1F4F2196E9CFF8011082F9CFCF9225
:103CA000DF92EF92FF920F931F93CF93DF937C01EC
:103CB0006A018C01060F171FEC01CE018796C01711
:103CC000D10749F4DF91CF911F910F91FF90EF90B1
:103CD000DF90CF900895C032D10540F4FE01EE1977
:103CE000FF09EC0DFD1D60810E940C2B2196E5CF94
:103CF000462F843038F4723028F4623018F4672F7D
:103D00000C94CB1D90E080E0089580E1089589EB4C
:103D100093E00895EF92FF920F931F93CF93DF9359
:103D2000EC018A017C01E60EF71ECE01895B9F4FF4
:103D3000CE15DF0539F4DF91CF911F910F91FF90E0
:103D4000EF900895C93B23E0D20740F40E94F82A7F
:103D5000F80180830F5F1F4F2196E7CFF801108293
:103D6000F9CFCF92DF92EF92FF920F931F93CF93F1
:103D7000DF937C016A018C01060F171FEC01CE0155
:103D8000895B9F4FC017D10749F4DF91CF911F91F5
:103D90000F91FF90EF90DF90CF900895C93B23E003
:103DA000D20740F4FE01EE19FF09EC0DFD1D608104
:103DB0000E940C2B2196E3CFCF93DF93C7E4D0E092
:103DC00060E0CE010E940C2B2196C11584E0D8073B
:103DD000B9F7DF91CF910895DF92EF92FF920F93A1
:103DE0001F93CF93DF9300D000D0CDB7DEB7F82E6E
:103DF0008FE08F1540F08FEF93E00E94F82A07E4E0
:103E000010E08823C1F00F900F900F900F90DF917A
:103E1000CF911F910F91FF90EF90DF9008950115C2
:103E200084E0180781F3C8010E94F82A811101C0BB
:103E3000FA940F5F1F4FF110F2CF19821A821B8282
:103E40001C82DD24D39478018FEFE81AF80AC801A8
:103E50000E94F82A89831A828823A9F29FEF980F7B
:103E6000933078F48A83D9820E5F1F4FC7010E9476
:103E7000F82A8B83882339F2CE0101960E949B0495
:103E8000E2CF8701F9CF0F931F93CF93DF93C42F16
:103E9000D22FFC0182818823C9F040933B020E940B
:103EA000862290933A028093390280E28C0F883008
:103EB00008F050C0C77081E001C0880FCA95EAF7CA
:103EC000DF91CF911F910F910C94F80510913B0257
:103ED000141335C08091390290913A020E949E22BB
:103EE000883C910560F5C0E2CD0F1D17B9F080E266
:103EF000810F883040F4177081E001C0880F1A9557
:103F0000EAF70E94FF05C83048F481E09D2F9770C2
:103F100001C0880F9A95EAF70E94F805802F0E9449
:103F2000F005C830B8F4D77081E001C0880FDA9589
:103F3000EAF7DF91CF911F910F910C94FF0580E27A
:103F40008C0F883038F4C77081E001C0880FCA95A3
:103F5000EAF7EFCFDF91CF911F910F9108950F9363
:103F60009C01CB01233F4CE5340759F1A8F4283DCF
:103F7000FCE53F0701F1293D4CE53407D1F1273D30
:103F80003C4591F406E221EE41EE67ED7CE50E94AE
:103F9000431F80E00F910895253FFCE53F07E9F0BE
:103FA000B0F0263F3C45F9F0FC018281882339F1CD
:103FB00010923B02EFCF07E225EE45EE68ED7CE57F
:103FC000E6CF06E221EE40EE63EF7CE5E0CF07E2CC
:103FD00025EE44EE64EF7CE5DACF06E221EE42EE18
:103FE00065EF7CE5D4CF07E225EE46EE66EF7CE593
:103FF000CECF08E221E045EE69ED7CE5C8CF81E057
:10400000C9CFCF93DF93EC01FB018281882309F4B0
:1040100020C1C330FDE5DF07C8F5CA3F9CE5D907DD
:1040200030F49E0122503C452431310598F50E9420
:10403000630D9093520280935102C031FCE5DF077B
:1040400009F4E0C008F061C0C8309CE5D90709F464
:10405000CBC088F5C430FCE5DF0709F4B3C0E8F451
:10406000C2309CE5D90709F4A7C080915102826053
:10407000C330DC4509F4A3C08091510290915202F3
:104080000E94710D0E943F0880E004C0C136EDE53A
:10409000DE0769F2DF91CF9108958091510280612E
:1040A000C630FCE5DF0709F48AC008F48FC08091B0
:1040B0005102806284C0809151028D7FCC309CE59A
:1040C000D90709F47CC070F4809151028C60CA3029
:1040D000FCE5DF0709F473C008F48AC0809151023F
:1040E0008E7F6DC080915102877FCE309CE5D907CD
:1040F00009F465C0809151028B7FCF30DC4508F414
:104100005EC0809151028F7E5AC0CC3FFCE5DF0734
:1041100009F474C040F5C4319CE5D90709F48AC09C
:1041200058F4C231FCE5DF0709F474C008F46EC02E
:1041300080915102837F43C0CA3F9CE5D90709F4AF
:1041400049C008F04DC0C531DC4509F095CF8091DC
:10415000510282FB992790F921E0922790FB82F986
:1041600090FB83F92CC0C1158DE5D80709F458C020
:1041700088F4809152028360CE3FECE5DE0769F15E
:10418000809152028D7FCF3FDC4538F18091520201
:104190008C7F23C0C2308DE5D80709F458C008F4DD
:1041A00052C0C136DD4509F067CF90915102892F89
:1041B0008F7E94FF806103C0809151028160809363
:1041C00051025ACF809151028460F9CF80915102FF
:1041D0008860F5CF809152028160809352024CCF6B
:1041E000809152028260F9CF809151028064E7CFC2
:1041F0000E943F08809151028068E1CF8091520275
:104200008E7FEBCF809151028F7DD9CF809151026B
:104210008F7BD5CF0E943F08809151028F77CFCFFF
:1042200080915202982F909591708E7F892B90FBF0
:1042300081F9D3CF0E943F0890915102892F97FBBB
:1042400087F98058BCCF81E00E94F60D15CF80E041
:10425000FBCF81E01FCFCF93DF93EB0186319C45ED
:1042600011F50E949A0C9A81992399F08A7A91E02B
:1042700009F490E090933C02811109C089E20E9408
:10428000540C0E94DD0C80E0DF91CF91089585E30E
:10429000F6CF80913C02811104C089E20E945B0C40
:1042A000F0CF85E3FBCF81E0EFCF90934202809384
:1042B00041020895E0914102F0914202309721F0CD
:1042C0000190F081E02D099480E00895E091410291
:1042D000F0914202309721F00280F381E02D0994A1
:1042E0000895E0914102F0914202309739F022E0C6
:1042F000DC012C930480F581E02D09940895209130
:104300003F02309140022817390771F09093400224
:1043100080933F02E0914102F0914202309721F0F8
:104320000680F781E02D0994089520913D02309197
:104330003E022817390771F090933E0280933D02A8
:10434000E0914102F0914202309721F00084F18522
:10435000E02D099408959C012E5F3F4FAC01485F0A
:104360005F4F80E02417350709F40895F901919112
:104370009F019923B9F38F5FF5CF662349F0FC01C4
:10438000329608962191261729F0E817F907D1F7F8
:1043900080E0089581E008959C01FC0132969FEF32
:1043A00080E04191461751F09F3F19F4411101C03F
:1043B000982F8F5F8630A9F79F3F09F40895290F42
:1043C000311D97FD3A95F90162830895FC013296FB
:1043D00008962191261303C0DF0111971C92E8175C
:1043E000F907B9F708950C94CC210C94E6210296B4
:1043F00026E0FC0111922A95E9F7089508950895A1
:1044000008950C94002280917002843059F10E942A
:10441000012280E00E94A6040E94A2191092430289
:1044200088E190E020E40FB6F894A89580936000AE
:104430000FBE2093600083B7817F846083BF83B702
:10444000816083BF7894889583B78E7F83BF0FB6D2
:10445000F894A89580916000886180936000109224
:1044600060000FBE089508950E94FF210E9466110A
:104470000E94332280E00E94E81091E0811107C081
:1044800081E00E94E81091E0811101C090E0892F45
:10449000089508950C9449220E943F080E945A21D1
:1044A0000E94A6040E946E1A0C944A221F921FB604
:1044B0001F9211248F939F93AF93BF9380914302D8
:1044C000811113C08091680290916902A0916A02E3
:1044D000B0916B024196A11DB11D8093680290932B
:1044E0006902A0936A02B0936B02BF91AF919F9152
:1044F0008F911F901FBE1F90189582E084BD93E09E
:1045000095BD9AEF97BD80936E0008952FB7F894EC
:104510008091680290916902A0916A02B0916B0249
:104520002FBF08952FB7F8946091680270916902C7
:1045300080916A0290916B022FBF08959C014FB742
:10454000F8948091680290916902A0916A02B091FA
:104550006B024FBF821B930B089578941F921FB676
:104560001F9211248F939F93AF93BF938091680202
:1045700090916902A0916A02B0916B020196A11D0F
:10458000B11D8093680290936902A0936A02B09370
:104590006B02BF91AF919F918F911F901FBE1F9093
:1045A000189581E08093E00080E28093D80010921B
:1045B000C9008FE19EE40197F1F700C0000087E099
:1045C00090EBDC018093790290937A02A0937B02B6
:1045D000B0937C0288E19CE00FB6F894A895809394
:1045E00060000FBE90936000FFCF9093C301809353
:1045F000C201089580914F02089590917002943005
:1046000029F580934402709346026093450290938B
:10461000E9008FEF9091E800815095FD06C095ED7F
:104620009A95F1F700008111F5CF8091E80085FFA0
:104630000DC050E040E063E070E084E492E00E944E
:1046400076258091E8008E778093E8000895BC017C
:1046500084E00C94FD22BC0183E00C94FD229C01BB
:1046600084E08093E9009FEF8091E800915085FD00
:1046700006C085ED8A95F1F700009111F5CF809184
:10468000E80085FF0CC050E040E066E070E0C90142
:104690000E9476258091E8008E778093E800089547
:1046A000CF93DF93EC0181E08093E9008FEF90914D
:1046B000E800815095FD06C095ED9A95F1F7000050
:1046C0008111F5CF8091E80085FF14C050E040E0F3
:1046D00068E070E0CE010E9476258091E8008E7738
:1046E0008093E80088E0FE01A7E4B2E001900D921B
:1046F0008A95E1F7DF91CF910895CF93FC01603265
:1047000021F580917002843001F5C091E900CF70ED
:104710002091EC00922F917020FD90E8C92B82E04F
:104720008093E9008091E80080FF0CC050E040E0F9
:1047300060E270E0CF010E9476258091E8008E77DC
:104740008093E800CF70C093E900CF9108958091E5
:104750006F02811109C00E9455270E94B2278091E3
:10476000E20084608093E200089510926F02089541
:1047700008950895089542E061EC81E00E94D126F9
:1047800042E261EC84E00E94D12642E261EC82E0E8
:104790000E94D12642E260EC83E00C94D126809105
:1047A0007202833009F461C030F48130D1F182307B
:1047B00009F49DC008958A3009F489C08B3009F44A
:1047C0006FC0893009F050C080917102813209F0C8
:1047D0004BC08091750290917602009719F0029774
:1047E00009F042C08091E800877F8093E8008091C3
:1047F000E80082FF35C09091F3008091F2000297AB
:1048000029F48091F1008B7F813021F48091F100B7
:1048100080934F028091E8008B778093E8000C949E
:10482000052780917102813AF9F48091E800877F31
:104830008093E8008091750290917602892B61F453
:1048400068E087E492E070E00E9414268091E8001E
:104850008B778093E800089560E090E080E0F3CFEC
:10486000809170028111C3CF089580917102813AC5
:10487000D9F78091750290917602892BA9F78091E2
:10488000E800877F8093E8008091E80080FFFCCFFC
:10489000809127018093F1008091E8008E77BDCF51
:1048A00080917102813201F78091750290917602B8
:1048B000892BD1F68091E800877F8093E8000E94E1
:1048C000052780917302809327010C943F08809103
:1048D0007102813249F68091E800877F8093E80079
:1048E0000E94052780917402809350020895809160
:1048F0007102813A09F0B8CF8091E800877F8093F8
:10490000E8008091E80080FFFCCF80915002C2CF88
:1049100084B7877F84BF0FB6F894A8958091600014
:10492000886180936000109260000FBE80E890E084
:104930000FB6F89480936100909361000FBE0C94C1
:104940001C0E0E9455270E94B227E2EEF0E0808103
:104950008460808378940E943B2A0E94300E8DE10F
:1049600091E00C945521CF93DF93CDB7DEB7A0979C
:104970000FB6F894DEBF0FBECDBF809170028530B8
:1049800031F480917002853091F10E944C220E9496
:104990003A0E80917002843009F583E08093E9003B
:1049A0008091E80082FF1AC08091E80090E085FFC6
:1049B00009C050E040E060E270E0CE0101960E9444
:1049C000C52591E08091E8008B778093E8009923DA
:1049D00029F060E2CE0101960E94051DA0960FB657
:1049E000F894DEBF0FBECDBFDF91CF9108950E9436
:1049F000032280916E02882321F20E9434228823B0
:104A000009F4BFCF0E9460250E943F08BACF0C94E2
:104A10000925292F33272330310521F168F421306E
:104A2000310509F443C02230310509F444C090E057
:104A300080E030E020E026C02132310551F1223201
:104A40003105A9F76330710590F7FB01EE0FFF1FE9
:104A5000EA54FE4F208131816D547E4FFB018081ED
:104A600090E010C099278130910581F0009729F0DE
:104A70000297E9F6E7E9F3E002C0EBEDF3E0849199
:104A800090E09F01FA01318320830895E9EBF3E080
:104A9000F6CF6330710558F6660F771FFB01E454BB
:104AA000FE4F2081318189E090E0ECCF82E190E0FF
:104AB0002AE334E0E7CF8BE590E02FED33E0E2CF5F
:104AC00080E189BD82E189BD09B400FEFDCF8091FE
:104AD000D8008F7D8093D8008091E0008260809321
:104AE000E0008091E00081FDFCCF0895AF92BF927D
:104AF000CF92DF92FF920F931F93CF93DF936C01BE
:104B0000EB018A010E942427F82E811123C0011590
:104B1000110539F0F80180819181C81BD90BC80EAD
:104B2000D91EB12CA12C2097A9F08091E80085FD19
:104B300022C08091E8008E778093E800011511056E
:104B4000A1F0F80180819181A80EB91EB182A082E6
:104B500085E0F82E8F2DDF91CF911F910F91FF905F
:104B6000DF90CF90BF90AF9008950E9424278823B4
:104B7000D1F2F82EEFCFF60181916F018093F10011
:104B80002197FFEFAF1ABF0ACECFAF92BF92CF925D
:104B9000DF92FF920F931F93CF93DF936C01EB0192
:104BA0008A010E942427F82E811123C001151105C6
:104BB00039F0F80180819181C81BD90BC80ED91E2C
:104BC000B12CA12C2097A9F08091E80085FD22C08E
:104BD0008091E8008B778093E80001151105A1F022
:104BE000F80180819181A80EB91EB182A08285E072
:104BF000F82E8F2DDF91CF911F910F91FF90DF90B5
:104C0000CF90BF90AF9008950E9424278823D1F2BF
:104C1000F82EEFCF8091F100F60181936F0121977B
:104C2000FFEFAF1ABF0ACECFFC01809177029091BF
:104C3000780286179707A0F06115710529F4909105
:104C4000E8009E779093E80090E06115710551F4BB
:104C5000911108C08091E80082FF34C080E008957F
:104C6000BC01F2CF809170028823C1F18530C1F17F
:104C70008091E80083FD30C08091E80082FDEACF9A
:104C80008091E80080FFE1CF8091F3002091F20055
:104C9000382F6115710519F02830310558F091E071
:104CA0002830310509F090E02091E8002E7720931C
:104CB000E800CBCF81918093F100615071092F5FA3
:104CC0003F4FE7CF80917002882341F0853041F05B
:104CD0008091E80083FFBECF81E0089582E00895CF
:104CE00083E00895FC018091770290917802861705
:104CF0009707A0F06115710529F48091E8008E777F
:104D00008093E80090E06115710551F4911108C09D
:104D10008091E80082FF35C080E00895BC01F2CFA9
:104D2000809170028823C9F18530C9F18091E80033
:104D300083FD31C08091E80082FDEACF8091E800D8
:104D400080FFE1CF8091F3002091F200382F6115B0
:104D5000710519F02830310558F091E028303105FF
:104D600009F090E08091E8008E778093E800CBCF47
:104D700084918093F1003196615071092F5F3F4F0C
:104D8000E6CF80917002882341F0853041F0809118
:104D9000E80083FFBDCF81E0089582E0089583E0BD
:104DA0000895982F973028F08F708093E90081E064
:104DB00008959093E900242F762F50E0981731F052
:104DC0007091EC002091ED005091F00021FD02C0A7
:104DD0009F5FE8CF3091EB003E7F3093EB00309146
:104DE000ED003D7F3093ED003091EB00316030936A
:104DF000EB007093EC002093ED005093F0002091B5
:104E0000EE0027FDE5CF80E008958091710287FFD5
:104E100013C08091E80082FF06C08091E8008B7784
:104E20008093E80004C0809170028111F2CF089550
:104E3000809170028823D9F38091E80080FFF8CF39
:104E40008091E8008E77ECCF2091E4003091E5006E
:104E500095E6A9012091EC00822F817020FF06C009
:104E60008091E80080FF06C080E008952091E8006E
:104E700022FD1AC080917002882389F0853089F064
:104E80008091EB0085FD0FC02091E4003091E5009A
:104E900042175307F9F29150E1F684E0089582E059
:104EA000089583E0089581E008950E94C3270E9439
:104EB000CB27E0EEF0E0808181608083E8EDF0E0D8
:104EC00080818F77808319BCA7EDB0E08C918E7FB5
:104ED0008C9380818F7E808310926F0208950F9350
:104EE0001F93CF93DF930E94C3270E94CB27C8ED67
:104EF000D0E088818F7788838881806888838881E3
:104F00008F7D888319BC1092700210926C021092EF
:104F10006E0210926D0200EE10E0F80180818B7F2E
:104F2000808388818160888342E060E080E00E9425
:104F3000D126E1EEF0E080818E7F8083E2EEF0E02A
:104F4000808181608083808188608083F801808196
:104F50008E7F8083888180618883DF91CF911F91CC
:104F60000F910895E8EDF0E080818F7E8083E7ED7A
:104F7000F0E080818160808384E082BF81E0809363
:104F80006F020C946F27E8EDF0E080818E7F8083C4
:104F90001092E20008951092DA001092E100089554
:104FA0001F920F920FB60F9211242F933F934F939E
:104FB0005F936F937F938F939F93AF93BF93EF9381
:104FC000FF938091E10082FF0BC08091E20082FF9D
:104FD00007C08091E1008B7F8093E1000E943A2A14
:104FE0008091DA0080FF19C08091D80080FF15C041
:104FF0008091DA008E7F8093DA008091D90080FF63
:1050000096C080E189BD82E189BD09B400FEFDCF73
:1050100081E0809370020E94A7238091E10080FFCD
:1050200019C08091E20080FF15C08091E2008E7F60
:105030008093E2008091E20080618093E2008091A1
:10504000D80080628093D80019BC85E080937002FC
:105050000E94B9238091E10084FF2BC08091E2007F
:1050600084FF27C080E189BD82E189BD89B5982F81
:10507000917080FFFBCF8091D8008F7D8093D80006
:105080008091E1008F7E8093E1008091E2008F7E2D
:105090008093E2008091E20081608093E200809141
:1050A0006C02882309F449C084E0809370020E9456
:1050B000BA238091E10083FF29C08091E20083FF41
:1050C00025C08091E100877F8093E10082E080939A
:1050D000700210926C028091E1008E7F8093E1005B
:1050E0008091E2008E7F8093E2008091E2008061F7
:1050F0008093E20042E060E080E00E94D12680914F
:10510000F00088608093F0000E94B823FF91EF9137
:10511000BF91AF919F918F917F916F915F914F91CF
:105120003F912F910F900FBE0F901F90189519BCB3
:10513000109270020E94B52370CF8091E30087FD2A
:1051400093E090937002B3CF1F920F920FB60F921D
:1051500011242F933F934F935F936F937F938F937C
:105160009F93AF93BF93CF93DF93EF93FF93D09130
:10517000E900DF708091EC00C82FC17080FDC0E8AD
:105180001092E9008091F000877F8093F00078947E
:105190000E94E8281092E9008091F00088608093D6
:1051A000F000CD2BCF70C093E900FF91EF91DF911C
:1051B000CF91BF91AF919F918F917F916F915F91AF
:1051C0004F913F912F910F900FBE0F901F90189508
:1051D0001F93CF93DF93CDB7DEB7AA970FB6F8949E
:1051E000DEBF0FBECDBF81E792E02091F100FC0150
:1051F0002193CF01F2E089379F07B9F70E94CF23AF
:105200008091E80083FF1EC180917102909172022B
:105210009A3008F017C1E92FF0E0E159F44D0C94F1
:10522000A02A803899F0823809F00CC1809175026B
:105230008F70873008F006C18093E9008091EB0001
:1052400085FB882780F91092E90006C080916D02E5
:1052500090916E02911182609091E800977F9093F7
:10526000E8008093F1001092F1008091E8008E77C1
:10527000E5C0882309F4D3C0823009F0E3C08091EF
:1052800073028111D6C0809175028F702FEF280FA5
:10529000263008F0D7C08093E9002091EB0020FF72
:1052A000C8C0933031F48091EB0080628093EB00B2
:1052B000C0C09091EB0090619093EB0021E030E052
:1052C00001C0220F8A95EAF72093EA001092EA00C3
:1052D0008091EB008860EACF8111B4C01091730215
:1052E0001F778091E3008078812B8093E300809189
:1052F000E800877F8093E8000E9405278091E800FE
:1053000080FFFCCF8091E30080688093E30082E01F
:10531000111183E08093700295C08058823008F0AC
:1053200091C080917302909174028C3D23E09207AA
:10533000A1F583E08A838AE289834FB7F894DE017E
:10534000139620E03EE051E2E32FF0E05093570047
:10535000E49120FF03C0E295EF703F5FEF708E2F66
:1053600090E0EA30C0F0C7968D939D932F5F243173
:1053700059F74FBF8091E800877F8093E8006AE289
:1053800070E0CE0101960E9414268091E8008B7790
:105390008093E80057C0C096E7CF60917502709186
:1053A0007602AE014F5F5F4F0E940725BC01892B3B
:1053B00009F448C09091E800977F9093E8008981B4
:1053C0009A810E947226E1CF8038E1F58091E80051
:1053D000877F8093E80080916C028093F10045CF35
:1053E000811130C090917302923060F58091E80095
:1053F000877F8093E80090936C020E94052780913C
:105400006C02882311F084E005C08091E30087FDE1
:10541000FACF81E0809370020E94BB2313C0809179
:105420007302813079F481E0933009F080E0809359
:105430006E021092E9008091E800877F8093E80077
:105440000E9405278091E80083FF0AC08091E80050
:10545000877F8093E8008091EB0080628093EB006F
:10546000AA960FB6F894DEBF0FBECDBFDF91CF91E5
:105470001F9108950895CF93809170028823A1F021
:10548000C091E900CF709091EC00892F817090FD60
:1054900080E8C82B1092E9008091E80083FD0E940B
:1054A000E828CF70C093E900CF910895AA1BBB1BD9
:1054B00051E107C0AA1FBB1FA617B70710F0A61B14
:1054C000B70B881F991F5A95A9F780959095BC0135
:1054D000CD01089597FB072E16F4009407D077FDB1
:1054E00009D00E94562A07FC05D03EF4909581957C
:1054F0009F4F0895709561957F4F0895A1E21A2EF0
:10550000AA1BBB1BFD010DC0AA1FBB1FEE1FFF1F67
:10551000A217B307E407F50720F0A21BB30BE40BB7
:10552000F50B661F771F881F991F1A9469F76095FE
:105530007095809590959B01AC01BD01CF010895B8
:10554000EE0FFF1F0590F491E02D0994692796272F
:10555000692778278727782708950E94B52A33235B
:1055600012F48A1B9B0B0C94C62AA29FB001B39F16
:10557000C001A39F700D811D1124911DB29F700D5C
:10558000811D1124911D08950E94B52AB7FF089529
:10559000821B930B08950E94B52AA59F900DB49F7E
:1055A000900DA49F800D911D11240895B7FF0C94B8
:1055B000CB2A0E94CB2A821B930B0895FC014150F9
:1055C000504030F001900616D1F73197CF01089581
:1055D000882799270895FB01DC0104C08D91019073
:1055E000801921F441505040C8F7881B990B089549
:1055F000F999FECF92BD81BDF89A992780B508959B
:10560000A6E1B0E044E050E00C94322BA8E1B0E019
:1056100042E050E00C94322B262FF999FECF92BD38
:1056200081BDF89A019700B4021639F01FBA20BD67
:105630000FB6F894FA9AF99A0FBE08950396272F99
:105640000E940D2B0E940C2B252F0E940D2B242F26
:105650000C940D2B0196272F0E940D2B0C940C2BD4
:10566000DC01CB01FC01F999FECF06C0F2BDE1BD22
:10567000F89A319600B40D9241505040B8F7089511
:10568000F894FFCF3D063D0695069506E70603070D
:105690006A066A060E077507840784074E084E08D7
:1056A0005708570859085708570857084E084E0812
:1056B0005E08570857085E08161D201D411D4D1D28
:1056C000581D631D661D691D6C1DB51DB51D6F1D23
:1056D000731D7B1D881D951D981D9B1DA81D1129DF
:1056E0003929222A3929222A6C298D29222AE429BA
:0256F000F0299F
:1056F20004022808641E140A321E0101020004007A
:10570200040401191A1B1C1D1E1F202122FA2250FB
:10571200232F232B23272301E200E900EA00B5000F
:10572200B600B700CD008301CC008A01920194013A
:105732002102230224022502260227022A02B300A2
:10574200B4006F007000818283E200E900EA00B5D4
:1057520000B600B700CD008301CC008A019201940B
:10576200012102230224022502260227022A02B371
:1057720000B4006F007000818283C6973534000147
:10578200020202020606060909090909090F0F0F9A
:105792000F0F0F15151518191919191919191919A2
:1057A20019232440227BE9044C046E04F1030A0409
:0257B2002A04C7
:00000001FF
